:100000000C940A090C9442090C9442090C9442097C
:100010000C9442090C9442090C9442090C94420934
:100020000C9442090C9442090C94272F0C94FB2F3A
:100030000C9439290C9442090C9442090C944209FD
:100040000C9442090C9442090C9442090C94420904
:100050000C9442090C94C0290C9442090C94420956
:100060000C9442090C9442090C9442090C944209E4
:100070000C9442090C9442090C9442090C944209D4
:100080000C9442090C9442090C9442090C944209C4
:100090000C9442090C9442090C9442090C944209B4
:1000A0000C9442090C9442090C9442097363723A0D
:1000B0002E007363723A2A006361703A2E00636106
:1000C000703A2A006E756D3A2E006E756D3A2A00F0
:1000D0005354415453002D2D2D2D2D0000756E6469
:1000E00000756E6400666E633A2A006465663A2E97
:1000F00000666E633A2E006465663A2A004C4159E8
:100100004552006800165C1E001F002000210022DE
:1001100000230024002500260027002D002E002AA1
:100120000069002B0014001A000800150017001CBD
:100130000018000C00120013002F00300031006A7C
:1001400000390004001600070009000A000B000D2A
:10015000000E000F00330034002800A8006B00E1FF
:10016000001D001B000600190005001100100036DC
:100170000037003800E5005200E3006C00E000E2C8
:10018000000000000000002C0000000000E600015C
:1001900051E400500051004F00010001003A003BC3
:1001A000003C003D003E003F004000410042004353
:1001B00000440045004C0001000100010001000165
:1001C0000001000100010001000100010001000127
:1001D0000001000100010001000100010001000117
:1001E0000001000100010001000100010001000107
:1001F00000010001000100010001000100010001F7
:1002000000010001000100010001000100010000E7
:100210005C0100010001000000000000000100007E
:100220000000000100010001000100010001004484
:10023000454255473A2064697361626C65642E0AD1
:100240000044454255473A20656E61626C65642EF4
:100250000A000A0025303258006C65645F746173CF
:100260006B3A20004F6E6573686F743A2061637457
:100270006976653A2025640A000A00253031366225
:10028000003A200025303258000A722F63203031A6
:1002900032333435363738394142434445460A0013
:1002A000290A002575002F002575005D28002564AA
:1002B0000020002564002000256400200025640043
:1002C0007C0025303258006D6F7573656B65792041
:1002D0005B62746E7C782079207620685D28726578
:1002E000702F61636C293A205B006F6C65645F6FEF
:1002F000666620636D64206661696C65640A00004F
:10030000AE6F6C65645F6F6E20636D6420666169BB
:100310006C65640A0000AF6F6C65645F72656E6443
:10032000657239302064617461206661696C65644E
:100330000A006F6C65645F72656E6465722064614B
:100340007461206661696C65640A006F6C65645F46
:1003500072656E646572206F666673657420636F84
:100360006D6D616E64206661696C65640A00646924
:1003700073706C61795F7365747570322066616942
:100380006C65640A0000DA0281FFD9F1DB20A4A6C3
:100390002EAF646973706C61795F666C69707065AB
:1003A00064206661696C65640A0000A0C06F6C65BA
:1003B000645F696E697420636D64206E6F726D6135
:1003C0006C20726F746174696F6E206661696C6510
:1003D000640A0000A1C86F6C65645F696E6974206F
:1003E000636D64207365742031206661696C656497
:1003F0000A0000AED580A81FD300408D142000074E
:10040000087F0807003E5B4F5B3E003E6B4F6B3E34
:10041000001C3E7C3E1C00183C7E3C18001C577D96
:10042000571C001C5E7F5E1C0000183C180000FF7B
:10043000E7C3E7FF00001824180000FFE7DBE7FF31
:100440000030483A060E00262979292600407F050B
:10045000050700407F05253F005A3CE73C5A007FD6
:100460003E1C1C0800081C1C3E7F0014227F221426
:10047000005F5F005F5F0006097F017F0000668903
:10048000956A0060606060600094A2FFA29400081A
:10049000047E04080010207E20100008082A1C0892
:1004A00000081C2A0808001E10101010000C1E0C5A
:1004B0001E0C0030383E383000060E3E0E0600009E
:1004C000000000000000005F0000000007000700BF
:1004D00000147F147F1400242A7F2A12002313089B
:1004E00064620036495620500000080703000000EF
:1004F0001C224100000041221C00002A1C7F1C2AF3
:100500000008083E08080000807030000008080855
:100510000808000000606000002010080402003E8F
:100520005149453E0000427F40000072494949461A
:10053000002141494D33001814127F100027454512
:100540004539003C4A49493100412111090700362B
:100550004949493600464949291E00000014000057
:10056000000040340000000008142241001414145C
:100570001414000041221408000201590906003E2B
:10058000415D594E007C1211127C007F4949493669
:10059000003E41414122007F4141413E007F4949A7
:1005A0004941007F09090901003E41415173007F23
:1005B0000808087F0000417F4100002040413F01C2
:1005C000007F08142241007F40404040007F021C11
:1005D000027F007F0408107F003E4141413E007FC2
:1005E00009090906003E4151215E007F091929468B
:1005F0000026494949320003017F0103003F404082
:10060000403F001F2040201F003F4038403F006314
:1006100014081463000304780403006159494D432E
:1006200000007F41414100020408102000004141C8
:10063000417F0004020102040040404040400000AD
:1006400003070800002054547840007F28444438B1
:1006500000384444442800384444287F0038545427
:1006600054180000087E09020018A4A49C78007F9A
:10067000080404780000447D4000002040403D0014
:10068000007F102844000000417F4000007C047877
:100690000478007C0804047800384444443800FCA2
:1006A000182424180018242418FC007C08040408CA
:1006B0000048545454240004043F4424003C404067
:1006C000207C001C2040201C003C4030403C00446A
:1006D00028102844004C9090907C004464544C4472
:1006E000000008364100000000770000000041369D
:1006F0000800000201020402003C2623263C000000
:100700000000000000404040F0F8F8FF38FFF8F823
:100710003FF8F8FF38FFF8F8F040404000000000D4
:10072000000080C0C0C0800000C0C0800000008009
:10073000C0C000C0C0000080C0C00000000000C0F9
:10074000C0C0C0C000C0C000000000000000000029
:100750000000000000000000000000000000000099
:100760000000000000000000000000000000000089
:100770000000000000000000000000000000C0F0C9
:10078000F8FC3E1E06010000007F4141417F007FD2
:100790004141417F000080C0E07E5B4F5BFEC000B6
:1007A00000C000DCD7DEDEDED7DC00C000000000C9
:1007B0000000000000000000000000000000000039
:1007C0000000000000494949FFFFFFFFE0DFBFBF15
:1007D00000BFBFDFE0FFFFFFFF4949490000000005
:1007E000001F3F6060E0BF1F007F7F071E381E07AD
:1007F0007F7F007F7F0E1F3B716000000000007F45
:100800007F0C0C0C007E7E007F7E0303007F7E0346
:10081000037E7E03037F7E000F3E703C063C703EED
:100820000F00327B49493F7E007F7E0303001E3F5D
:1008300069696F2600000000000000000000030F3F
:100840001F3F3C7870600000007F4141417F007F86
:100850004141417F00307B7F7830202030787F3BE2
:100860000003000F7F0F0F0F7F0F00030000000039
:100870000000000000000000000000000000000078
:100880000000000000010101070F0F7F0F7F0F0F15
:100890007E0F0F7F0F7F0F0F070101010000000087
:1008A0000000000000000101000000000000000046
:1008B0000000000000000000000000000000000038
:1008C0000000000000000000000000000000000028
:1008D0000000000000000000000000000000000018
:1008E0000000000000000000000000000000000008
:1008F00000000000000000000000000000000000F8
:1009000000000000000000000000000000000000E7
:1009100000000000000000000000000000000000D7
:1009200000000000000000000000000000000000C7
:100930000000000000000000000000000000003186
:100940003A0964656C6179282A31306D73293A203F
:1009500025750A323A09696E74657276616C286D84
:1009600073293A2025750A333A096D61785F7370EF
:100970006565643A2025750A343A0974696D655FC6
:10098000746F5F6D61783A2025750A353A0977688A
:1009900065656C5F6D61785F73706565643A20258D
:1009A000750A363A09776865656C5F74696D655FCD
:1009B000746F5F6D61783A2025750A00703A09708E
:1009C00072696E742076616C7565730A643A097396
:1009D00065742064656661756C74730A75703A0994
:1009E0002B310A646E3A092D310A6C743A092B31A5
:1009F000300A72743A092D31300A4553432F713A47
:100A000009717569740A0A7370656564203D206414
:100A1000656C7461202A206D61785F737065656410
:100A2000202A2028726570656174202F2074696DFA
:100A3000655F746F5F6D6178290A776865726520FC
:100A400064656C74613A20637572736F723D2564DE
:100A50002C20776865656C3D25640A5365652068C0
:100A60007474703A2F2F656E2E77696B69706564A8
:100A700069612E6F72672F77696B692F4D6F757380
:100A8000655F6B6579730A004D3E20004D25753A10
:100A900025733E20003F0A003D2025750A003F0ACD
:100AA0000064656661756C74730A0025750A003F01
:100AB0000A000A092D2056616C756573202D0A0005
:100AC000710A000A092D204D6F7573656B657920D9
:100AD0002D0A003F00433E20004C25640A000A090D
:100AE0002D20537461747573202D0A686F73745FC1
:100AF0006B6579626F6172645F6C65647328293A13
:100B000020253032580A6B6579626F6172645F70BC
:100B1000726F746F636F6C3A20253032580A6B65C0
:100B200079626F6172645F69646C653A2025303266
:100B3000580A6B65796D61705F636F6E6669672EC9
:100B40006E6B726F3A20253032580A74696D657287
:100B50005F72656164333228293A202530386C5839
:100B60000A000A092D2056657273696F6E202D0ADE
:100B70005649443A20307846454544284665796EC2
:100B80004C61627329205049443A2030783030302B
:100B900030284B616C757A6129205645523A2030D5
:100BA00078303030310A4255494C443A2020284DA3
:100BB00061792033302032303232290A4F50544983
:100BC0004F4E533A204C554641204D4F5553454BBF
:100BD00045592045585452414B455920434F4E5397
:100BE0004F4C4520434F4D4D414E44204E4B524FAC
:100BF00020343039360A4743433A20382E342E30D9
:100C0000204156522D4C4942433A20322E302E304C
:100C1000204156525F415243483A20617672350A6C
:100C2000000A092D20436F6E736F6C65202D0A45F5
:100C300053432F713A09717569740A6D3A096D6FE2
:100C40007573656B65790A000A092D204D61676926
:100C500063202D0A443A094465627567204D657327
:100C60007361676520546F67676C650A583A094D70
:100C70006174726978204465627567204D6F6465A0
:100C800020546F67676C65202D2053686F77206B49
:100C900065797072657373657320696E206D617418
:100CA00072697820677269640A4B3A094B65796208
:100CB0006F61726420446562756720546F67676C6A
:100CC00065202D2053686F77206B6579707265738E
:100CD00073207265706F72740A4D3A0944656275CB
:100CE00067204D6F75736520546F67676C650A5692
:100CF0003A0956657273696F6E0A533A0953746103
:100D00007475730A433A09416374697661746520A6
:100D1000436F6E736F6C65204D6F64650A46312DAD
:100D20004631303A0953776974636820746F204CF8
:100D30006179657220302D392028463130203D20E0
:100D40004C30290A302D393A095377697463682089
:100D5000746F204C6179657220302D390A475241F9
:100D600056453A0953776974636820746F204C6163
:100D700079657220302028616C7465726E617465CB
:100D8000290A423A094A756D7020746F20426F6FCC
:100D9000746C6F616465720A4553433A094A756D14
:100DA0007020746F20426F6F746C6F616465722085
:100DB00028616C7465726E617465290A453A095040
:100DC00072696E7420454550524F4D2053657474BE
:100DD000696E67730A4253504143453A09436C6553
:100DE000617220454550524F4D0A4E3A094E4B52C2
:100DF0004F20546F67676C650A006B65796D617091
:100E00005F636F6E6669672E7261773A20253032B4
:100E1000580A2E737761705F636F6E74726F6C5FC8
:100E2000636170736C6F636B3A2025750A2E636182
:100E300070736C6F636B5F746F5F636F6E74726FF0
:100E40006C3A2025750A2E737761705F6C63746C41
:100E50005F6C6775693A2025750A2E737761705F3C
:100E60007263746C5F726775693A2025750A2E7318
:100E70007761705F6C616C745F6C6775693A20258F
:100E8000750A2E737761705F72616C745F7267753B
:100E9000693A2025750A2E6E6F5F6775693A2025BD
:100EA000750A2E737761705F67726176655F65732F
:100EB000633A2025750A2E737761705F6261636BF8
:100EC000736C6173685F6261636B73706163653AD1
:100ED0002025750A2E6E6B726F3A2025750A006404
:100EE000656275675F636F6E6669672E7261773AD8
:100EF00020253032580A2E656E61626C653A2025D5
:100F0000750A2E6D61747269783A2025750A2E6B08
:100F10006579626F6172643A2025750A2E6D6F756E
:100F200073653A2025750A006565636F6E666967AB
:100F30003A0A64656661756C745F6C617965723AD2
:100F40002025750A003F004E4B524F3A206F6666CF
:100F50000A004E4B524F3A206F6E0A000A6D6F75B1
:100F600073653A206F66660A000A6D6F7573653A9D
:100F7000206F6E0A000A6B6579626F6172643A20B5
:100F80006F66660A000A6B6579626F6172643A2067
:100F90006F6E0A000A6D61747269783A206F666636
:100FA0000A000A6D61747269783A206F6E0A000A4D
:100FB00064656275673A206F66660A000A64656256
:100FC00075673A206F6E0A000A0A4A756D70696E7D
:100FD0006720746F20626F6F746C6F616465722E2E
:100FE0002E2E2000433E2000436C656172696E67BF
:100FF00020454550524F4D0A000A002530325820F6
:10100000006B6579626F6172645F7265706F727494
:101010003A200064656C5F6B65795F6269743A20A1
:1010200063616E27742064656C3A20253032580A5B
:10103000006164645F6B65795F6269743A20636123
:101040006E2774206164643A20253032580A005BB0
:10105000735D005B575D005B535D005B525D005B41
:10106000445D005B435D000E034B0061006C007546
:10107000007A006100000012034600650079006EEE
:10108000004C0061006200730000000403090409C1
:10109000025B00030100A0FA090400000103010142
:1010A0000009211101000122400007058103080009
:1010B00001090401000103000000092111010001E0
:1010C00022B6000705820320000109040200020382
:1010D00000000009211101000122220007058303FD
:1010E0002000010705030320000112010002000097
:1010F0000008EDFE00000100010200010631FF09B9
:1011000074A1010975150026FF009520750881025C
:101110000976150026FF00952075089102C005018B
:101120000902A10185020901A10005091901290887
:101130001500250195087501810205010930093165
:101140001581257F95027508810609381581257F4F
:10115000950175088106050C0A38021581257F95D1
:101160000175088106C0C005010980A10185031928
:10117000012AB700150126B700950175108100C03E
:10118000050C0901A101850419012AA002150126F7
:10119000A002950175108100C005010906A1018515
:1011A00006050719E029E715002501950875018155
:1011B000020507190029EF1500250195F075018139
:1011C000020508190129059505750191029501751A
:1011D000039101C005010906A101050719E029E7EE
:1011E0001500250195087501810295017508810199
:1011F0000507190029FF150026FF009506750881CF
:1012000000050819012905950575019102950175DB
:10121000039101C011241FBECFEFDAE0DEBFCDBFC6
:1012200004B603FE18C08091910590919205A0919B
:101230009305B09194058730904BA740B04B59F47B
:1012400010929105109292051092930510929405B8
:10125000E0E0F8E3099512E0A0E0B1E0E2E8F5E6AD
:1012600002C005900D92A831B107D9F725E0A8E199
:10127000B2E001C01D92A139B207E1F70E94CE1A77
:101280000C946A320C940000FF93EF93E0911802E3
:10129000F0911902309709F00995EF91FF910895A7
:1012A000FC018591803011F0EFDFFBCF0895FF271F
:1012B000E0E230E247FF0CC0419597FF09C0EDE244
:1012C0006095709580959095611D711D811D911D92
:1012D00027FF02C0219530E350E2AA27660F771F4F
:1012E000881F991FAA1FA41710F0A41B63955A9575
:1012F000A9F7AA3008F0A95FA05DAF93F395611537
:1013000071058105910541F7ED3211F4EF93F395E5
:10131000F21718F43F93F395FBCF8F91B5DFFA9551
:10132000E1F70895E991F9918591803021F08532B6
:1013300019F0AADFF9CF089520E0E89455915532CD
:10134000C1F3503311F4689455915A3348F4505313
:1013500090F3220F022E220F220F200D250FF4CF23
:101360000EF4219589919991533619F3533729F148
:10137000533559F1BC0188279927E8945C3621F44C
:101380008991999168945591543639F446EF7EF0DD
:1013900077FF0DC08FEF9FEF0AC055374AE039F055
:1013A000583540E121F0523642E009F00895FF93AC
:1013B000EF937DDFEF91FF91B7CFFF93EF93FC01A8
:1013C00081918030B9F360DFFBCFFF93EF9368DF4B
:1013D000F1CFDF93CF93CDB7DEB72596A3DFCF91C3
:1013E000DF910895811105C089EA61118AEA0E949E
:1013F000D60C81E0089583E00895CF9360E08DEFEF
:1014000090E00E94401F60914E0270914F028091C7
:101410005002909151020E94410B882361F081306B
:1014200009F443C060E081EE90E00E94521F60E04A
:101430008DED90E008C060E087EF90E00E94521FC1
:1014400060E081EF90E00E94521F60E08CED90E040
:101450000E94521F0E946B27C82F60E086ED90E02B
:101460000E94401F60E080ED90E00E94401F84ECED
:1014700090E0C0FF02C08AEC90E060E00E94401F54
:1014800088EB90E0C1FF02C08EEB90E060E00E942C
:10149000401F8CEA90E0C2FF02C082EB90E060E067
:1014A0000E94401F80E0CF91089560E08BEE90E0B5
:1014B0000E94521F60E085EE90E0C5CF81E0089564
:1014C00081E008950E94600A089508950E94650AC7
:1014D0000895A5E0B0E0EFE6FAE00C94EA31498324
:1014E0005A8330911B0289819A81311119C0662378
:1014F00099F0222389F00E942D11182F682F8981DD
:101500009A810E94091169817A81812F0E94FC17BA
:101510002596E3E00C9406320E941B11182FF3CF9E
:101520000E942D1169817A81F1CFFC01262F408123
:1015300051816281738184810E94690A089581E0EA
:101540000895CF93DF93EC0160E00E94950ABE01FD
:101550000E94660ADF91CF9108950E94391908957B
:101560000E943D19089508950E94580F0E94B30AE1
:101570002FEF84E39CE0215080409040E1F700C0D1
:10158000000008950E94B40A0E94E42908950E9470
:10159000B40A0E94082A08950F931F93CF93DF93F4
:1015A0008C0161E00E94950AEC01B8010E94620A78
:1015B000811106C080E0DF91CF911F910F910895B6
:1015C000B801CE010E9420268823A1F3B801CE01E4
:1015D0000E94D420882371F3B801CE010E94922585
:1015E000882341F3F80182818823D9F0CB35FDE5CA
:1015F000DF07A9F170F4C130ECE5DE07B1F0CF3DB3
:10160000FCE5DF0721F1C115DC4559F40E94C20A4F
:10161000D1CFCD35EDE5DE07F9F020F1C83ADD4553
:10162000C1F0C8010E945E0AC6CF9091E802892FDE
:101630008E7F90FF81608093E80280FF05C081E487
:1016400092E00E945009B6CF8FE292E0FACF0E945A
:1016500006160E94C70AAECF0E944015E2CF0E9434
:101660004A15DFCF0E944E15DCCF0E9415290E943B
:10167000C60B0E94882008950E94CA0B0E941A2956
:101680000895CF92DF92EF92FF926C01EE24FF2437
:1016900020E0C114D104E104F10419F0C701B6013E
:1016A00020E1C72ED82EE92EFF24C114D104E10475
:1016B000F10419F0285FC701B6016B017C0154E009
:1016C000F694E794D794C7945A95D1F7C114D104EE
:1016D000E104F10419F02C5FC701B6016B017C0134
:1016E00042E0F694E794D794C7944A95D1F7C11491
:1016F000D104E104F10419F02E5FC701B6019695FB
:10170000879577956795672B682B692B09F02F5F75
:10171000822FFF90EF90DF90CF900895829590E018
:101720009C01220F331F220F331F2C7C9595879528
:10173000959587958373282B30E0C901880F991FF1
:101740008A7A359527952575822B0895CF93DF9357
:10175000D92F0E948E0BC82F8D2F0E948E0B9C2F8D
:10176000DF91CF91089508950E94B30B089581E011
:1017700008950E94B70B08950895CF93C82F0E9433
:10178000B40B8C2F0E94B90BCF91089580E00E947A
:10179000BD0B08950E946B270E94BD0B0895CF9347
:1017A0000E946B27C82F80911A028C1739F1C093C1
:1017B0001A028091E80282FF1EC080FF1CC089E5EA
:1017C00092E00E9450098091E80280FF14C01F92AD
:1017D000CF9384E592E09F938F930E94E9098091D3
:1017E000E8020F900F900F900F9080FF04C082E5E9
:1017F00092E00E9450098C2F0E94BD0BCF9108955A
:10180000ABE0B0E0E6E0FCE00C94EB314F835887AE
:1018100069877A878B8761110E9478141E821D82E6
:1018200085E0FE013796DE01119601900D928A95B2
:10183000E1F78C819D81892B61F449815A816B810B
:101840007C818D819E810E94A1132B96E2E00C94F5
:10185000073289819A8189238F3F79F3CE010196DE
:101860000E949F0A8111E9CFF0CFFC018081918114
:101870000E9467110895CF93C82F8823E1F08CEF61
:101880008C0F813AD0F48C2F0E94B624811113C0A2
:101890006C2F80910001909101010E9419288823EA
:1018A00029F08C2F0E9438140E9499148C2F0E94CA
:1018B00030140E949914CF91089580E28C0F8830E3
:1018C00048F4C77081E001C0880FCA95EAF70E940A
:1018D0005B14EFCFEBE5EC0FE33040F4F0E0E45BBA
:1018E000FE4F808190E00E94D927E5CFE8E5EC0F1C
:1018F000E73150F4F0E0EE0FFF1FE25EFE4F808113
:1019000091810E94EF27D7CFCD3EA8F28C2F0E9465
:10191000521B0E94251CCFCF882379F19CEF980F92
:10192000913A28F40E9438140E949914089590E284
:10193000980F983050F4877091E001C0990F8A9504
:10194000EAF7892F0E946114EFCF9BE5980F93303F
:1019500028F490E080E00E94D927089598E5980F38
:10196000973128F490E080E00E94EF2708958D3EA3
:1019700020F00E94AC1B0E94251C08951F93CF935A
:10198000DF93182FEB010E943B0C209739F4812F35
:101990000E948C0CDF91CF911F9108958FE99FE0F9
:1019A0000197F1F700C000002197EFCF70E060E0F1
:1019B000893311F460E570E00E94BE0C089588231D
:1019C00021F00E945B140E9499140895882321F04D
:1019D0000E9461140E9499140895B0E0A0E0E3EF22
:1019E000FCE00C94E4316C01D62FC72FFC0112816E
:1019F000F580F2949FE0F9220E945114E82E88238A
:101A0000B9F0E12E1123A1F08C2F807F803421F0DA
:101A100080E28D0F8830D0F08091650382FF16C080
:101A200082E00E94FC140E94511491E0E82EE92605
:101A3000BC2EB2948FE0B822FBE0FB1508F468C01E
:101A4000EB2DF0E0E459FD4C0C94D531E12CF0CFB6
:101A50000C2F0F70C07F11F00295007F112399F0B9
:101A6000002359F080E28D0F883010F0D11107C0AB
:101A7000802F0E945B140E9499148D2F41C0802FEB
:101A80000E946B14F8CF8D2F0E948C0C002309F458
:101A90003FC080E28D0F883010F0D11104C0802F3C
:101AA0000E94611403C0802F0E9471140E94991437
:101AB0002FC00C2F0F70C07FC03211F00295007F35
:101AC000DD2381F0D13009F463C0112309F46DC026
:101AD000FF2009F463C0F601858180FFCECF8F70AF
:101AE00085835CC08091650382FD33C0112359F06A
:101AF000002329F0802F0E945B140E94991480E03B
:101B00000E943B0C05C080E00E948C0C0111C7CFE5
:101B1000EB2DE850FF0B349720F40E946B270E94B6
:101B2000BD0BEE2089F00E944D1480FD0DC0F60122
:101B300012820E9447140E941110C6010E94180FC1
:101B40000E9447140E943310CDB7DEB7E9E00C9431
:101B50000032112389F0F11006C00E947B14802B03
:101B60000E94DF0CD5CF21E0F212F7CF0E947B1448
:101B7000802B0E948214CCCFF11006C00E948F14DB
:101B8000802F0E94E60CC4CF31E0F31609F2F6CFA5
:101B9000112331F085E08F1508F4BACF802FE0CF04
:101BA00094E09F1508F4B4CFEBCFFF2049F3D9336D
:101BB00049F4FFEF27EE33E0F15020403040E1F7E9
:101BC00000C000008D2F0E948C0CA2CF8C2F869518
:101BD0008695837069F0813009F09ACF8D2F9C2F04
:101BE0009370111102C090E080E00E94EF2790CF27
:101BF0008D2F9C2F9370111102C090E080E00E9405
:101C0000D92786CF8D2F112329F00E94521B0E94C5
:101C1000251C7ECF0E94AC1BFACF8C2F837009F05D
:101C200041C0111175CF4D2F429546954770440F15
:101C3000440F0D2F0F7010E030E020E0042E04C0A0
:101C4000000F111F221F331F0A94D2F760E070E0CB
:101C5000CB01D4FF0FC06FE070E080E090E004C0E3
:101C6000660F771F881F991F4A95D2F76095709568
:101C700080959095C695C695C370602B712B822B6D
:101C8000932BC23049F058F4C13019F00E94BC0FB8
:101C90003FCF0E94A90F3CCF0E94CF0F39CF0E94A7
:101CA000A60F36CF8695112311F08C2F81708823D3
:101CB00009F42ECF4D2F429546954770440F440F9F
:101CC0000D2F0F7010E030E020E0042E04C0000F54
:101CD000111F221F331F0A94D2F760E070E0CB017E
:101CE000D4FF0FC06FE070E080E090E004C0660FAA
:101CF000771F881F991F4A95D2F760957095809538
:101D00009095C695C695C370602B712B822B932B33
:101D1000C23049F058F4C13019F00E948C10F8CE4E
:101D20000E947910F5CE0E949F10F2CE0E94E80F1B
:101D3000EFCECF70112329F08C2F0E9411108D2F20
:101D40000FCF8D2F0E94E60C8C2F0E943310E0CE17
:101D5000D23F51F160F4D03FB9F0D13F81F011236F
:101D600009F449C0F11089CE8C2F8F7121C0D33F67
:101D700011F1D43FA1F78091650382FD26C08C2F1D
:101D80008F71112311F314C0112349F084E08F15D2
:101D900008F4BECE8C2F8F710E945710B9CE95E0FB
:101DA0009F1508F4B5CEF6CF8C2F8F711111CDCFC2
:101DB0000E941110ADCE112329F08C2F8F710E943B
:101DC000FB0FA6CE0E94F50FA3CE112349F0CF71D1
:101DD0008C2F0E94111063E08C2F0E94DE1498CE8D
:101DE00081E00E94FC14E1E0EF1508F091CE82E062
:101DF0000E94FC148DCEF110DACE8C2F8F71A5CFFE
:101E00000F931F93CF93DF93EC01688179818A81CF
:101E10000E9472118C010E94B2100E94A50FB8019D
:101E2000CE010E94ED0CDF91CF911F910F9108958B
:101E3000CF93DF93EC018B819C81892B29F08881E2
:101E4000998189238F3F51F4DF91CF910895CE017D
:101E50000E94000FCE010E94A10AF6CFCE010E947F
:101E6000CC0A8111F4CF0E945114882369F38A812E
:101E7000882351F38091650382FFE6CF82E00E94C0
:101E8000FC14E2CF90E080E00E94D92790E080E04F
:101E90000E94EF270E9478140E9499140E94B81D96
:101EA0000E94251C08950E9440140E94420F08952C
:101EB0000E9468140E94530F089592959F70963067
:101EC00091F058F4925F9F70923058F4803F19F06F
:101ED00030F4883E30F481E008959A5FF4CF843F77
:101EE000D1F380E00895883EB0F3813FD1F7F3CF7E
:101EF000FC01808191810E9467110E945D0F08950D
:101F0000A5E0B0E0E6E8FFE00C94EB312596E2E0D6
:101F10000C940732A6E0B0E0E0E9FFE00C94EB316E
:101F20002696E2E00C94073208950E94940F0895DB
:101F30000E94950F60935202709353028093540253
:101F4000909355020E94420F089508950E94980FA1
:101F500008950F931F930091520210915302209104
:101F6000540230915502602B712B822B932B0E94CF
:101F7000980F1F910F9108950F931F930091520294
:101F80001091530220915402309155026023712325
:101F9000822393230E94980F1F910F9108950F930E
:101FA0001F930091520210915302209154023091DC
:101FB000550260277127822793270E94980F1F914F
:101FC0000F9108950E94940F08950E94E20F0895C2
:101FD0000E94E50F60934E0270934F02809350026F
:101FE000909351020E94420F089560E070E0CB018F
:101FF0000E94E80F08950F931F9341E050E060E0C6
:1020000070E08A019B0104C0000F111F221F331FC3
:102010008A95D2F7C901B8010E94E80F1F910F916C
:1020200008950F931F9341E050E060E070E004C01A
:10203000440F551F661F771F8A95D2F780914E0275
:1020400090914F02A0915002B09151028A019B01E0
:10205000082B192B2A2B3B2BC901B8010E94E80F32
:102060001F910F9108950F931F9341E050E060E09E
:1020700070E004C0440F551F661F771F8A95D2F782
:10208000CB01BA01609570958095909500914E02B4
:1020900010914F0220915002309151026023712320
:1020A000822393230E94E80F1F910F9108950F93AD
:1020B0001F9341E050E060E070E004C0440F551F02
:1020C000661F771F8A95D2F780914E0290914F023A
:1020D000A0915002B09151028A019B010827192753
:1020E0002A273B27C901B8010E94E80F1F910F91D1
:1020F00008950F931F9300914E0210914F0220916B
:10210000500230915102602B712B822B932B0E9435
:10211000E80F1F910F9108950F931F9300914E02A6
:1021200010914F022091500230915102602371238F
:10213000822393230E94E80F1F910F9108950F931C
:102140001F9300914E0210914F0220915002309146
:10215000510260277127822793270E94E80F1F9161
:102160000F9108950895262F277091E001C0990FCF
:102170002A95EAF723E0769567952A95E1F725E019
:10218000269FF001279FF00D1124E40FF51F50E06A
:1021900040E0682F70E08191DF0111979B01042ED0
:1021A00002C0369527950A94E2F7217021952827D9
:1021B000292328272C934F5F5F4F4530510559F74E
:1021C0000895A82FA77023E0969587952A95E1F7A3
:1021D00025E0289FF001299FF00D1124E60FF71F3D
:1021E00050E040E080E0219130E00A2E02C03695B8
:1021F00027950A94E2F721703327042E01C0220F9D
:102200000A94EAF7822B4F5F5F4F4530510559F72B
:102210000895262F953070F48F3060F4682F70E0A9
:102220008FE0989F600D711D11244CE152E0822FC8
:102230000E94B3100895292F953068F48F3058F418
:1022400090E06CE172E03FE0239F800D911D11242E
:102250000E94E110089580E00895B0E0A0E0E3E37B
:10226000F1E10C94E4318C01C0904E02D0904F0209
:10227000E0905002F09051028091520290915302EE
:10228000A0915402B0915502C82AD92AEA2AFB2A01
:10229000CFE1D0E0BC2ED701C6010C2E04C0B6950C
:1022A000A795979587950A94D2F780FD09C0219745
:1022B00088F7B12C8B2DCDB7DEB7E9E00C94003256
:1022C000B8018C2F0E941718019789F3F3CFCF9391
:1022D000DF93EC010E942D11BE010E941718DF91BF
:1022E000CF9108951F93CF93DF93EB0190911B0241
:1022F000992339F0CB010E946711DF91CF911F9193
:102300000895882369F0CB010E942D11182F682FA2
:10231000CE010E940911BE01812F0E941718EDCF36
:10232000CB010E941B11182FF6CF1F93CF93DF9381
:10233000C091560216E0809157028C1304C0DF91C1
:10234000CF911F910895D0E01C9FF0011D9FF00DCB
:102350001124E85AFD4F408151816281738184814B
:1023600095810E948A0F2196C770E5CF409188021F
:102370005091890260918A0270918B0280918C0247
:1023800090918D020E948A0F08951F93CF93DF933F
:1023900080918D02807F09F049C080918A02882354
:1023A00009F444C080915602C0915702609188029E
:1023B00070918902A0918B02B0918C02D62FD72305
:1023C00016E0C81799F190E0109711F0DF3F19F46B
:1023D00001968770F6CF189F9001199F300D112438
:1023E000F901E85AFD4F41814713F2CF408146136E
:1023F000EFCF42814111ECCF438154814A1B5B0BEB
:10240000483C510528F780918D028F708061809340
:102410008D02F901E35AFD4F80818F7080618083C6
:1024200088E892E00E94180F0E949511DF91CF91E9
:102430001F910895A1E1B0E0E0E2F2E10C94E331F4
:102440008C0185E0F801DE011D9601900D928A95C0
:10245000E1F7F801E28088E8C82E82E0D82E60918A
:102460008B0270918C026115710509F44EC1909137
:10247000880220918902892F82238F3F09F445C168
:1024800040815181A380B480F0908A02F501E61B5F
:10249000F70BFF2009F4EAC080918D02382F307FBE
:1024A000E83CF10508F0A3C031116DC0FE2C2513E6
:1024B00016C0941314C0E11012C08F708061809315
:1024C0008D020E94B611C6010E94180F80918D02E4
:1024D000F80185838F2D6196EAE00C94FF31A114F9
:1024E000B10429F0842F85238F3F09F027C180E0B4
:1024F000F82FF170DF2E80FF3CC0809156022091B2
:10250000570236E0821315C04D875E878D859E8504
:102510000E946711292F22952F702230F0F024306D
:1025200018F59F70F1F0F8019581907FD1F4D12CCE
:102530001EC090E0389FF001399FF00D1124E85A39
:10254000FD4F6181651306C06081641303C0628121
:10255000E6120FC001968770D5CF9F7011F08823C7
:1025600031F3805E883018F3C8010E94180FFD2CEB
:10257000B1CFEE2009F4AECF80918D0281608093BF
:102580008D02F12CA7CF251306C0941304C0F801C7
:10259000EE2009F487C0C8010E94780F882319F142
:1025A000EE2009F180918D02803270F02091880236
:1025B0003091890238872F831986BB86AA868C873B
:1025C000CE0107960E94180F86E0F801A8E8B2E055
:1025D00001900D928A95E1F70E94C5110E94B611F3
:1025E000FF24F39477CFC8010E94180FF9CF31115F
:1025F00013C07A2DB98AA88A6E2D89890E94800F0E
:1026000088E892E00E94180F86E0F60111928A9500
:10261000E9F70E94B611B5CF25130FC094130DC072
:10262000E1100BC0F8018583C8010E94180F86E0F5
:10263000F60111928A95E9F74DCFC8010E94780FF3
:10264000882389F2EE2079F280918D02803208F49D
:10265000BBCF20918802309189023A8329831B8263
:10266000BD82AC828E83CE010196ACCFE83CF105F1
:1026700008F03EC0FE2CEE2009F4B5CF25132AC089
:10268000941328C080918D0280FD1BC0982F907FED
:10269000C1F0F8018583903F31F0982F907F905FD3
:1026A0008F70892B8583C8010E94180F86E0F8017E
:1026B000A8E8B2E001900D928A95E1F70E94B61168
:1026C00009CF86E0F801A8E8B2E001900D928A9562
:1026D000E1F700CFC8010E94780F811175CF80917A
:1026E0008D02816080938D02C8010E94180FF2CE86
:1026F0007A2DB98AA88A6E2D89890E94800F86E07A
:10270000F60111928A95E9F7D9CFEE2009F46BCF43
:10271000C8010E94780FF82E882309F464CF86E060
:10272000F801A8E8B2E001900D928A95E1F788E8F7
:1027300092E00E94350C0E94C511C0CF81E08E2529
:10274000D7CEACE0B0E0E7EAF3E10C94EA314F8396
:10275000588769877A878B879C87CE0107960E9466
:102760001A12882369F08A859B85892B39F04F815D
:102770005885842F85238F3F09F06BC016E05FC01A
:1027800086E0FE013796DE01119601900D928A9542
:10279000E1F78A859B85892B89F38F819885892329
:1027A0008F3F61F32091570230E0C9010196877095
:1027B0009927409156024817190671F40E94580F44
:1027C000109257021092560286E0E8E8F2E0DF012C
:1027D0001D928A95E9F7D2CF96E0929FD001939F00
:1027E000B00D1124A85ABD4FFE01319601900D92F3
:1027F0009A95E1F7809357020E949511BFCF819F70
:10280000C0011124885A9D4F0E941A128823E9F0B2
:10281000E09156021E9FF0011124E85AFD4F4081BD
:10282000518162817381848195810E948A0F809198
:10283000560290E001968770992780935602809106
:102840005602909157028913DACF2C96E3E00C944C
:10285000063269857A858B859C850E948A0F8ECF8A
:10286000682F80910001909101010E94BB2808957A
:10287000682F80910001909101010E94C92808955C
:1028800080910001909101010E94D72808958091C4
:10289000AE0285958595859508958091AE028770E5
:1028A00008959091AE02977081E009F480E0089558
:1028B0008091D10208959091D102892B8093D10209
:1028C000089580959091D10298239093D102089514
:1028D0001092D10208959091D002892B8093D0025A
:1028E000089580959091D00298239093D0020895F6
:1028F0001092D00208958091AF02089508950E9429
:102900007E1408959091650392FF08C09091AF02E4
:10291000981721F08093AF020E947F140895809150
:10292000AF02882329F01092AF0280E00E947F144A
:102930000895CF93DF93E0910001F0910101809120
:10294000D1028083E0910001F0910101808190919A
:10295000D002892B80839091AF02992381F0E0917E
:102960000001F09101018081892B80838091000119
:10297000909101010E94052881110E948F14C0913D
:102980000001D091010140E250E06EE872E0CE011A
:102990000E941B32892B59F080E2FE01AEE8B2E0C2
:1029A00001900D928A95E1F7CE010E947827DF9180
:1029B000CF91089508950E94DA14089590916503C7
:1029C00092FF11C098E0899F90011124622B6093BF
:1029D000AE020E9411108091AE0285958595859575
:1029E0000E94DB1408950E94111008951092AE0207
:1029F00080E00E94DB1408959091AE0280958923B7
:102A00008093AE02282F277091F4282F082E000CF7
:102A1000330B9217130659F09091650392FF07C08C
:102A20008595859585950E9433100E94F61408952A
:102A3000CF93C82F8091650382FB992790F99C174B
:102A4000E9F0C0FB82F98093650380916403909163
:102A500065030E947C1582E00E94FC148091E802CC
:102A600080FF0CC01F92CF9384E692E09F938F93D8
:102A70000E94E9090F900F900F900F90CF91089549
:102A80008091650382FB882780F991E089270E9465
:102A90001815089581E00E941815089580E00E949D
:102AA000181508956FEF7FEF90E080E00E94543298
:102AB000089590E080E00E94303221E0883E9E4FF1
:102AC00009F020E0822F089582E090E00E942832F1
:102AD000089583E090E00E9428320895CF9384E027
:102AE00090E00E942832C82F82E290E00E942832B3
:102AF000982F8C2FCF910895CF93C92F682F84E002
:102B000090E00E9436326C2F82E290E00E943632D2
:102B1000CF910895AB01BC018FE090E00E94483254
:102B20000895AB01BC0183E190E00E944832089512
:102B300060E070E0CB010E949115089560E070E0C4
:102B4000CB010E948A150E949815089568EE7EEFC9
:102B500090E080E00E94543260E082E090E00E94C9
:102B6000363260E083E090E00E94363210925202EA
:102B700010925302109254021092550260E084E0C9
:102B800090E00E94363264E082E290E00E943632A9
:102B900060E085E090E00E94363260E086E090E000
:102BA0000E9436326FEF87E090E00E94363240E0BC
:102BB00050E0BA0188E090E00E94483260E08DE089
:102BC00090E00E94363240E050E0BA0188E190E0A7
:102BD0000E94483260E087E190E00E94363240E097
:102BE00050E0BA018CE190E00E94483270E060E071
:102BF00080E290E00E94543240E050E0BA0188E167
:102C000090E00E9448320E949E1508950E94A615E9
:102C10000895682F8EE090E00E94363208950E9459
:102C2000A5296093E4027093E5028093E6029093F5
:102C3000E7026093E0027093E1028093E2029093D6
:102C4000E30208950E94A5296093E4027093E502CF
:102C50008093E6029093E7026093DC027093DD02BA
:102C60008093DE029093DF020895089508950E94F4
:102C70003616089508950E943A1608958EEF9BE245
:102C80000E9461270E9435160E943716089581E040
:102C900008950E9447160895089508950E944C16BD
:102CA0000E944D1608950E9413190E94BC0B0895AE
:102CB0000E9490290E94351A0E94531680E00E94BB
:102CC000061E0E941425E4E6F3E08081806880837C
:102CD00080916403909165030E947C150E943B16CD
:102CE0000895AAE0B0E0E7E7F6E10C94E0310E9435
:102CF0004B1AA82E81110E940F1652ED852E52E01C
:102D0000952E10E000E0702E802F0E9440196C017B
:102D1000F401E190F1904F01E816F90609F444C07E
:102D20008091E80281FD0E944919C7018C259D25EB
:102D3000B12CEE24E394F12C9C012E213F21232B76
:102D400069F10E9449168823B1F0BE827F82CE20AD
:102D5000DF2081E0C114D10409F480E088870E945B
:102D600099298160782F9A8789874E815F8168854C
:102D70008A850E94000C000F111FF801EE52FD4FD2
:102D800080819181E826F926F182E08281E0A1101C
:102D900001C080E02A96EDE00C94FC31B394EE0C77
:102DA000FF1CFFE0BF12C8CF0F5F1F4F053011059A
:102DB00009F0A9CF8FEF89838A831B820E9499290A
:102DC0008160782F9D838C8349815A816B818D81AD
:102DD0000E94000CDBCFCF93DF930E947116D82F97
:102DE0000E943325C82F81110E9422160E94AA201A
:102DF000D11101C0C1110E94581F0E94C31C0E9422
:102E0000CF0BDF91CF910895CF93DF930E941C18D1
:102E1000EC01811521E5920708F042C0811530E5EB
:102E2000930708F09DC0883E910530F5803E9105DE
:102E300008F092C0883A910588F4853A910508F027
:102E400084C08130910509F487C0009709F484C0DB
:102E5000049708F081C0D0E0C0E07EC08F3B9105B0
:102E6000D0F7C85AD0E0CC0FDD1FC15BDE4F099010
:102E7000D881C02DD46470C08115904250F4C11522
:102E800081E0D80708F068C0CD3ED10520F3D065B9
:102E900063C0C11590E4D907F0F2DF70D06A5CC05E
:102EA000811525E5920700F5811534E5930708F0B3
:102EB0008BC0811543E5940708F073C0C11582E506
:102EC000D80708F469C0CE018370992721E030E06B
:102ED00002C0220F331F8A95E2F7C695C69580E29D
:102EE000C89FE001112454C0C11599E5D907A8F481
:102EF000C11528E5D20708F06CC0C11536E5D30727
:102F000008F0A9CF8C2F0E94B318C82FD0E0DC2F77
:102F1000CC27CC27DF71D0621FC0C1154AE5D4078A
:102F200008F45CC0CE0190568115904208F093CF12
:102F30008D2F8F710E94B31890E0982F88278827D3
:102F40009F719C012C2BE901E6CFC55AD0E0C358F4
:102F5000DE4FC881D0E0D064CE01DF91CF910895DB
:102F6000E4E096958795EA95E1F783702C2F2695F6
:102F70002695237040E2249F90011124382B8C2F3A
:102F80008370C1E0D0E002C0CC0FDD1F8A95E2F76C
:102F9000C22BD32BDC68E0CFDC2FCC27C16FD06AEB
:102FA000DBCF8370992721E030E002C0220F331F6E
:102FB0008A95E2F7C695C69590E2C99FE001112473
:102FC000C22BD32BDA68C8CFD82FCC27C46FD06AD6
:102FD000C3CFDC2FCC27C06FD06ABECF8C2F8F70B1
:102FE0000E94B31834E0D695C7953A95E1F7CF70B3
:102FF0009C2FEC01D069B0CF972F7530A8F46F30BB
:1030000098F470E02FE0929F600D711D1124FB0178
:103010009BE4899FE00DF11D1124EE0FFF1FED5F72
:10302000FE4F85919491089580E090E008950E946C
:10303000FC170E940417089582389105B1F1B0F48D
:103040008133910509F475C048F48932910509F47A
:1030500069C08A32910509F473C0089585339105DA
:1030600009F459C08933910501F10895833E910512
:10307000A9F138F4803E9105F9F0823E910549F1BD
:103080000895863E9105A9F1873E9105C9F1843ED8
:10309000910519F52091650321FF1FC080916403FC
:1030A00084FD14C087EE90E008952091640323709E
:1030B000A1F080EE90E008952091640320FD47C0C8
:1030C0003091650330FF09C024FF44C090E080E0E8
:1030D00004C02091640322FDF7CF0895209164037A
:1030E00022FD3BC03091650330FDE3CF24FFF5CFD7
:1030F000EDCF2091640323FFF0CF24FDE7CFD2CFA3
:103100002091640323FD2CC03091650331FFEECF85
:1031100084EE90E008952091640325FFDECF89E2DC
:1031200090E008952091640325FFD7CF85E390E0D8
:1031300008952091640326FFD0CF8AE290E008959D
:103140002091640326FFC9CF81E390E0089589E3CD
:1031500090E0089583EE90E0089582EE90E0089567
:1031600086EE90E008959091640392FF06C0282FA8
:1031700028712830F9F4877F846093FF06C0282FD8
:1031800028712831F1F4877E84612091650320FF46
:1031900006C0382F38713830D9F4877F816021FF1D
:1031A00006C0282F28712831D1F4877E816194FDD3
:1031B000877E0895282F24712430F9F68B7F88604C
:1031C000DCCF282F2471243101F78B7E8861DDCF7D
:1031D000382F3171313019F78E7F8860E0CF282F7A
:1031E0002171213121F78E7E8861E1CF0E94521535
:1031F00008950E944B1A2FEF86E791E021508040FE
:103200009040E1F700C000000E944B1A80E00E944D
:10321000401980FF04C00E94F6180E94E429089516
:103220000E94F91808950E945915811102C00E9448
:1032300006160E9464158093E8020E946E15909312
:103240006503809364030E9410190E946915682F1A
:1032500070E090E080E00E94A60F60914E027091B5
:103260004F0280915002909151020E94E50F089503
:1032700008950E943819089508950E943C190895F0
:10328000E82FF0E0EE0FFF1FE059FC4F80819181A5
:103290000895B0E0A0E0EFE4F9E10C94E53189E8AD
:1032A00092E00E94500980E7E82E83E0F82ED0E0FB
:1032B000C0E094E8C92E92E0D92E0BE712E0DF932C
:1032C000CF93DF92CF920E94E90981E892E00E94B9
:1032D0005009F701819191917F010E94A60B9F9364
:1032E0008F931F930F930E94E90989E792E00E9450
:1032F000500921968DB79EB708960FB6F8949EBFD9
:103300000FBE8DBFC530D105D1F6CDB7DEB7E8E031
:103310000C94013280EA8A95F1F7089500C008956F
:103320000E948A190895F894E82FE295EF70F0E072
:1033300031A1282F2F7081E090E001C0880F2A95DD
:10334000EAF7982F9095932391A392A1892B82A3BA
:1033500078940895CF93DF93CFE8D1E089918F3FA0
:1033600011F00E94931981E0C439D807B9F7C0E879
:10337000D1E089918F3F11F00E94931981E0CF38FD
:10338000D807B9F7DF91CF910895AF92BF92DF923E
:10339000EF92FF920F931F93CF93DF938C01D62E62
:1033A000C62FD0E0CE0181579E4F7C01FC012081C9
:1033B0002F3F09F44DC0F894E22FE295EF70F0E052
:1033C00031A12F7081E090E001C0880F2A95EAF7C3
:1033D000932F982B91A392A18095892382A378940F
:1033E0000E948E19E0E8F1E04FE851E021E030E082
:1033F000B12CA12C61916F3FA9F1A62FA295AF70BE
:10340000B0E090968C9190E06F7002C09595879592
:103410006A95E2F780FD26C0C901A82AB92A220FC1
:10342000331F4E175F0731F7F70180818F3F11F08F
:103430000E94931961E0A114B10409F460E08D2D9C
:103440000E949019CC0FDD1FC00FD11FB982A88236
:10345000DF91CF911F910F91FF90EF90DF90BF9080
:10346000AF90089590E080E0D8CF0E94AA198AE03A
:10347000E0E7F3E0DF01982F1D929A95E9F7E6E681
:10348000F3E0DF011D928A95E9F785E00E94871A33
:103490000E94AD0A0895AAE0B0E0E1E5FAE10C94DB
:1034A000E8318E010F5F1F4F8AE0F80111928A9573
:1034B000E9F7F12C6F2DC8010E94C519F394F5E0CE
:1034C000FF12F8CF4AE050E0B80186E693E00E9490
:1034D0001B32FF24F394009709F4F12C892B41F05F
:1034E0008AE0F801A6E6B3E001900D928A95E1F733
:1034F0002F2D45E060E773E086E693E00E94881A8E
:103500000E94B00A8F2D2A96E5E00C9404320895AB
:10351000FF920F931F93CF93DF93F82E092F162F4F
:10352000D72FC42F222349F081E08093EB020E9421
:1035300099299093EA028093E9028091EB02882313
:10354000A1F08091E9029091EA020E94B1290597C9
:1035500060F0EF2DF02FA12FBD2F90E080E0D0E0A4
:103560008C179D073CF01092EB02CDB7DEB7E5E07B
:103570000C940432219131912D933D930196F0CF1B
:103580000E947A2C0E9458160E94872C08950E944F
:103590008C2C0E94EB160E94AA2C08950E943229BE
:1035A0000E94602C0E943E160E94C01A0E94C71AF8
:1035B0000E944E16FBCF8091F20280FF0DC06091F9
:1035C000070170E0660F771F6038710570F56115AF
:1035D000710569F1862F089581FF07C06091070189
:1035E00084E0689FB0011124EFCF6091070182FD54
:1035F0000AC08091F1028823A9F020910601609110
:103600000701821710F088E0ECCF869FC0011124DB
:1036100033E0880F991F3A95E1F7622F70E00E941E
:10362000C131D2CF68E070E0D5CF8FE7089581E057
:1036300008958091F20280FF0CC06091030170E058
:1036400075956795759567956115710549F1862F93
:10365000089581FF06C06091030170E0759567953C
:10366000F3CF6091030182FD0BC09091F00299238A
:10367000A1F06091020180910301961738F0682F44
:1036800070E06038710500F38FE70895899FC001ED
:10369000112470E00E94C131F4CF61E070E0D7CF17
:1036A00081E008958D3E31F40E94DB1A819580936C
:1036B000F60208958E3E19F40E94DB1AF8CF8F3E71
:1036C00031F40E94DB1A81958093F5020895803FC2
:1036D00019F40E94DB1AF8CF893F29F40E94191BC4
:1036E0008093F70208958A3F21F40E94191B819567
:1036F000F7CF8B3F31F40E94191B81958093F8021C
:1037000008958C3F19F40E94191BF8CF9FE0980F81
:10371000983070F4815F990B21E030E001C0220FF6
:103720008A95EAF78091F402822B8093F40208953F
:103730008D3F31F48091F20281608093F20208950E
:103740008E3F21F48091F2028260F7CF8F3FB9F76C
:103750008091F2028460F1CF4091F5028D3E59F4E0
:103760008091F60287FF0DC01092F60241110BC046
:103770001092F10208C08E3E81F48091F602181674
:103780009CF3442381F08091F7029091F802892BF9
:1037900009F05AC01092F00208958F3E49F447FF95
:1037A000F0CF1092F5028091F6028111ECCFE0CFBC
:1037B000803F19F41416ACF3E4CF9091F702893FDF
:1037C00029F41916F4F61092F702DBCF8A3F19F4A8
:1037D00097FFD7CFF8CF9091F8028B3F29F497FF4E
:1037E000D0CF1092F802CDCF8C3F19F41916CCF33C
:1037F000C8CF9FE0980F983090F4815F990B21E03B
:1038000030E0B90102C0660F771F8A95E2F7CB015D
:1038100080959091F40289238093F402B2CF8D3F7A
:1038200031F48091F2028E7F8093F202AACF8E3F14
:1038300021F48091F2028D7FF7CF8F3F09F0A1CF65
:103840008091F2028B7FF0CF08958091E80283FF90
:103850007EC087EC92E00E9450098091F4021F9292
:103860008F9382EC92E09F938F930E94E90980EC02
:1038700092E00E9450098091F502282F082E000C3A
:10388000330B3F938F938DEB92E09F938F930E9426
:10389000E9098BEB92E00E9450098091F602282FF3
:1038A000082E000C330B3F938F9388EB92E09F938D
:1038B0008F930E94E90986EB92E00E945009809163
:1038C000F702282F082E000C330B3F938F9383EBC6
:1038D00092E09F938F930E94E90981EB92E00E940E
:1038E00050098091F802282F082E000C330B3F93CB
:1038F0008F938EEA92E09F938F930E94E9098BEA5F
:1039000092E00E9450098091F1021F928F9388EA01
:1039100092E09F938F930E94E90986EA92E00E94C9
:1039200050098091F2021F928F9383EA92E09F9355
:103930008F930E94E90980EA92E00E9450098DB7B6
:103940009EB74C960FB6F8949EBF0FBE8DBF0E94D7
:1039500099299C019091F5028091F602982B21F013
:103960003093EF022093EE029091F7028091F802DB
:10397000982B21F03093ED022093EC0283EF92E03C
:103980000E94CB270895A6E0B0E0E9ECFCE10C949E
:10399000EA3186E0E3EFF2E0DE01119601900D924C
:1039A0008A95E1F71092F5021092F6021092F70252
:1039B0001092F8028B819C81892B81F08091EE021C
:1039C0009091EF020E94B129AC019091F1029923EC
:1039D00091F18091080184171506D0F18D819E81A7
:1039E000892B91F08091EC029091ED020E94B12917
:1039F000AC019091F002992309F46BC0809104010D
:103A00008417150608F473C0BE016F5F7F4F83EF04
:103A100092E00E94E92881110E94251C86E0FE01A7
:103A20003196A3EFB2E001900D928A95E1F72696C8
:103A3000E3E00C940632209109018AE0289F90016E
:103A400011242417350750F69F5F9093F10202C0AE
:103A50009F3FD1F71B81112359F00E94DB1A9FEF82
:103A600011160CF491E0899F802D11248093F502AA
:103A70001C81112359F00E94DB1A9FEF11160CF4E0
:103A800091E0899F802D11248093F6023091F502F8
:103A9000332309F4A3CF2091F602222309F49ECF09
:103AA00045EB3403C0011124992359F09093F5029A
:103AB00045EB240390011124332339F03093F602AF
:103AC0008DCF81E08093F502F3CF81E08093F60201
:103AD00085CF209105018AE0289F900111242417A9
:103AE000350708F091CF9F5F9093F00202C09F3F8F
:103AF000D1F71D81112359F00E94191B9FEF111658
:103B00000CF491E0899F802D11248093F7021E818F
:103B1000112359F00E94191B9FEF11160CF491E02C
:103B2000899F802D11248093F8023091F70233236E
:103B300009F46ACF2091F802222309F465CF45EBFE
:103B40003403C0011124992359F09093F70245EBF7
:103B5000240390011124332339F03093F80254CF19
:103B600081E08093F702F3CF81E08093F8024CCF9D
:103B700086E0E3EFF2E0DF011D928A95E9F710920B
:103B8000F1021092F0021092F2020895B0E0A0E06B
:103B9000ECECFDE10C94E5316C017B0164E670E036
:103BA00088E70E947826EC0197FD12C010E000E043
:103BB000F601E00FF11F849164E670E00E94E626B2
:103BC000EC01892B29F40F5F1F4F0E151F0581F79C
:103BD0000E945D27CE01CDB7DEB7E8E00C9401323C
:103BE0000895EAE7F3E080E092E0DF019C011D9296
:103BF00021503040E1F7F0937F05E0937E058FEF91
:103C00009FEF909325038093240308950E94F01D55
:103C10000E94FB098093200380FD13C080E88093FD
:103C20001F030E9472266DE070E082EF93E00E9415
:103C3000C61D892B41F086ED93E00E94500980E07B
:103C4000089580E2ECCF8091200363E070E081FD75
:103C500009C083ED93E00E94C61D892B61F08DEAB7
:103C600093E0EBCF8AEA93E00E94C61D892B19F0FE
:103C700082E993E0E2CF6DE070E085E893E00E9496
:103C8000C61D892B19F08EE693E0D7CF0E94A52997
:103C9000605A75418F4F9F4F60937A0570937B05F3
:103CA00080937C0590937D050E94F11D81E08093B7
:103CB00023038093220310922103089520911F0370
:103CC00036E0839FC0011124629F800D911D112455
:103CD000811522E0920714F090E080E086589C4F16
:103CE00090937F0580937E05089520917E05309105
:103CF0007F052457334040911F03642F70E0C901B2
:103D00000E94AD31481B463010F4240F311D21159F
:103D100082E0380710F030E020E026583C4F309326
:103D20007F0520937E0508951F93CF93DF93162F71
:103D30008A3039F481E00E940D1FDF91CF911F91ED
:103D400008958D3011F480E0F6CFC0917E05D091BA
:103D50007F0596E0FE01A9EFB2E001900D929A95E1
:103D6000E1F7803EB8F086E0FE0111928A95E9F70E
:103D700011111CC0C0917E05D0917F0546E050E036
:103D8000BE0189EF92E00E941B32892BE9F40E9468
:103D9000751ED3CFF6E08F9FB001112461507C4F88
:103DA00046E050E0CE010E941232E2CFE0917E0563
:103DB000F0917F059F012A5F3F4F2E173F07D1F2F9
:103DC000808180958193F9CFCA57D340CE0125E0F9
:103DD000969587952A95E1F721E030E0A90102C088
:103DE000440F551F8A95E2F7CA0140912403509170
:103DF0002503842B952B259645E0D695C7954A95A6
:103E0000E1F702C0220F331FCA95E2F7822B932BF2
:103E10009093250380932403BACFCF93382FE0915A
:103E20007E05F0917F05EA57F34020911F03622F32
:103E300070E0CF010E94AD31281B822F332369F03F
:103E400066E00E94A131C82FC15010F4CF910895AF
:103E500060E080E20E94941EF7CF9F01280F311D81
:103E60002115324018F080E0F0E0E0E08E0F9F2F47
:103E7000911D86589C4F90937F0580937E05E6CFD9
:103E80001F93CF93DF93EC01162FFE0184918111D4
:103E900004C0DF91CF911F910895612F0E94941E5D
:103EA0002196F3CF0E94401F81E00E940D1F0895CC
:103EB00080912303811103C08091220308950E9401
:103EC000A529605A75418F4F9F4F60937A05709373
:103ED0007B0580937C0590937D0580912203811161
:103EE000EBCF62E070E085E193E00E94C61D892B74
:103EF00029F081E093E00E945009DECF81E08093B9
:103F00002203DACF2F923F925F926F927F928F922D
:103F10009F92AF92BF92CF92DF92EF92FF920F9358
:103F20001F93CF93DF9380912303882369F020911F
:103F30002403309125032115310531F080912103AF
:103F400061E070E0882399F0DF91CF911F910F918C
:103F5000FF90EF90DF90CF90BF90AF909F908F90A9
:103F60007F906F905F903F902F9008958F5F082F04
:103F700010E01B01082E02C0220C331C0A94E2F749
:103F8000A90142215321452B89F39091200390FDF3
:103F900021C08295880F807680930C019801369518
:103FA00027953695279520930F01815E80930D010B
:103FB0001092100124E630E047E050E06AE071E042
:103FC00088E70E941527892B99F08BE493E00E94E3
:103FD0005009BACF880F880F880F80930C01109278
:103FE0000F01895F80930D0183E080931001E2CF80
:103FF000A80125E0440F551F2A95E1F78091200381
:1040000080FD10C046585C4F04E610E020E230E02E
:1040100060E488E70E943627892B09F469C082E3AF
:1040200093E0D5CFEFEFF2E080E2DF011D928A95B9
:10403000E9F7A8E9B1E004E911E08CE9C82E81E0D4
:10404000D82E97E0592E772473948D91E801299109
:104050008E01240F352F311D26583C4FE82FF0E0FC
:10406000E150FD4F90E080E0652C681A872C082E07
:1040700001C0880C0A94EAF77901A12CE701B990F4
:104080007E01B820662D6A196770962E062E000CE8
:10409000770BDB2D01C0DD0F9A94EAF771956195DE
:1040A00071096770772701C0B6946A95EAF7BD2A4F
:1040B0006081962E9B289082A39468E0A612DECFA2
:1040C000019631968830910579F6CA16DB0609F01B
:1040D000BCCF04E610E020E230E04FEF52E060E4B5
:1040E00088E70E943627892B19F087E193E06FCF8C
:1040F0000E94581FE101C095D095809124039091B2
:104100002503C823D923D0932503C09324031CCFB0
:104110008091220390912303911103C091E089279C
:104120000895882389F062E070E08FEF92E00E94AA
:10413000C61D892B39F08AEE92E00E9450098091C9
:10414000220308951092220380912203E7CF0E9458
:10415000FD0908950F931F9380912303882309F18C
:1041600060E080E00E945E1E0E94A7200E94821FE5
:10417000809122038823A9F00E94A52900917A0545
:1041800010917B0520917C0530917D05601B710BA2
:10419000820B930B6F3F7F4F8F4F9F4710F40E940E
:1041A00088201F910F910895CF93DF93EC01FB01BD
:1041B0008281882309F433C1C430FDE5DF07C0F5EF
:1041C000CB3F9CE5D90730F49E0122503C45243179
:1041D0003105B0F50E946E159093650380936403DA
:1041E000C1318CE5D80709F4EEC008F069C0C930C8
:1041F000ECE5DE0709F4D5C0C8F5C5308CE5D80775
:1042000009F4C7C000F5C330ECE5DE0709F4B9C016
:1042100008F0BBC0C230DC4509F4ADC08091640336
:10422000909165030E947C150E94580F80E008C0A1
:10423000C236EDE5DE0771F2C63AFDE5DF0751F261
:10424000DF91CF910895809164038062C7309CE52F
:10425000D90709F493C0809164038061C830DC45BC
:1042600008F48CC080916403806488C080916403EA
:104270008B7FCD30FCE5DF0709F480C098F4809196
:1042800064038E7FCB309CE5D90709F477C0809119
:1042900064038C60CC30DC4508F470C0809164030A
:1042A0008D7F6CC0809164038F7ECF30FCE5DF078B
:1042B00009F464C008F47BC0809164038F7D5EC004
:1042C000CE3F9CE5D90709F47AC050F5C531FCE52D
:1042D000DF0709F486C098F480916403837FC331BB
:1042E0009CE5D90709F44AC008F471C00E94580F30
:1042F00090916403892F97FB87F980583FC0CC3F8A
:10430000FCE5DF0709F449C008F055C0809165035A
:104310008160CB3FDC4509F081CF809365037ECF80
:10432000C230EDE5DE0709F468C0A8F4C1158DE5DB
:10433000D80709F452C0809165038360C130DD4520
:1043400060F380916503982F909591708E7F892BF3
:1043500090FB81F9E2CFC236EDE5DE0709F451C0EA
:10436000C63AFDE5DF0709F453C0C330DD4509F067
:1043700055CF80E043C080916403816080936403E3
:104380004DCF809164038260F9CF80916403846093
:10439000F5CF809164038860F1CF809165038260DE
:1043A000BCCF0E94580F809164038068E7CF809152
:1043B0006403877FE3CF809165038E7FAECF8091CA
:1043C00065038D7FAACF809164038F7BD7CF0E9436
:1043D000580F809164038F77D1CF809165038C7FD4
:1043E0009CCF8091640382FB992790F921E092276A
:1043F00090FB82F990FB83F9C1CF81E00E940916FE
:104400000DCF90916403892F8F7E94FF8061B6CF8A
:1044100090916403892F8E7F90FF8160AFCF81E000
:104420000FCF809102011F928F93809103011F9201
:104430008F93809106011F928F93809107011F92A5
:104440008F93809108011F928F93809109011F9291
:104450008F938FE399E09F938F930E94E9098DB723
:104460009EB70E960FB6F8949EBF0FBE8DBF0895EF
:10447000883228F58E3108F072C08B3041F130F46B
:10448000873009F4CFC08EE99AE0E0C0833109F4A7
:104490005FC08431C1F780EC9AE00E94500980919E
:1044A0002A03882309F4FEC010922A0310922903DC
:1044B00010922803109227031092260320C08F34F5
:1044C00009F4C7C0D8F5893231F38833E1F683ECBB
:1044D0009AE00E9450090E9411221F9281E08F935E
:1044E0001F9288E08F938CEB99E09F938F930E94AB
:1044F000E9090F900F900F900F900F900F9020915F
:104500002A03222309F4C9C080912603909127032E
:10451000009711F48CE991E09F938F931F922F9352
:104520008CE89AE09F938F930E94E9090F900F9077
:104530000F900F900F900F9081E00895813509F44E
:104540009CC008F49CC0823509F09DCF81E082C0F8
:1045500082EB9AE00E9450090E941122D0CF8D5127
:1045600080932A03833009F442C058F48130C1F0AB
:104570008230A1F110922A038FEA9AE00E9450093A
:104580001BC0853009F445C0D8F1863099F782E028
:1045900091E0909329038093280384EE91E008C072
:1045A00089E091E0909329038093280380EA91E0C9
:1045B000909327038093260380912A03882309F48C
:1045C0009ECF1F928F938BEA9AE09F938F930E94C6
:1045D000E9090F900F900F900F9091CF88E091E034
:1045E000909329038093280389EA91E0E1CF87E043
:1045F00091E0909329038093280385EB91E0D8CF35
:1046000086E091E0909329038093280382EC91E067
:10461000CFCF83E091E0909329038093280381ED2D
:1046200091E0C6CF81E08093090184E18093080185
:104630008AE0809307018EE18093060188E08093F1
:10464000030188E28093020181EA9AE00E94500906
:1046500056CF8AE0E0912803F09129033097D1F0FA
:104660002081082E000C990B820F911D8F3F910520
:1046700041F03CF08FEF808307C08FEFEBCF86EFE8
:10468000E9CF97FFF8CF108280811F928F9388E93E
:104690009AE09BCF85E99AE0D9CF88E89AE00E941A
:1046A00050094ACF80E00895CF93C82F1F928F936F
:1046B00089ED9AE09F938F930E94E90961E070E091
:1046C00080E090E004C0660F771F881F991FCA958D
:1046D000D2F70E94A60F0E94580F0F900F900F90D4
:1046E0000F90CF910895B0E0A0E0E9E7F3E20C94D9
:1046F000E631EBEFE80FEF3308F02DC1F0E0E858BA
:10470000FD4C0C94D5310E9469151F928F9388E25D
:104710009FE09F938F930E94E9090E94641583FB99
:10472000992790F91F929F9382FB992790F91F92E6
:104730009F9381FB992790F91F929F93982F9170D7
:104740001F929F931F928F938FED9EE09F938F9365
:104750000E94E9090E946E1587FB222720F91F920B
:104760002F9386FB222720F91F922F9385FB222768
:1047700020F91F922F9384FB222720F91F922F9359
:1047800083FB222720F91F922F9382FB222720F9F7
:104790001F922F9391FB222720F91F922F93292FED
:1047A00021701F922F9381FB222720F91F922F93B4
:1047B000282F21701F922F939F938F938AEF9DE054
:1047C0009F938F930E94E9098DB79EB788960FB685
:1047D000F8949EBF0FBE8DBF81E01CC088EE9FE0A5
:1047E0000E9450090E940616F7CF88E49CE00E94C0
:1047F0005009F2CF8091E802807F8093E80281E245
:104800009CE00E94500984EE9FE00E94500981E0E4
:1048100080932B03CDB7DEB7E7E00C94023288EC2F
:104820009FE00E9450090E94C20AD6CF9091E802F0
:10483000892F8E7F90FF81608093E80280FF03C004
:104840008CEB9FE0D4CF8FEA9FE00E9450098091CB
:10485000E802817F8093E802BFCF9091E802892F20
:104860008D7F91FF82608093E80281FF08C082EA19
:104870009FE00E9450098091E8028160EBCF84E9BB
:104880009FE0B5CF9091E802892F8B7F92FF8460E3
:104890008093E80282FF03C085E89FE0EACF85E7C6
:1048A0009FE0A5CF9091E802892F877F93FF8860D2
:1048B0008093E80283FF03C089E69FE0DACF8CE5AE
:1048C0009FE095CF82E69BE092CF0E94A529062F1C
:1048D000F72EE82ED92EC0916403C7FBCC27C0F970
:1048E00010916303D0911D010E946B27DF92EF921C
:1048F000FF920F931F92CF931F921F931F92DF93EC
:104900001F928F938EED9AE09F938F930E94E909F7
:104910008DB79EB70E960FB6F8949EBF0FBE8DBF93
:104920005BCF0E94580F90916403892F97FB87F902
:1049300080588093640387FF03C082E59FE057CFD0
:1049400087E49FE054CF80E00E94542345CF8953F1
:10495000FBCF8D51F9CF85E49FE00E94500980E0A4
:1049600059CF80E008950E94B1240895CF93C82FB5
:1049700080912B038130C1F0882339F0823009F413
:1049800044C010922B0380E00DC00E945814823264
:10499000D1F78C2F0E94B12481111BC08C2F0E9453
:1049A00073238170CF9108950E945814823289F345
:1049B0008C2F0E94B32481111BC0C431D9F060F444
:1049C000CB3071F0C031D1F083ED9AE00E945009F4
:1049D00013C081E090E0E5CFC93261F0C833A1F7A0
:1049E00081E29CE00E94500985ED9AE00E94500906
:1049F00081E0D7CF10922B0380E0D3CF82E0809369
:104A00002B0388E30E943822F3CF8C2F0E94382298
:104A100081E0C8CF8FE891E00197F1F700C0000076
:104A200008950E94F209089581E080932D03539820
:104A30005B9A52985A9A0E940A2520912D034FE2C0
:104A400053E0FA018E2F841B821708F0089589B174
:104A500083FB882780F94A9904C090E0892B8193D1
:104A6000F1CF92E0FBCFB0E0A0E0E9E3F5E20C94F7
:104A7000E531F12CE12C84E0C82ED12C80912D035E
:104A8000F81630F08E2DCDB7DEB7E8E00C94013289
:104A90000F2D10E0E9B1E3FBEE27E0F94A9940C0A1
:104AA00080E08E2BD801A15DBC4FEC919E2F9370BE
:104AB0009817A1F1EE0FEE0FE82BEC93EF70F0E0FA
:104AC000E750FE4FE801C25DDC4F80819881890F7D
:104AD000888320E084305CF0F801E45DFC4F808145
:104AE0008F5F808360E08F2D0E94112521E08881F7
:104AF0008D3F5CF4F801E45DFC4F80818150808340
:104B000061E08F2D0E94112521E08881082E000C84
:104B1000990BB6010E94C1318883E22AF394AECF8B
:104B200082E0BFCFCF93DF93EB0186319C4511F537
:104B30000E9458149A81992399F08A7A91E009F495
:104B400090E090933003811109C089E20E943014F3
:104B50000E94991480E0DF91CF91089585E3F6CF0C
:104B600080913003811104C089E20E943814F0CF93
:104B700085E3FBCF81E0EFCF0F931F93CF93DF93BC
:104B8000C42FD22FFC0182818823C9F040933303C4
:104B90000E949929909332038093310380E28C0F15
:104BA000883040F4C77081E001C0880FCA95EAF7E9
:104BB0000E94DF0CDF91CF911F910F91089510910A
:104BC0003303141332C080913103909132030E9459
:104BD000B129883C910548F5C0E2CD0F1D17B9F009
:104BE00080E2810F883040F4177081E001C0880FA7
:104BF0001A95EAF70E94E60CC83048F481E09D2F30
:104C0000977001C0880F9A95EAF70E94DF0C802FF9
:104C10000E94D60CC83070F6D77081E001C0880FB2
:104C2000DA95EAF70E94E60CC5CF80E28C0F883057
:104C300008F6C77081E001C0880FCA95EAF7F2CF85
:104C40000F939C01CB01243F4CE5340759F1A8F4A4
:104C5000293DFCE53F0701F12A3D4CE53407D1F140
:104C6000283D3C4591F406E221EE41EE68ED7CE5FD
:104C70000E94BC2580E00F910895263FFCE53F0788
:104C8000E9F0B0F0273F3C45F9F0FC018281882330
:104C900039F110923303EFCF07E225EE45EE69EDCF
:104CA0007CE5E6CF06E221EE40EE64EF7CE5E0CF66
:104CB00007E225EE44EE65EF7CE5DACF06E221EE71
:104CC00042EE66EF7CE5D4CF07E225EE46EE67EFD5
:104CD0007CE5CECF08E221E045EE6AED7CE5C8CF69
:104CE00081E0C9CF1092B9008CE08093B80008959C
:104CF000B0E0A0E0EEE7F6E20C94E231B82EEB0172
:104D00000E9499296C01EE24E394F12CC431D10561
:104D100060F025E0E22EF12CCF3FDC0731F0CE0130
:104D200064E170E00E94AD317B0184EAA82E94E832
:104D3000992E1092BC00A092BC000E9499298C016F
:104D40008091BC0087FF0DC08091B900887F8830BA
:104D500001F18091B900887F8031D9F00FEF1FEF0A
:104D600009C00E949929801B910B8E159F0540F365
:104D70000EEF1FEFCF3FDC07E1F2C6010E94B12921
:104D80008C179D07B0F2C801CDB7DEB7EBE00C94ED
:104D9000FE31B092BB009092BC000E9499298C0118
:104DA0008091BC0087FF0AC08091B900887F88315C
:104DB00011F0803499F610E000E0E5CF0E949929C7
:104DC000801B910B8E159F0558F3D2CF0F931F9325
:104DD000CF93DF93EB018093BB0084E88093BC000A
:104DE0000E9499298C018091BC0087FF11C02091FD
:104DF000B900287F81E090E0283211F490E080E053
:104E0000919581959109DF91CF911F910F9108950F
:104E1000CF3FDC0741F30E949929801B910B8C172F
:104E20009D0708F38EEF9FEFEECFB0E0A0E0EBE13F
:104E3000F7E20C94E5316B018A017901B9010E9416
:104E40007826E6010C0D1D1DC017D10711F097FF44
:104E500008C024E92093BC00CDB7DEB7E8E00C948D
:104E60000132B70189910E94E626EECFB0E0A0E0C2
:104E7000ECE3F7E20C94E531C62F6A017901B80141
:104E80000E94782697FD0CC0B8018C2F0E94E62660
:104E9000E601EC0CFD1CCE15DF0511F097FF08C0F4
:104EA00024E92093BC00CDB7DEB7E8E00C940132D2
:104EB000B80189910E94E626EECF84E98093BC0078
:104EC00008959093190280931802089590933903DE
:104ED000809338030895E0913803F09139033097B7
:104EE00029F00190F081E02D0995089580E0089562
:104EF000EF92FF920F931F93CF93DF93EC01E0911A
:104F00003803F0913903309709F440C080911D01B6
:104F1000882341F08091640387FF04C088818983DE
:104F200086E088830280F381E02DCE01099580918F
:104F3000E80282FF2BC080FF04C081E090E10E9464
:104F4000500910E000E08BEFE82E8FE0F82E809102
:104F5000E80280FF0EC0FE01E00FF11F80811F926A
:104F60008F93FF92EF920E94E9090F900F900F909C
:104F70000F900F5F1F4F0830110549F78091E8022D
:104F800080FF04C089EF9FE00E945009CDB7DEB7D3
:104F9000E6E00C940332E0913803F0913903309746
:104FA00039F022E0DC012C930480F581E02D099595
:104FB000089520913603309137032817390771F08F
:104FC0009093370380933603E0913803F0913903CF
:104FD000309721F00680F781E02D09950895209102
:104FE0003403309135032817390771F09093350356
:104FF00080933403E0913803F0913903309721F026
:105000000084F185E02D09950895FC013296809188
:105010001D01882321F0809164039EE187FF96E0C3
:1050200080E0915008F4089521912223D1F38F5FFD
:10503000F8CF662301F120911D012223F1F0209188
:10504000640327FF1AC0462F4695469546954E3174
:1050500090F4677021E030E002C0220F331F6A95A0
:10506000E2F7840F911DFC01828190E0282339230F
:1050700081E0232B69F480E00895FC0132960896C4
:105080002191261721F0E817F907D1F7F4CF81E035
:1050900008959C01FC0132969FEF80E041914617F4
:1050A00051F09F3F19F4411101C0982F8F5F863056
:1050B000A9F79F3F09F40895290F311D97FD3A95EF
:1050C000F90162830895FC01329608962191261316
:1050D00003C0DF0111971C92E817F907B9F708958B
:1050E000E62FE695E695E695EE3170F4E80FF92F98
:1050F000F11D677021E030E001C0220F6A95EAF7E8
:105100008281822B828308958091E80280FF0CC007
:105110001F926F9381E390E19F938F930E94E9091F
:105120000F900F900F900F900895E62FE695E6955B
:10513000E695EE3178F4E80FF92FF11D677021E064
:1051400030E001C0220F6A95EAF72095828128237A
:10515000228308958091E80280FF0CC01F926F9314
:1051600083E190E19F938F930E94E9090F900F9044
:105170000F900F90089520911D01222339F0209166
:10518000640327FF03C00E94702808950E944928E5
:10519000089520911D01222339F02091640327FFF7
:1051A00003C00E94952808950E9463280895FC0179
:1051B000329680911D01882351F08091640387FF0E
:1051C00006C08EE1DF011D928A95E9F7089586E019
:1051D000F9CF46E050E00E941B3221E0892B09F410
:1051E00020E0822F089508950E94F32808958111E8
:1051F00006C081E080933A030E94F428089582E07B
:10520000F9CF83E080933A030E94F42808950E9426
:10521000F728089581E080933A030E94F4280895C6
:105220000E940A290895089508950E941429089556
:10523000089508950E9413290895CF930E94182974
:105240000E944B1A0E941929C0E08C2F0E9440191D
:10525000892B31F4CF5FC530C1F780E0CF9108953D
:1052600081E0FCCF85B7806885BF85B7806885BF42
:1052700008951F921FB61F9211248F939F93AF938F
:10528000BF9380913B03811113C080918005909161
:105290008105A0918205B09183054196A11DB11DA4
:1052A0008093800590938105A0938205B093830538
:1052B000BF91AF919F918F911F901FBE1F90189526
:1052C00080918805843031F10E94350B10923B03A8
:1052D00088E190E020E40FB6F894A89580936000F0
:1052E0000FBE2093600083B7817F846083BF83B744
:1052F000816083BF7894889583B78E7F83BF0FB614
:10530000F894A89580916000886180936000109265
:1053100060000FBE08950E94580F0E943C0B089534
:1053200082E084BD93E095BD9AEF97BD80936E00B7
:1053300008952FB7F8948091800590918105A091F0
:105340008205B09183052FBF08952FB7F89460911F
:1053500080057091810580918205909183052FBF12
:1053600008959C014FB7F894809180059091810534
:10537000A0918205B09183054FBF821B930B0895C6
:1053800078941F921FB61F9211248F939F93AF930F
:10539000BF938091800590918105A0918205B09185
:1053A00083050196A11DB11D809380059093810511
:1053B000A0938205B0938305BF91AF919F918F9188
:1053C0001F901FBE1F90189581E08093E00080E23F
:1053D0008093D8001092C9008FE19EE40197F1F705
:1053E00000C0000087E090EBDC0180939105909372
:1053F0009205A0939305B093940588E19CE00FB6C5
:10540000F894A895809360000FBE90936000FFCF42
:1054100088E19CE00FB6F894A895809360000FBED9
:1054200090936000FFCF80916203089508959C01DE
:1054300082E08093E9009FEF8091E800915085FD24
:1054400006C085ED8A95F1F700009111F5CF8091A6
:10545000E80085FF0CC050E040E066E070E0C90164
:105460000E941B2D8091E8008E778093E8000895BC
:10547000CF93DF93EC0180911D018823B1F18091DE
:10548000640387FF32C060E282E08093E9008FEF1F
:105490009091E800815095FD06C095ED9A95F1F741
:1054A00000008111F5CF8091E80085FF1BC080913D
:1054B0001D0170E050E040E0811104C050E040E088
:1054C00068E070E0CE010E941B2D8091E8008E778D
:1054D0008093E80080E2FE01A2E4B3E001900D9227
:1054E0008A95E1F7DF91CF91089568E081E0CDCF13
:1054F00080933E037093400360933F03809188053F
:10550000843001F582E08093E9008FEF9091E8000C
:10551000815095FD06C095ED9A95F1F70000811137
:10552000F5CF8091E80085FF0DC050E040E063E0DA
:1055300070E08EE393E00E941B2D8091E8008E774F
:105540008093E8000895BC0184E00E94782A0895C1
:10555000BC0183E00E94782A089583E690E10E94CE
:10556000500980918705811109C00E94AB2E0E94CD
:10557000082F8091E20084608093E20008958FE517
:1055800090E10E9450091092870508958BE590E103
:105590000E9450090E940A29089587E590E10E941F
:1055A00050096091840581E0611101C080E00E9492
:1055B0000129089583E590E10E94500990918805A2
:1055C00081E0943009F080E0609184050E94072911
:1055D000089520913D032F5F822F62E30E94A13145
:1055E000992319F020933D03089510923D03809173
:1055F00041038823F1F0809188058430C1F49091B3
:10560000E9009F702091EC00822F817020FD80E8DE
:10561000892B93E09093E9009091EB0090FF04C0F8
:105620009091EE0097FD08C08F708093E900109272
:10563000410308951092F1009091E80095FDFACF92
:105640009091E80090FFF0CF9091E8009E779093C2
:10565000E800EACF42E061EC81E00E94272E42E2BE
:1056600061EC82E00E94272E42E261EC83E00E941E
:10567000272E9091880581E0943009F080E06091B8
:1056800084050E94F728089580918A05833009F4E3
:1056900061C030F48130D1F1823009F49EC00895A8
:1056A0008A3009F48AC08B3009F46FC0893009F060
:1056B00050C080918905813209F04BC080918D05E1
:1056C00090918E05029708F044C08091E800877F92
:1056D0008093E8008091E80082FF37C09091F3004A
:1056E0008091F200029731F48091F100813011F045
:1056F000863021F48091F100809362038091E8006C
:105700008B778093E8000E945B2E23C080918905EF
:10571000813AF9F48091E800877F8093E8008091D6
:105720008D0590918E05892B61F460E282E493E00F
:1057300070E00E946A2D8091E8008B778093E800EA
:10574000089560E090E080E0F3CF809188058111BA
:10575000C1CF089580918905813AD9F780918D054F
:1057600090918E05892BA9F78091E800877F80931F
:10577000E8008091E80080FFFCCF80911D018093BC
:10578000F1008091E8008E77BCCF8091890581324D
:1057900001F780918D0590918E05892BD1F680912E
:1057A000E800877F8093E8000E945B2E80918B0544
:1057B00080931D010E94580F0895809189058132C0
:1057C00041F68091E800877F8093E8000E945B2E7D
:1057D00080918C0580936303089580918905813AB7
:1057E00009F0B7CF8091E800877F8093E80080912F
:1057F000E80080FFFCCF80916303C1CF9FB7F8948E
:10580000109241039FBF90918805943009F048C0E1
:105810002091E9002F703091EC00932F917030FDB2
:1058200090E8922B23E02093E9002091EB0020FFE9
:1058300034C02091EE0027FF30C020913C0322238A
:1058400021F02091E80025FF28C010923C0326E0BB
:105850003091E80035FF14C08093F1008091E8009A
:1058600085FD27C08091E80080FFFCCF8091E80093
:105870008E778093E8009F709093E90080E0089510
:1058800030918805343049F43091EB0035FD05C086
:10589000215041F481E080933C039F709093E90094
:1058A0008FEF0895EFE9FFE03197F1F700C00000B6
:1058B000CFCF8FB7F89421E0209341038FBFDBCF88
:1058C00084B7877F84BF0FB6F894A8958091600055
:1058D000886180936000109260000FBE80E890E0C5
:1058E0000FB6F89480936100909361000FBE0E9400
:1058F000102908950E94AB2E0E94082FE2EEF0E0DE
:1059000080818460808378940E948631089581E14B
:1059100091E00E946627089580918805853051F4B2
:105920008FE490E10E94500980918805853019F03C
:105930000E948B2908950E94602980918605882302
:1059400099F30E941D29882379F30E94052D0E9456
:10595000580FEACF08950E94AE2C0895292F3327BF
:105960002330310521F168F42130310509F443C0B9
:105970002230310509F444C090E080E030E020E0BE
:1059800026C02132310551F122323105A9F76330A9
:10599000710590F7FB01EE0FFF1FE45FFD4F2081C3
:1059A0003181675F7D4FFB01808190E010C09927B6
:1059B0008130910581F0009729F00297E9F6E7E63A
:1059C000F0E102C0EBE8F0E1849190E09F01FA0180
:1059D000318320830895E7E7F0E1F6CF6330710566
:1059E00058F6660F771FFB01EE5EFD4F2081318177
:1059F00089E090E0ECCF82E190E02AEE30E1E7CF61
:105A00008BE590E02FE830E1E2CF80E189BD82E1D3
:105A100089BD09B400FEFDCF8091D8008F7D8093B1
:105A2000D8008091E00082608093E0008091E000E7
:105A300081FDFCCF0895AF92BF92CF92DF92FF928B
:105A40000F931F93CF93DF936C01EB018A010E94A8
:105A50007A2EF82E811123C00115110539F0F801B5
:105A600080819181C81BD90BC80ED91EB12CA12CE5
:105A70002097A9F08091E80085FD22C08091E80080
:105A80008E778093E80001151105A1F0F80180815F
:105A90009181A80EB91EB182A08285E0F82E8F2DCB
:105AA000DF91CF911F910F91FF90DF90CF90BF902A
:105AB000AF9008950E947A2E8823D1F2F82EEFCF6E
:105AC000F60181916F018093F1002197FFEFAF1AEA
:105AD000BF0ACECFFC0180918F059091900586176B
