:100000000C9475090C94BC090C94BC090C94BC09A3
:100010000C94BC090C94BC090C94BC090C94BC094C
:100020000C94BC090C94BC090C94E3300C94B731CB
:100030000C945A2B0C94BC090C94BC090C94BC096C
:100040000C94BC090C94BC090C94BC090C94BC091C
:100050000C94BC090C94B12B0C94BC090C94BC09F5
:100060000C94BC090C94BC090C94BC090C94BC09FC
:100070000C94BC090C94BC090C94BC090C94BC09EC
:100080000C94BC090C94BC090C94BC090C94BC09DC
:100090000C94BC090C94BC090C94BC090C94BC09CC
:1000A0000C94BC090C94BC090C94BC0920202020A1
:1000B00000534352200020202020004341502000C4
:1000C00020202020004E554D2000556E6465666945
:1000D0006E656400464E0A0044656661756C740A7C
:1000E000004C617965723A20006800165C1E001FA2
:1000F00000200021002200230024002500260027E4
:10010000002D002E002A0069002B0014001A0008A0
:1001100000150017001C0018000C00120013002F1F
:1001200000300031006A00390004001600070009A1
:10013000000A000B000D000E000F003300340028F1
:1001400000A8006B00E1001D001B0006001900055F
:100150000011001000360037003800E5005200E3BF
:10016000006C00E000E2000000000000002C000035
:10017000000000E6000151E400500051004F000172
:100180000001003A003B003C003D003E003F0040C3
:1001900000410042004300440045004C00010001C2
:1001A0000001000100010001000100010001000147
:1001B0000001000100010001000100010001000137
:1001C0000001000100010001000100010001000127
:1001D0000001000100010001000100010001000117
:1001E0000001000100010001000100010001000107
:1001F0000001000100005C0100010001000000009E
:1002000000000001000000000001000100010001E9
:10021000000100010044454255473A20646973617A
:10022000626C65642E0A0044454255473A20656E6B
:1002300061626C65642E0A000A0025303136620066
:100240003A200025303258000A722F6320303132B4
:10025000333435363738394142434445460A006D18
:100260006B5F776865656C5F74696D655F746F5F00
:100270006D6178203D2025640A006D6B5F776865AD
:10028000656C5F6D61785F7370656564203D2025E6
:10029000640A006D6B5F74696D655F746F5F6D619B
:1002A00078203D2025640A006D6B5F6D61785F7377
:1002B00070656564203D2025640A006D6B5F696E82
:1002C00074657276616C203D2025640A006D6B5F59
:1002D00064656C6179203D2025640A006D6B5F7751
:1002E0006865656C5F74696D655F746F5F6D61787B
:1002F000203D2025640A006D6B5F776865656C5F43
:100300006D61785F7370656564203D2025640A0027
:100310006D6B5F74696D655F746F5F6D6178203DB3
:100320002025640A006D6B5F6D61785F7370656591
:1003300064203D2025640A006D6B5F696E746572F0
:1003400076616C203D2025640A006D6B5F64656CEE
:100350006179203D2025640A000A00257500363A9F
:1003600020776865656C5F74696D655F746F5F6D3C
:1003700061783A20000A00257500353A20776865D3
:10038000656C5F6D61785F73706565643A20000A23
:1003900000257500343A2074696D655F746F5F6D78
:1003A00061783A20000A00257500333A206D6178A3
:1003B0005F73706565643A20000A00257500323A63
:1003C00020696E74657276616C286D73293A20001D
:1003D0000A00257500313A2064656C6179282A315C
:1003E000306D73293A20000A092D2056616C75651D
:1003F00073202D0A004D3E004D25643E20003F0035
:100400007365742064656661756C740A00433E20F0
:100410000077686572652064656C74613A20637565
:1004200072736F723D25642C20776865656C3D257D
:10043000640A53656520687474703A2F2F656E2EB8
:1004400077696B6970656469612E6F72672F776970
:100450006B692F4D6F7573655F6B6579730A000A61
:10046000092D204D6F7573656B6579202D0A4553F5
:10047000432F713A09717569740A313A0964656CE0
:100480006179282A31306D73290A323A09696E740C
:10049000657276616C286D73290A333A096D61784B
:1004A0005F73706565640A343A0974696D655F74D9
:1004B0006F5F6D61780A353A09776865656C5F6DC5
:1004C00061785F73706565640A363A0977686565B7
:1004D0006C5F74696D655F746F5F6D61780A0A7037
:1004E0003A097072696E742076616C7565730A647E
:1004F0003A097365742064656661756C74730A7576
:10050000703A092B310A646F776E3A092D310A70FF
:100510006775703A092B31300A7067646F776E3AED
:10052000092D31300A0A7370656564203D206465C9
:100530006C7461202A206D61785F7370656564203A
:100540002A2028726570656174202F2074696D659A
:100550005F746F5F6D6178290A003F004D3E200097
:10056000433E20004C25640A0074696D65725F7219
:10057000656164333228293A202530346C580A00EA
:100580006B6579626F6172645F69646C653A20259E
:10059000580A006B6579626F6172645F70726F7484
:1005A0006F636F6C3A2025580A00686F73745F6B35
:1005B0006579626F6172645F6C65647328293A20A3
:1005C00025580A000A092D20537461747573202D73
:1005D0000A004743433A20382E342E3020415652E9
:1005E0002D4C4942433A20322E302E302041565273
:1005F0005F415243483A20617672350A004F5054A9
:10060000494F4E533A204C554641204D4F55534586
:100610004B45592045585452414B455920434F4E64
:10062000534F4C4520434F4D4D414E4420343039BB
:10063000360A004255494C443A2020284A756C201D
:1006400031302032303231290A005649443A2030C4
:100650007846454544286665796E6D616E746629F5
:10066000205049443A203078303030302829205604
:1006700045523A203078303030310A000A092D20B6
:1006800056657273696F6E202D0A000A092D20438A
:100690006F6E736F6C65202D0A4553432F713A09B5
:1006A000717569740A6D3A096D6F7573656B65795B
:1006B0000A000A092D204D61676963202D0A443A1A
:1006C000094465627567204D6573736167652054E1
:1006D0006F67676C650A583A094D617472697820D2
:1006E0004465627567204D6F646520546F67676C61
:1006F00065202D2053686F77206B65797072657364
:1007000073657320696E206D6174726978206772F9
:1007100069640A4B3A094B6579626F6172642044DF
:100720006562756720546F67676C65202D2053687C
:100730006F77206B65797072657373207265706F67
:1007400072740A4D3A094465627567204D6F75737E
:100750006520546F67676C650A563A09566572736F
:10076000696F6E0A533A095374617475730A433A98
:1007700009416374697661746520436F6E736F6CB1
:1007800065204D6F64650A46312D4631303A095374
:10079000776974636820746F204C617965722030CA
:1007A0002D392028463130203D204C30290A302D6B
:1007B000393A0953776974636820746F204C617902
:1007C000657220302D390A47524156453A09537710
:1007D0006974636820746F204C61796572203020E1
:1007E00028616C7465726E617465290A423A094A1F
:1007F000756D7020746F20426F6F746C6F616465EB
:10080000720A4553433A094A756D7020746F20424D
:100810006F6F746C6F616465722028616C746572AF
:100820006E617465290A453A095072696E742045F3
:100830004550524F4D2053657474696E67730A4278
:1008400053504143453A09436C6561722045455018
:10085000524F4D0A000A002575002E6E6B726F3ADA
:1008600020000A002575002E737761705F62616356
:100870006B736C6173685F6261636B7370616365F6
:100880003A20000A002575002E737761705F677249
:100890006176655F6573633A20000A002575002E56
:1008A0006E6F5F6775693A20000A002575002E7328
:1008B0007761705F72616C745F726775693A20006E
:1008C0000A002575002E737761705F6C616C745F30
:1008D0006C6775693A20000A002575002E737761F0
:1008E000705F7263746C5F726775693A20000A000A
:1008F0002575002E737761705F6C63746C5F6C6735
:1009000075693A20000A002575002E636170736CCA
:100910006F636B5F746F5F636F6E74726F6C3A209E
:10092000000A002575002E737761705F636F6E7427
:10093000726F6C5F636170736C6F636B3A20000A57
:100940000025303258006B65796D61705F636F6EA2
:100950006669672E7261773A20000A002575002EBD
:100960006D6F7573653A20000A002575002E6B6562
:1009700079626F6172643A20000A002575002E6D5D
:1009800061747269783A20000A002575002E656E40
:1009900061626C653A20000A0025303258006465B7
:1009A0006275675F636F6E6669672E7261773A2062
:1009B000000A0025750064656661756C745F6C6182
:1009C0007965723A20003F000A6D6F7573653A20B1
:1009D0006F66660A000A6D6F7573653A206F6E0A5E
:1009E000000A6B6579626F6172643A206F66660A0D
:1009F000000A6B6579626F6172643A206F6E0A005B
:100A00000A6D61747269783A206F66660A000A6D31
:100A100061747269783A206F6E0A000A64656275C3
:100A2000673A206F66660A000A64656275673A2055
:100A30006F6E0A000A0A4A756D70696E6720746FDE
:100A400020626F6F746C6F616465722E2E2E2000B1
:100A5000433E2000436C656172696E6720454550D6
:100A6000524F4D0A006565636F6E6669673A0A000A
:100A7000290A002575002F002575005D28002564D2
:100A8000002000256400200025640020002564006B
:100A90007C0025303258006D6F7573656B65792069
:100AA0005B62746E7C782079207620685D287265A0
:100AB000702F61636C293A205B006F6C65645F6F17
:100AC000666620636D64206661696C65640A000077
:100AD000AE6F6C65645F6F6E20636D6420666169E4
:100AE0006C65640A0000AF6F6C65645F72656E646C
:100AF000657239302064617461206661696C656477
:100B00000A006F6C65645F72656E64657220646173
:100B10007461206661696C65640A006F6C65645F6E
:100B200072656E646572206F666673657420636FAC
:100B30006D6D616E64206661696C65640A0064694C
:100B400073706C61795F736574757032206661696A
:100B50006C65640A0000DA0281FFD9F1DB20A4A6EB
:100B60002EAF646973706C61795F666C69707065D3
:100B700064206661696C65640A0000A0C06F6C65E2
:100B8000645F696E697420636D64206E6F726D615D
:100B90006C20726F746174696F6E206661696C6538
:100BA000640A0000A1C86F6C65645F696E69742097
:100BB000636D64207365742031206661696C6564BF
:100BC0000A0000AED580A81FD300408D1420000776
:100BD000087F0807003E5B4F5B3E003E6B4F6B3E5D
:100BE000001C3E7C3E1C00183C7E3C18001C577DBF
:100BF000571C001C5E7F5E1C0000183C180000FFA4
:100C0000E7C3E7FF00001824180000FFE7DBE7FF59
:100C10000030483A060E00262979292600407F0533
:100C2000050700407F05253F005A3CE73C5A007FFE
:100C30003E1C1C0800081C1C3E7F0014227F22144E
:100C4000005F5F005F5F0006097F017F000066892B
:100C5000956A0060606060600094A2FFA294000842
:100C6000047E04080010207E20100008082A1C08BA
:100C700000081C2A0808001E10101010000C1E0C82
:100C80001E0C0030383E383000060E3E0E060000C6
:100C9000000000000000005F0000000007000700E7
:100CA00000147F147F1400242A7F2A1200231308C3
:100CB0006462003649562050000008070300000017
:100CC0001C224100000041221C00002A1C7F1C2A1B
:100CD0000008083E0808000080703000000808087E
:100CE0000808000000606000002010080402003EB8
:100CF0005149453E0000427F400000724949494643
:100D0000002141494D33001814127F10002745453A
:100D10004539003C4A494931004121110907003653
:100D20004949493600464949291E0000001400007F
:100D30000000403400000000081422410014141484
:100D40001414000041221408000201590906003E53
:100D5000415D594E007C1211127C007F4949493691
:100D6000003E41414122007F4141413E007F4949CF
:100D70004941007F09090901003E41415173007F4B
:100D80000808087F0000417F4100002040413F01EA
:100D9000007F08142241007F40404040007F021C39
:100DA000027F007F0408107F003E4141413E007FEA
:100DB00009090906003E4151215E007F09192946B3
:100DC0000026494949320003017F0103003F4040AA
:100DD000403F001F2040201F003F4038403F00633D
:100DE00014081463000304780403006159494D4357
:100DF00000007F41414100020408102000004141F1
:100E0000417F0004020102040040404040400000D5
:100E100003070800002054547840007F28444438D9
:100E200000384444442800384444287F003854544F
:100E300054180000087E09020018A4A49C78007FC2
:100E4000080404780000447D4000002040403D003C
:100E5000007F102844000000417F4000007C04789F
:100E60000478007C0804047800384444443800FCCA
:100E7000182424180018242418FC007C08040408F2
:100E80000048545454240004043F4424003C40408F
:100E9000207C001C2040201C003C4030403C004492
:100EA00028102844004C9090907C004464544C449A
:100EB00000000836410000000077000000004136C5
:100EC0000800000201020402003C2623263C000028
:100ED0000000000000404040F0F8F8FF38FFF8F84C
:100EE0003FF8F8FF38FFF8F8F040404000000000FD
:100EF000000080C0C0C0800000C0C0800000008032
:100F0000C0C000C0C0000080C0C00000000000C021
:100F1000C0C0C0C000C0C000000000000000000051
:100F200000000000000000000000000000000000C1
:100F300000000000000000000000000000000000B1
:100F40000000000000000000000000000000C0F0F1
:100F5000F8FC3E1E06010000007F4141417F007FFA
:100F60004141417F000080C0E07E5B4F5BFEC000DE
:100F700000C000DCD7DEDEDED7DC00C000000000F1
:100F80000000000000000000000000000000000061
:100F90000000000000494949FFFFFFFFE0DFBFBF3D
:100FA00000BFBFDFE0FFFFFFFF494949000000002D
:100FB000001F3F6060E0BF1F007F7F071E381E07D5
:100FC0007F7F007F7F0E1F3B716000000000007F6D
:100FD0007F0C0C0C007E7E007F7E0303007F7E036F
:100FE000037E7E03037F7E000F3E703C063C703E16
:100FF0000F00327B49493F7E007F7E0303001E3F86
:1010000069696F2600000000000000000000030F67
:101010001F3F3C7870600000007F4141417F007FAE
:101020004141417F00307B7F7830202030787F3B0A
:101030000003000F7F0F0F0F7F0F00030000000061
:1010400000000000000000000000000000000000A0
:101050000000000000010101070F0F7F0F7F0F0F3D
:101060007E0F0F7F0F7F0F0F0701010100000000AF
:10107000000000000000010100000000000000006E
:101080000000000000000000000000000000000060
:101090000000000000000000000000000000000050
:1010A0000000000000000000000000000000000040
:1010B0000000000000000000000000000000000030
:1010C0000000000000000000000000000000000020
:1010D0000000000000000000000000000000000010
:1010E0000000000000000000000000000000000000
:1010F00000000000000000000000000000000000F0
:101100000000000000000000000000000000000AD5
:10111000002530325820006B6579626F6172645F20
:101120007265706F72743A20000A002530325800E0
:101130006B6579626F6172645F7365745F6C65641F
:101140003A20004F6E6573686F743A20616374696A
:1011500076653A2025640A005B735D004B65796211
:101160006F6172642073746172742E0A005B575D44
:10117000005B535D005B525D005B445D005B435D63
:10118000000203000014036600650079006E006D24
:101190000061006E00740066000000040309040989
:1011A000025B00030100A0FA090400000103010131
:1011B00000092111010001224000070581030800F8
:1011C0000A090401000103000000092111010001C6
:1011D000227B000705820320000A090402000203A3
:1011E00000000009211101000122220007058303EC
:1011F0002000010705030320000112011001000077
:101200000008EDFE00000100010200010631FF09A7
:1012100074A1010975150026FF009520750881024B
:101220000976150026FF00952075089102C005017A
:101230000902A10185020901A10005091901290876
:101240001500250195087501810205010930093154
:101250001581257F95027508810609381581257F3E
:10126000950175088106050C0A38021581257F95C0
:101270000175088106C0C005010980A10185031917
:10128000012AB700150126B700950175108100C02D
:10129000050C0901A101850419012AA002150126E6
:1012A000A002950175108100C005010906A1010584
:1012B0000719E029E71500250195087501810295B8
:1012C00001750881010507190029FF150026FF0097
:1012D0009506750881000508190129059505750110
:1012E0009102950175039101C00011241FBECFEF3B
:1012F000DAE0DEBFCDBF04B603FE27C08091E5046F
:101300009091E604A091E704B091E8048730904BF7
:10131000A740B04BD1F41092E5041092E60410926D
:10132000E7041092E80414BE84B7877F84BF0FB629
:10133000F894A89580916000886180936000109275
:1013400060000FBEE0E0F8E3099511E0A0E0B1E035
:10135000E8E4F8E602C005900D92A43CB107D9F785
:1013600024E0A4ECB1E001C01D92A53EB207E1F774
:101370000E94182E0C94FA330C940000FF93EF9304
:10138000E091C401F091C501309709F00995EF9102
:10139000FF910895FC018591803011F0EFDFFBCFC4
:1013A0000895FF27E0E230E247FF0CC0419597FF28
:1013B00009C0EDE26095709580959095611D711D55
:1013C000811D911D27FF02C0219530E350E2AA271D
:1013D000660F771F881F991FAA1FA41710F0A41B60
:1013E00063955A95A9F7AA3008F0A95FA05DAF935D
:1013F000F395611571058105910541F7ED3211F401
:10140000EF93F395F21718F43F93F395FBCF8F9179
:10141000B5DFFA95E1F70895E991F991859180306A
:1014200021F0853219F0AADFF9CF089520E0E89481
:1014300055915532C1F3503311F4689455915A3394
:1014400048F4505390F3220F022E220F220F200D4A
:10145000250FF4CF0EF4219589919991533619F304
:10146000533729F1533559F1BC0188279927E8945E
:101470005C3621F48991999168945591543639F4E8
:1014800046EF7EF077FF0DC08FEF9FEF0AC0553714
:101490004AE039F0583540E121F0523642E009F097
:1014A0000895FF93EF937DDFEF91FF91B7CFFF9307
:1014B000EF93FC0181918030B9F360DFFBCFFF93A4
:1014C000EF9368DFF1CFDF93CF93CDB7DEB72596EB
:1014D000A3DFCF91DF910895811106C089EA6111E0
:1014E00001C08AEA0E94112181E00895CF9360E053
:1014F00081EE90E00E94C91960919402709195026A
:1015000080919602909197020E94850B882341F06A
:10151000813051F160E08AEC90E00E94DB1905C057
:1015200060E088ED90E00E94C9190E94701EC82FEB
:1015300080EC90E0C0FF02C085EC90E060E00E948B
:10154000C91986EB90E0C1FF02C08BEB90E060E030
:101550000E94C9198CEA90E0C2FF02C081EB90E0C2
:1015600060E0CF910C94C91960E084ED90E0DBCF8E
:1015700081E0089581E008950C94BA0A08950C94CE
:10158000BE0A1F93CF93DF9300D000D00F92CDB748
:10159000DEB749835A836B833091290289819A810E
:1015A00031111DC06623B9F02223A9F00E947C28C6
:1015B000182F682F89819A810E94282869817A8151
:1015C000812F0F900F900F900F900F90DF91CF9180
:1015D0001F910C940A0C0E945428182FEFCF0E94E0
:1015E0007C2869817A81EDCFFC01262F40815181D1
:1015F0006281738184810C94C10ACF93DF93EC01E3
:1016000060E00E94F40ABE01DF91CF910C94BF0A02
:101610000E94300E0C94550E0C94580E08950E94A2
:1016200092230E940E0B2FEF84E39CE02150804018
:101630009040E1F700C000000C94D52B0F931F934E
:10164000CF93DF938C0161E00E94F40AEC01B801B2
:101650000E94BC0A8823C1F1B801CE010E94D71BA9
:10166000882391F1B801CE010E94291C882361F1E1
:10167000B801CE010E944C1D882331F1F80182810E
:10168000882361F0CF3DFCE5DF07B1F170F4C115AF
:10169000ECE5DE07B9F0C130DC45E1F0C801DF91CF
:1016A000CF911F910F910C94B80ACC358DE5D807D6
:1016B00049F1CD35DC0719F1CB35DD4579F70E94CD
:1016C0003F29ECCF0E940F0B80E0DF91CF911F915B
:1016D0000F9108959091A902892F8E7F90FF8160CC
:1016E0008093A90280FF05C087E292E00E94CA09A8
:1016F000EBCF85E192E0FACF0E94AD2AE5CF0E94C0
:101700003629CCCF0E944229C9CFCF92DF92EF92E7
:10171000FF926C01EE24FF2420E0C114D104E10407
:10172000F10419F0C701B60120E1C72ED82EE92E29
:10173000FF24C114D104E104F10419F0285FC701AA
:10174000B6016B017C0154E0F694E794D794C794FA
:101750005A95D1F7C114D104E104F10419F02C5FBA
:10176000C701B6016B017C0142E0F694E794D7947F
:10177000C7944A95D1F7C114D104E104F10419F0DA
:101780002E5FC701B6019695879577956795672B6C
:10179000682B692B09F02F5F822FFF90EF90DF906D
:1017A000CF900895829590E09C01220F331F220F65
:1017B000331F2C7C95958795959587958373282B5A
:1017C00030E0C901880F991F8A7A359527952575CC
:1017D000822B0895CF93DF93D92F0E94D20BC82F6D
:1017E0008D2F0E94D20B9C2FDF91CF9108950895E9
:1017F0000C94F70B81E008950C94FA0BCF93C82F4B
:101800000E94F80B8C2FCF910C94FC0B90E080E0A1
:1018100008950895972F70E02FE0929F600D711D3D
:101820001124FB019BE4899FE00DF11D1124EE0FB3
:10183000FF1FE751FF4F859194910895FC01EE0F32
:10184000FF1FE85CFD4F859194910895CF93DF933E
:101850000E940A0C0E943B0DEC01811520E59207C5
:1018600008F042C0811530E4930708F0BDC0883EFF
:10187000910528F5803E910508F09DC0883A9105B4
:1018800088F4853A910508F08FC08130910509F4FC
:1018900092C0009709F48FC0049708F08CC0D0E084
:1018A000C0E089C08F3B910508F489C0805C910934
:1018B000C03CD105A0F30E941E0CEC017CC0811538
:1018C000904250F4C11581E0D80708F074C0CD3EB5
:1018D000D10528F3D0656FC0C11590E3D90708F092
:1018E00079C0CE019F70E7CF811525E5920758F5A5
:1018F000811534E5930708F0A6C0811542E59407E9
:1019000050F4C11581E5D80708F471C0DC2FCC274D
:10191000C16FD06A50C0982F969596959E012370FE
:101920003327C115D34508F07FC0C1E0D0E002C025
:10193000CC0FDD1F2A95E2F720E2929FC00111240F
:10194000C82BD92B6FC0C11589E5D807A8F4C115DC
:1019500098E5D90708F07CC0C11526E5D20708F044
:101960009ECF8C2F0E94D20DC82FD0E0DC2FCC2729
:10197000CC27DF71D0621FC0C1153AE5D30708F448
:101980006CC0CE0190568115904208F088CF8D2F03
:101990008F710E94D20D90E0982F882788279F7121
:1019A0009C012C2BE901E6CFC55AD0E0C65BDE4F87
:1019B000C881D0E0D064CE01DF91CF910895C85A9C
:1019C000D0E0CC0FDD1FC45EDE4F0990D881C02D62
:1019D000D464F1CFCE019927D3FF03C0EC01D86CBA
:1019E000EACFEC01D06CE7CFDF70D06AE4CFCE0154
:1019F000E4E096958795EA95E1F783702C2F26957C
:101A00002695237090E2299F90011124382B8C2F6A
:101A10008370C1E0D0E002C0CC0FDD1F8A95E2F7F1
:101A2000C22BD32BDC68C7CFC1E0D0E002C0CC0F03
:101A3000DD1F2A95E2F730E2939FC0011124C82BE5
:101A4000D92BDA68B8CFD82FCC27C46FD06AB3CFE0
:101A5000DC2FCC27C06FD06AAECF8C2F8F700E9446
:101A6000D20D34E0D695C7953A95E1F7CF709C2F0B
:101A7000EC01D069A0CF82389105B1F1B0F4813387
:101A8000910509F475C048F48932910509F469C0DB
:101A90008A32910509F473C008958533910509F4DC
:101AA00059C08933910501F10895833E9105A9F14B
:101AB00038F4803E9105F9F0823E910549F1089590
:101AC000863E9105A9F1873E9105C9F1843E9105B5
:101AD00019F52091B90221FF1FC08091B80284FD41
:101AE00014C087EE90E008952091B8022370A1F011
:101AF00080EE90E008952091B80220FD47C030911B
:101B0000B90230FF09C024FF44C090E080E004C067
:101B10002091B80222FDF7CF08952091B80222FD4E
:101B20003BC03091B90230FDE3CF24FFF5CFEDCFBC
:101B30002091B80223FFF0CF24FDE7CFD2CF209130
:101B4000B80223FD2CC03091B90231FFEECF84EEF4
:101B500090E008952091B80225FFDECF89E290E061
:101B600008952091B80225FFD7CF85E390E008952E
:101B70002091B80226FFD0CF8AE290E0089520910C
:101B8000B80226FFC9CF81E390E0089589E390E091
:101B9000089583EE90E0089582EE90E0089586EE39
:101BA00090E008959091B80292FF06C0282F287106
:101BB0002830F9F4877F846093FF06C0282F2871AE
:101BC0002831F1F4877E84612091B90220FF06C09C
:101BD000382F38713830D9F4877F816021FF06C0F3
:101BE000282F28712831D1F4877E816194FD877E6A
:101BF0000895282F24712430F9F68B7F8860DCCF7C
:101C0000282F2471243101F78B7E8861DDCF382F96
:101C10003171313019F78E7F8860E0CF282F217124
:101C2000213121F78E7E8861E1CF0C94022A0E9437
:101C3000170F2FEF86E791E0215080409040E1F7A9
:101C400000C000000E94170F80E00E945A0E80FF23
:101C500004C00E94150E0C94D52B08950C94170EF9
:101C60000E94082A811102C00E94AD2A0E94132AF4
:101C70008093A9020E941B2A9093B9028093B80214
:101C80000E942E0E0E94172A682F70E090E080E0DC
:101C90000E942A2760919402709195028091960289
:101CA000909197020C94642708950C94540E089513
:101CB0000C94570EE82FF0E0EE0FFF1FEC53FD4F92
:101CC000808191810895CF92DF92EF92FF920F93DE
:101CD0001F93CF93DF9388E492E00E94CA0984ECBB
:101CE000E82E82E0F82ED0E0C0E093E4C92E92E026
:101CF000D92E0AE312E0DF93CF93DF92CF920E94B6
:101D0000630A80E492E00E94CA09F70181919191EF
:101D10007F010E94EA0B9F938F931F930F930E9462
:101D2000630A88E392E00E94CA0921968DB79EB7A4
:101D300008960FB6F8949EBF0FBE8DBFC530D10573
:101D4000D1F6DF91CF911F910F91FF90EF90DF902F
:101D5000CF90089580EA8A95F1F7089500C008951C
:101D60000C94AA0EF894E82FE295EF70F0E031A100
:101D7000282F2F7081E090E001C0880F2A95EAF7A4
:101D8000982F9095932391A392A1892B82A3789465
:101D900008950F931F93CF93DF9380EF0E94B20EAD
:101DA00081EF0E94B20E84EF0E94B20E85EF0E9476
:101DB000B20E86EF0E94B20ECDE4D1E00CE511E048
:101DC00089910E94B20E0C171D07D1F71092BB0229
:101DD0001092BA021092C5021092C4021092BD0273
:101DE0001092BC021092C7021092C6021092BF025B
:101DF0001092BE021092C9021092C8021092C10243
:101E00001092C0021092CB021092CA021092C3022A
:101E10001092C2021092CD021092CC0285E00E9474
:101E2000970FDF91CF911F910F910C94080BAF92F8
:101E3000BF92DF92EF92FF920F931F93CF93DF93A6
:101E4000CCE5D1E00AEB12E0D12CEE24E394F12CA6
:101E50008991F894E82FE295EF70F0E021A18F705E
:101E6000A70102C0440F551F8A95E2F7CA01922FBD
:101E7000982B91A392A18095892382A378940E94A4
:101E8000AE0EEDE4F1E030E020E0B12CA12C419168
:101E9000A42FA295AF70B0E090968C9190E04F7017
:101EA00002C0959587954A95E2F780FD3BC0C70132
:101EB000022E02C0880F991F0A94E2F7A82AB92AB5
:101EC0002F5F3F4F2F30310511F7FE013197808191
:101ED0000E94B20E0E94B00EF80180819181A81676
:101EE000B90619F1B182A08281E0D82A0E5F1F4F96
:101EF000F1E0C136DF0709F0ABCF2D2D45E064ECF2
:101F000072E08AEB92E00E94980F0E940C0B8D2DDC
:101F1000DF91CF911F910F91FF90EF90DF90BF90D5
:101F2000AF90089590E080E0C9CF80E0DECF0895C3
:101F3000FF920F931F93CF93DF93F82E092F162F45
:101F4000D72FC42F222349F081E08093C8010E943B
:101F50008A2B9093C7018093C6018091C801882382
:101F6000A1F08091C6019091C7010E94A22B069713
:101F700060F0EF2DF02FA12FBD2F90E080E0D0E09A
:101F80008C179D0744F01092C801DF91CF911F91EB
:101F90000F91FF900895219131912D933D930196DA
:101FA000EFCF8FE594E00E94CA091F9281E08F93E2
:101FB0001F9285E08F9381E194E09F938F930E941D
:101FC000630A0F900F900F900F900F900F9008954D
:101FD000833009F445C028F4813061F0823049F142
:101FE0000895853009F46AC008F451C0863009F4B8
:101FF0007CC0089580910701482F460F5527551F33
:102000004F3F510594F4680F6093070180910701D9
:102010001F928F938AE493E09F938F930E94630AA9
:102020000F900F900F900F9008958FEF80930701FE
:10203000EDCF80910601482F460F5527551F4F3F82
:10204000510554F4680F60930601809106011F92B8
:102050008F9388E393E0E0CF8FEF80930601F5CF75
:1020600080910501482F460F5527551F4F3F5105B9
:1020700054F4680F60930501809105011F928F93BE
:1020800085E293E0C9CF8FEF80930501F5CF809172
:102090000401482F460F5527551F4F3F510554F453
:1020A000680F60930401809104011F928F9380E177
:1020B00093E0B2CF8FEF80930401F5CF80910101BF
:1020C000482F460F5527551F4F3F510554F4680FB1
:1020D00060930101809101011F928F9387EF92E03D
:1020E0009BCF8FEF80930101F5CF80910001482FA6
:1020F000460F5527551F4F3F510554F4680F609305
:102100000001809100011F928F938CED92E084CFAB
:102110008FEF80930001F5CF8330C9F128F481302F
:1021200061F0823019F10895853009F452C008F445
:102130003FC0863009F45EC008958091070168179A
:1021400090F4861B80930701809107011F928F9363
:102150008DEC92E09F938F930E94630A0F900F90F3
:102160000F900F90089510920701EECF8091060115
:10217000681750F4861B80930601809106011F9218
:102180008F938BEB92E0E6CF10920601F6CF809111
:102190000501681750F4861B8093050180910501A5
:1021A0001F928F9388EA92E0D5CF10920501F6CF67
:1021B00080910401681750F4861B8093040180917C
:1021C00004011F928F9383E992E0C4CF109204011F
:1021D000F6CF80910101681750F4861B80930101AE
:1021E000809101011F928F938AE792E0B3CF109202
:1021F0000101F6CF80910001681750F4861B80938F
:102200000001809100011F928F938FE592E0A2CF91
:1022100010920001F6CFCF93C82F1F928F9384E6C0
:1022200095E09F938F930E94630A61E070E080E0E5
:1022300090E004C0660F771F881F991FCA95D2F7D8
:102240000E942A270F900F900F900F90CF910C941F
:102250009223CF93DF938B3109F4FAC108F09CC12C
:102260008B3009F4B8C108F06AC1863009F4C6C1E0
:1022700048F4853009F49EC186EC99E00E94CA09B1
:1022800080E0CCC1873009F4CCC18830A9F785E65D
:102290009AE00E94CA0986EB99E00E94CA090E944E
:1022A000172A1F928F9383EB99E09F938F930E943D
:1022B000630A81EB99E00E94CA090E94132AC82F81
:1022C0008EE999E00E94CA091F92CF9389E999E0AB
:1022D0009F938F930E94630A87E999E00E94CA093D
:1022E0008DE899E00E94CA098C2F81701F928F930C
:1022F0008AE899E09F938F930E94630A88E899E0A7
:102300000E94CA098EE799E00E94CA09C1FB88278A
:1023100080F91F928F938BE799E09F938F930E9490
:10232000630A89E799E00E94CA098DE699E00E9454
:10233000CA09C2FB882780F91F928F938AE699E029
:102340009F938F930E94630A88E699E00E94CA09CE
:102350008FE599E00E94CA09C3FBCC27C0F91F9200
:10236000CF938CE599E09F938F930E94630A8AE54F
:1023700099E00E94CA090E941B2AEC0186E499E0B8
:102380000E94CA09DF93CF9381E499E09F938F93D2
:102390000E94630A8FE399E00E94CA0986E299E0ED
:1023A0000E94CA098C2F81701F928F9383E299E05B
:1023B0009F938F930E94630A8DB79EB780960FB646
:1023C000F8949EBF0FBE8DBF81E299E00E94CA09BA
:1023D0008AE099E00E94CA09C1FB882780F91F9210
:1023E0008F9387E099E09F938F930E94630A85E023
:1023F00099E00E94CA0983EF98E00E94CA098D2FD4
:1024000081701F928F9380EF98E09F938F930E942B
:10241000630A8EEE98E00E94CA098CED98E00E9453
:10242000CA09D695D1701F92DF9389ED98E09F93EA
:102430008F930E94630A87ED98E00E94CA0985EC99
:1024400098E00E94CA09C2FB882780F91F928F93E7
:1024500082EC98E09F938F930E94630A80EC98E04F
:102460000E94CA098EEA98E00E94CA09C3FB882725
:1024700080F91F928F938BEA98E09F938F930E942D
:10248000630A89EA98E00E94CA098FE998E00E94ED
:10249000CA09C4FB882780F91F928F938CE998E0C2
:1024A0009F938F930E94630A8AE998E00E94CA0969
:1024B00088E898E00E94CA09C5FB882780F91F9226
:1024C0008F9385E898E09F938F930E94630A83E837
:1024D00098E00E94CA0987E698E00E94CA09C6FBF4
:1024E000882780F91F928F9384E698E09F938F93BB
:1024F0000E94630A8DB79EB780960FB6F8949EBF70
:102500000FBE8DBF82E698E00E94CA098AE598E076
:102510000E94CA09C7FBCC27C0F91F92CF9387E559
:1025200098E09F938F930E94630A85E598E00E944C
:10253000CA090F900F900F900F9081E06FC080310B
:1025400009F49EC080F48E3009F096CE9091A902D5
:10255000892F8B7F92FF84608093A90282FF8DC0B8
:1025600081EF99E081C0863109F49AC0893109F080
:1025700083CE8CE796E00E94CA098AE496E00E9426
:10258000CA0983E396E00E94CA098DEF95E00E9494
:10259000CA0982ED95E021C08A3249F190F4873270
:1025A00011F128F48E3108F467CE8D511DC08932A7
:1025B00009F062CE84E39AE00E94CA090E940F0BE0
:1025C000BCCF833468F48A3308F0A1C0853359F056
:1025D000883309F051CE82EB96E00E94CA09ADCF54
:1025E000833409F049CE80E00E940B11A6CF84E528
:1025F0009AE00E94CA090E94AD2A9FCF8091A90249
:10260000807F8093A9028BE896E00E94CA0980E54A
:102610009AE00E94CA0981E08093CA01DF91CF91BC
:1026200008959091A902892F8E7F90FF81608093F9
:10263000A90280FF03C088E29AE0CFCF8BE19AE045
:102640000E94CA098091A902817F8093A90275CF57
:102650009091A902892F8D7F91FF82608093A902BA
:1026600081FF08C08EE09AE00E94CA098091A90209
:102670008160EBCF80E09AE0B0CF81EE99E0ADCF02
:102680009091A902892F877F93FF88608093A90288
:1026900083FF03C085ED99E0E7CF88EC99E09DCFFB
:1026A00084EC95E00E94CA090E94641E1F928F93D9
:1026B0008AEA95E09F938F930E94630A80911B01A1
:1026C0001F928F9383E995E09F938F930E94630AF3
:1026D0008091B7021F928F9380E895E09F938F932C
:1026E0000E94630A0E94962B9F938F937F936F9310
:1026F00089E695E09F938F930E94630A8DB79EB7FA
:1027000042960FB6F8949EBF0FBE8DBF16CF895369
:102710006BCF80E008950C9489138E518A3030F489
:10272000E82FF0E0EF59FE4F8081089580E0089592
:10273000CF93C82F8091CA018130C1F0882339F02E
:10274000823009F447C01092CA0180E00DC00E9497
:1027500045298232D1F78C2F0E94891381111BC029
:102760008C2F0E9429118170CF9108950E944529D4
:10277000823289F38C2F0E948B1381111BC0C431CC
:10278000D9F060F4CB3071F0C031D1F08AE595E03A
:102790000E94CA0913C081E090E0E5CFC93261F020
:1027A000C833A1F78BE896E00E94CA0980E695E05D
:1027B0000E94CA0981E0D7CF1092CA0180E0D3CF2E
:1027C0000E94D10F8CE595E00E94CA0982E08093B7
:1027D000CA01F0CFC432C8F4CE3108F0BEC0CB304D
:1027E000E1F040F4C73009F4CCC08EEF93E00E94D2
:1027F000CA0926C0C331C1F1C431B9F78091C901FA
:10280000882351F11092C9010AC0CB3409F4B7C032
:10281000C8F4C93299F3C83341F70E94D10F8091AF
:10282000C901882309F4C4C01F928F9388EF93E0F5
:102830009F938F930E94630A0F900F900F900F90B9
:1028400081E092CFC13509F494C0C23509F48BC040
:10285000CE3459F66AE08EC08DE094E00E94CA0939
:1028600081E08093CA0180CF87EE93E00E94CA097D
:1028700085ED93E00E94CA09809107011F928F9312
:1028800082ED93E09F938F930E94630A80ED93E023
:102890000E94CA098EEB93E00E94CA09809106014A
:1028A0001F928F938BEB93E09F938F930E94630A09
:1028B00089EB93E00E94CA098AEA93E00E94CA0960
:1028C000809105011F928F9387EA93E09F938F93E6
:1028D0000E94630A85EA93E00E94CA0984E993E0B2
:1028E0000E94CA09809104011F928F9381E993E0AD
:1028F0009F938F930E94630A8FE893E00E94CA0916
:102900008AE793E00E94CA09809101011F928F9388
:1029100087E793E09F938F930E94630A85E793E094
:102920000E94CA098EE593E00E94CA0980910001C5
:102930001F928F938BE593E09F938F930E94630A7E
:1029400089E593E00E94CA098DB79EB748960FB6F5
:10295000F8949EBF0FBE8DBF62CF8C2F0E948D1347
:102960008093C9015CCF61E08091C9010E94E80FAA
:1029700056CF61E08091C9010E948C1050CF6AE06F
:10298000F3CF8EE18093070182E3809306018AE012
:102990008093050184E18093040188E08093010124
:1029A00088E28093000180E094E00E94CA0937CF5A
:1029B00085EF93E01CCF8091D10180FF12C0609120
:1029C000050185E0689FB00111247595679575959F
:1029D000679560387105A8F561157105A1F1862F1D
:1029E000089581FF09C06091050185E0689FB001ED
:1029F000112475956795EDCF6091050182FD0AC0A0
:102A00008091D0018823D1F090910401609105015B
:102A1000891728F085E0689FB0011124DACF869FDE
:102A2000B001112485E0869F9001879F300D11240D
:102A3000692F70E0C9010E948833CBCF65E070E058
:102A4000CECF8FE7089581E008958091D10180FF76
:102A50000CC06091010170E075956795759567955B
:102A60006115710549F1862F089581FF06C06091B7
:102A7000010170E075956795F3CF6091010182FDCA
:102A80000BC09091CF019923A1F06091000180913A
:102A90000101961738F0682F70E06038710500F377
:102AA0008FE70895899FC001112470E00E94883348
:102AB000F4CF61E070E0D7CF81E008958D3E31F42E
:102AC0000E94DB1481958093D50108958E3E19F400
:102AD0000E94DB14F8CF8F3E31F40E94DB14819505
:102AE0008093D4010895803F19F40E94DB14F8CF3D
:102AF000893F29F40E9425158093D60108958A3FC5
:102B000021F40E9425158195F7CF8B3F31F40E9467
:102B1000251581958093D70108958C3F19F40E9463
:102B20002515F8CF9FE0980F983070F4815F990BCE
:102B300021E030E001C0220F8A95EAF78091D301AD
:102B4000822B8093D30108958D3F31F48091D10180
:102B500081608093D10108958E3F21F48091D1014D
:102B60008260F7CF8F3FB9F78091D1018460F1CFB8
:102B70004091D4018D3E59F48091D50187FF0DC05D
:102B80001092D50141110BC01092D00108C08E3EA9
:102B900081F48091D50118169CF3442381F0809133
:102BA000D6019091D701892B09F05AC01092CF011C
:102BB00008958F3E49F447FFF0CF1092D4018091E1
:102BC000D5018111ECCFE0CF803F19F41416ACF39E
:102BD000E4CF9091D601893F29F41916F4F61092AA
:102BE000D601DBCF8A3F19F497FFD7CFF8CF90916A
:102BF000D7018B3F29F497FFD0CF1092D701CDCFCB
:102C00008C3F19F41916CCF3C8CF9FE0980F983079
:102C100090F4815F990B21E030E0B90102C0660FAA
:102C2000771F8A95E2F7CB0180959091D301892394
:102C30008093D301B2CF8D3F31F48091D1018E7F4B
:102C40008093D101AACF8E3F21F48091D1018D7F55
:102C5000F7CF8F3F09F0A1CF8091D1018B7FF0CFCB
:102C600008958091A90283FF7EC087E99AE00E94BF
:102C7000CA098091D3011F928F9382E99AE09F93B2
:102C80008F930E94630A80E99AE00E94CA098091AA
:102C9000D401282F082E000C330B3F938F938DE81F
:102CA0009AE09F938F930E94630A8BE89AE00E94B8
:102CB000CA098091D501282F082E000C330B3F93B1
:102CC0008F9388E89AE09F938F930E94630A86E827
:102CD0009AE00E94CA098091D601282F082E000C84
:102CE000330B3F938F9383E89AE09F938F930E94D7
:102CF000630A81E89AE00E94CA098091D701282FCF
:102D0000082E000C330B3F938F938EE79AE09F932E
:102D10008F930E94630A8BE79AE00E94CA09809110
:102D2000D0011F928F9388E79AE09F938F930E9420
:102D3000630A86E79AE00E94CA098091D1011F9236
:102D40008F9383E79AE09F938F930E94630A80E7B3
:102D50009AE00E94CA098DB79EB74C960FB6F894B8
:102D60009EBF0FBE8DBF0E948A2B9C019091D40103
:102D70008091D501982B21F03093CE012093CD0185
:102D80009091D6018091D701982B21F03093CC01FE
:102D90002093CB0182ED91E00C94C91EEF92FF923B
:102DA0000F931F93CF93DF9300D000D000D0CDB707
:102DB000DEB786E0E2EDF1E0DE01119601900D92C2
:102DC0008A95E1F7E090D401F090D5010091D60109
:102DD0001091D7011092D4011092D5011092D60112
:102DE0001092D7018E2D8F2991F08091CD01909175
:102DF000CE010E94A22BAC019091D001992309F43D
:102E00003FC0809106018417150608F447C0802F43
:102E1000812B91F08091CB019091CC010E94A22B4B
:102E2000AC019091CF01992309F477C08091020100
:102E30008417150608F47FC08091D4019091D501C4
:102E4000892B9091D601892B9091D701892B11F074
:102E50000E94311686E0FE013196A2EDB1E00190AC
:102E60000D928A95E1F726960FB6F894DEBF0FBE55
:102E7000CDBFDF91CF911F910F91FF90EF900895FB
:102E8000209107018AE0289F90011124241735071B
:102E900008F0BDCF9F5F9093D00102C09F3FD1F754
:102EA000EE2059F00E94DB149FEF1E140CF491E009
:102EB000899F802D11248093D401FF2059F00E9416
:102EC000DB149FEF1F140CF491E0899F802D1124D7
:102ED0008093D5013091D401332309F498CF209108
:102EE000D501222309F493CF45EB3403C00111240B
:102EF000992359F09093D40145EB240390011124B8
:102F0000332339F03093D50182CF81E08093D4010F
:102F1000F3CF81E08093D5017ACF209103018AE03D
:102F2000289F900111242417350708F085CF9F5F53
:102F30009093CF0102C09F3FD1F7002359F00E9428
:102F400025159FEF10160CF491E0899F802D112418
:102F50008093D601112359F00E9425159FEF111679
:102F60000CF491E0899F802D11248093D70130913A
:102F7000D601332309F460CF2091D701222309F42D
:102F80005BCF45EB3403C0011124992359F0909392
:102F9000D60145EB240390011124332339F03093FB
:102FA000D7014ACF81E08093D601F3CF81E08093AF
:102FB000D70142CF86E0E2EDF1E0DF011D928A9574
:102FC000E9F71092D0011092CF011092D10108952B
:102FD0000C946C0A3E98469A3F98479A86B186FBB5
:102FE000882780F926B130E0220F232F221F330BD0
:102FF00090E0232B09F092E0892B8093DA01089569
:10300000E091DA01EE0FEE0FE093DA0186B186FB74
:10301000222720F986B190E0880F892F881F990B0D
:10302000009711F082E090E0822BE82BE093DA0128
:10303000EF70F0E0E559FE4F80819091D901890F42
:103040008093D90120E0843054F08091D8018F5FC3
:103050008093D80160E080E00E94E81721E0809131
:10306000D9018D3F54F48091D80181508093D801CB
:1030700061E080E00E94E81721E08091D901082EEC
:10308000000C990B64E070E00E9488338093D901B2
:10309000822F0895CF92DF92EF92FF920F931F93AA
:1030A000CF93DF936C017B0164E670E088E70E94B8
:1030B0007C1DEC0197FD12C010E000E0F601E00F6E
:1030C000F11F849164E670E00E94D81DEC01892B09
:1030D00029F40F5F1F4F0E151F0581F70E945B1E1D
:1030E000CE01DF91CF911F910F91FF90EF90DF9074
:1030F000CF9008950895EEECF2E080E092E0DF01D9
:103100009C011D9221503040E1F7F093D304E093ED
:10311000D2048FEF9FEF90930702809306020895E9
:103120000E947A188093020280FD13C080E8809389
:1031300001020E94761D6DE070E082EC9BE00E942F
:103140004A18892B41F086EA9BE00E94CA0980E078
:10315000089580E2ECCF8091020263E070E081FD8F
:1031600009C083EA9BE00E944A18892B61F08DE731
:103170009BE0EBCF8AE79BE00E944A18892B19F06D
:1031800082E69BE0E2CF6DE070E085E59BE00E9487
:103190004A18892B19F08EE39BE0D7CF0E94962B1B
:1031A000605A75418F4F9F4F6093CE047093CF0448
:1031B0008093D0049093D1040E947B1881E0809387
:1031C00005028093040210920302089520910102E7
:1031D00036E0839FC0011124629F800D911D112450
:1031E000811522E0920714F090E080E082539D4F19
:1031F0009093D3048093D20408952091D204309107
:10320000D304285C324040910102642F70E0C90170
:103210000E947433481B463010F4240F311D2115D1
:1032200082E0380710F030E020E022533D4F309329
:10323000D3042093D20408951F93CF93DF93162FC6
:103240008A3031F481E0DF91CF911F910C9496196F
:103250008D3011F480E0F7CFC091D204D091D30427
:1032600096E0FE01ABEDB1E001900D929A95E1F789
:10327000803EC8F086E0FE0111928A95E9F71111AF
:103280001EC0C091D204D091D30446E050E0BE01EC
:103290008BED91E00E94AB33892BF9F4DF91CF9154
:1032A0001F910C94FD18F6E08F9FB001112461531B
:1032B000744F46E050E0CE010E94A233E0CFE0918F
:1032C000D204F091D3049F012A5F3F4F2E173F078E
:1032D000C1F2808180958193F9CFCE5CD240CE013E
:1032E00025E0969587952A95E1F721E030E0A90140
:1032F00002C0440F551F8A95E2F7CA0140910602A9
:1033000050910702842B952B259645E0D695C795BD
:103310004A95E1F702C0220F331FCA95E2F7822BCC
:10332000932B9093070280930602B8CFCF93382F48
:10333000E091D204F091D304EE5CF24020910102BE
:10334000622F70E0CF010E947433281B822F332339
:1033500069F066E00E946833C82FC15010F4CF9125
:10336000089560E080E20E941C19F7CF9F01280FAA
:10337000311D2115324018F080E0F0E0E0E08E0FC2
:103380009F2F911D82539D4F9093D3048093D2041D
:10339000E6CF1F93CF93DF93EC01162FFE018491AC
:1033A000811104C0DF91CF911F910895612F0E9478
:1033B0001C192196F3CF0E94C91981E00C9496192B
:1033C00080910502811103C08091040208950E943A
:1033D000962B605A75418F4F9F4F6093CE04709328
:1033E000CF048093D0049093D10480910402811182
:1033F000EBCF62E070E085EE9AE00E944A18892BDC
:1034000029F081ED9AE00E94CA09DECF81E0809325
:103410000402DACF2F923F925F926F927F928F9247
:103420009F92AF92BF92CF92DF92EF92FF920F9353
:103430001F93CF93DF9380910502882369F0209139
:103440000602309107022115310531F08091030207
:1034500061E070E0882399F0DF91CF911F910F9187
:10346000FF90EF90DF90CF90BF90AF909F908F90A4
:103470007F906F905F903F902F9008958F5F082FFF
:1034800010E01B01082E02C0220C331C0A94E2F744
:10349000A90142215321452B89F39091020290FD0D
:1034A00031C08295880F807680930A019801369505
:1034B00027953695279520930D01815E80930B010A
:1034C00010920E0124E630E047E050E068E071E041
:1034D00088E70E94071E892B19F18BE19BE0DF91A1
:1034E000CF911F910F91FF90EF90DF90CF90BF9001
:1034F000AF909F908F907F906F905F903F902F90B4
:103500000C94CA09880F880F880F80930A011092C3
:103510000D01895F80930B0183E080930E01D2CF70
:10352000A80125E0440F551F2A95E1F7809102027A
:1035300080FD10C042535D4F04E610E020E230E011
:1035400060E488E70E942E1E892B09F469C082E09E
:103550009BE0C5CFE1EEF1E080E2DF011D928A95AC
:10356000E9F7AFE7B1E00BE711E083E8C82E81E0AF
:10357000D82E97E0592E772473948D91E8012991E4
:103580008E01240F352F311D22533D4FE82FF0E0DF
:10359000EF51FE4F90E080E0652C681A872C082ED2
:1035A00001C0880C0A94EAF77901A12CE701B990CF
:1035B0007E01B820662D6A196770962E062E000CC3
:1035C000770BDB2D01C0DD0F9A94EAF771956195B9
:1035D00071096770772701C0B6946A95EAF7BD2A2A
:1035E0006081962E9B289082A39468E0A612DECF7D
:1035F000019631968830910579F6CA16DB0609F0F6
:10360000BCCF04E610E020E230E041EE51E060E49F
:1036100088E70E942E1E892B19F087EE9AE05FCF73
:103620000E94E019E101C095D09580910602909129
:103630000702C823D923D0930702C09306020CCFF8
:103640008091040290910502911103C091E08927B5
:103650000895882389F062E070E08FEC9AE00E9480
:103660004A18892B39F08AEB9AE00E94CA098091A6
:10367000040208951092040280910402E7CF0F9390
:103680001F9380910502882319F160E080E00E9479
:10369000E6180E94760A0E940A1A80910402882382
:1036A000B9F00E94962B0091CE041091CF04209186
:1036B000D0043091D104601B710B820B930B6F3FD0
:1036C0007F4F8F4F9F4720F41F910F910C94201B29
:1036D0001F910F9108950F931F93CF93DF93C42FE2
:1036E000D22FFC0182818823C9F040930A020E94F4
:1036F0008A2B909309028093080280E28C0F883015
:1037000008F050C0C77081E001C0880FCA95EAF781
:10371000DF91CF911F910F910C94192110910A0202
:10372000141335C080910802909109020E94A22BC7
:10373000883C910560F5C0E2CD0F1D17B9F080E21D
:10374000810F883040F4177081E001C0880F1A950E
:10375000EAF70E942021C83048F481E09D2F97703D
:1037600001C0880F9A95EAF70E941921802F0E94C4
:103770001121C830B8F4D77081E001C0880FDA9504
:10378000EAF7DF91CF911F910F910C94202180E2F5
:103790008C0F883038F4C77081E001C0880FCA955B
:1037A000EAF7EFCFDF91CF911F910F9108950F931B
:1037B0009C01CB01243F4CE5340759F1A8F4293D85
:1037C000FCE53F0701F12A3D4CE53407D1F1283DE6
:1037D0003C4591F406E221EE41EE68ED7CE50E9465
:1037E0006B1B80E00F910895263FFCE53F07E9F051
:1037F000B0F0273F3C45F9F0FC018281882339F184
:1038000010920A02EFCF07E225EE45EE69ED7CE566
:10381000E6CF06E221EE40EE64EF7CE5E0CF07E282
:1038200025EE44EE65EF7CE5DACF06E221EE42EECE
:1038300066EF7CE5D4CF07E225EE46EE67EF7CE548
:10384000CECF08E221E045EE6AED7CE5C8CF81E00D
:10385000C9CFCF93DF93EC01FB018281882309F468
:1038600019C1C230FCE5DF07C0F1C6319CE5D907BC
:1038700030F09E012B5F3C452930310570F50E94E8
:103880001B2A9093B9028093B802C031ECE5DE07A1
:1038900009F4CFC008F05BC0C8308CE5D80709F444
:1038A000B6C088F5C430ECE5DE0709F4A8C0C0F462
:1038B000C2308CE5D80709F49CC08091B8028260C0
:1038C000C330DC4509F498C08091B8029091B902E8
:1038D0000E94292A0E94922380E0DF91CF910895CF
:1038E0008091B8028061C630ECE5DE0709F484C03F
:1038F0008091B8028860C730DC4508F47DC08091B3
:10390000B802806279C0CC308CE5D80709F489C050
:1039100070F48091B8028C60CA30ECE5DE0709F4DF
:103920006BC008F478C08091B8028E7F65C0CE303D
:103930008CE5D80709F479C08091B8028B7FCF302D
:10394000DC4508F459C08091B8028F7E55C0CC3F49
:10395000ECE5DE0709F457C030F5C3318CE5D80734
:1039600009F46FC078F4C131ECE5DE0709F465C0F5
:10397000C231DC4509F0A8CF0E9492238091B802A1
:103980008F773AC0C5318CE5D80709F462C008F4D6
:1039900076C08091B9028160CB3FDC4509F094CFBD
:1039A0008093B90291CFC115FDE5DF0709F44DC041
:1039B00088F48091B9028D7FCE3F9CE5D90781F3D1
:1039C0008091B9028E7FCF3FDC4550F38091B902E0
:1039D0008360E6CFC230FDE5DF0709F459C008F483
:1039E00044C080E0C330DD4509F06ECF0E94AF2AAD
:1039F0006BCF8091B80281608093B80265CF8091CF
:103A0000B8028460F9CF8091B9028260C9CF8091F9
:103A1000B8028064F1CF0E9492238091B80280683E
:103A2000EBCF8091B8028D7FE7CF8091B802877F7E
:103A3000E3CF8091B8028F7DDFCF8091B8028F7B7A
:103A4000DBCF8091B802837FD7CF8091B9028C7F82
:103A5000A7CF8091B80282FB992790F921E09227A5
:103A600090FB82F990FB83F9C7CF8091B902982F20
:103A7000909591708E7F892B90FB81F991CF0E9458
:103A800092239091B802892F97FB87F98058B4CF81
:103A900081E0ACCF81E021CFCF93DF93EB01863182
:103AA0009C4511F50E9445299A81992399F08A7ABB
:103AB00091E009F490E090930B02811109C089E232
:103AC0000E94EC280E94952980E0DF91CF91089513
:103AD00085E3F6CF80910B02811104C089E20E9438
:103AE000F328F0CF85E3FBCF81E0EFCF1092B90050
:103AF0008CE08093B8000895EF92FF920F931F938C
:103B0000CF93DF93182FEB011092BC0084EA8093CF
:103B1000BC000E948A2B7C018091BC0087FF27C0DB
:103B20008091B900887F883029F08091B900887F22
:103B30008031D9F51093BB0084E88093BC000E94CB
:103B40008A2B8C018091BC0087FF24C02091B90092
:103B5000287F90E080E02831B1F081E090E02034CF
:103B600011F490E080E09195819591090CC0CF3FD0
:103B7000DC0791F20E948A2B8E199F098C179D07F2
:103B800058F28EEF9FEFDF91CF911F910F91FF9031
:103B9000EF900895CF3FDC07A9F20E948A2B801B8B
:103BA000910B8C179D0770F2ECCF8FEF9FEFEBCF4F
:103BB0000F931F93CF93DF93EB018093BB0084E8B7
:103BC0008093BC000E948A2B8C018091BC0087FFEF
:103BD00011C02091B900287F81E090E0283211F4D3
:103BE00090E080E0919581959109DF91CF911F91AF
:103BF0000F910895CF3FDC0741F30E948A2B801B71
:103C0000910B8C179D0708F38EEF9FEFEECFCF92AD
:103C1000DF92EF92FF920F931F93CF93DF936B018D
:103C20008A017901B9010E947C1DE6010C0D1D1D60
:103C3000C017D10761F424E92093BC00DF91CF9134
:103C40001F910F91FF90EF90DF90CF90089597FD17
:103C5000F2CFB70189910E94D81DEACFCF92DF92AF
:103C6000EF92FF920F931F93CF93DF93C62F6A01BA
:103C70007901B8010E947C1D97FD0CC0B8018C2F02
:103C80000E94D81DE601EC0CFD1CCE15DF0511F0DD
:103C900097FF0CC024E92093BC00DF91CF911F91C6
:103CA0000F91FF90EF90DF90CF900895B801899128
:103CB0000E94D81DEACF84E98093BC0008959093B8
:103CC0001102809310020895E0911002F091110208
:103CD000309721F00190F081E02D099480E0089563
:103CE000E0911002F0911102309711F480E00895F4
:103CF0000190F081E02D09950895EF92FF920F93C6
:103D00001F93CF93DF938C01E0911002F091110289
:103D10003097C1F10280F381E02D09958091A902CD
:103D200082FF30C080FF04C087E191E10E94CA0990
:103D3000D0E0C0E081E1E82E81E1F82E8091A90277
:103D400080FF0EC0F801EC0FFD1F80811F928F9342
:103D5000FF92EF920E94630A0F900F900F900F90C6
:103D60002196C830D10551F78091A90280FF0AC081
:103D70008FE091E1DF91CF911F910F91FF90EF9034
:103D80000C94CA09DF91CF911F910F91FF90EF9092
:103D90000895E0911002F0911102309739F022E07D
:103DA000DC012C930480F581E02D09940895209185
:103DB0000E0230910F022817390771F090930F020D
:103DC00080930E02E0911002F0911102309721F0E1
:103DD0000680F781E02D0994089520910C0230911E
:103DE0000D022817390771F090930D0280930C0291
:103DF000E0911002F0911102309721F00084F185DA
:103E0000E02D099408950E94962B609325027093EB
:103E100026028093270290932802609321027093D8
:103E20002202809323029093240208950E94962BED
:103E300060932502709326028093270290932802B4
:103E400060931D0270931E0280931F0290932002C4
:103E5000089585B7806885BF85B7806885BF089558
:103E6000089508950C94301F08950C94341F0E94F7
:103E7000291F86EB9DE20E94F92B0E94311F0C94B2
:103E8000321F81E008950C94411F089508950E9407
:103E9000451F0C94461F0E94812B0E94C90E80E092
:103EA0000E9490180E94EA170C94351FCF93C82FD8
:103EB0008091A90282FF1EC080FF1CC080E391E1B7
:103EC0000E94CA098091A90280FF14C01F92CF935B
:103ED0008BE291E19F938F930E94630A8091A902E4
:103EE0000F900F900F900F9080FF04C089E291E136
:103EF0000E94CA098C2FCF910C94FE0B7F928F9257
:103F00009F92AF92BF92CF92DF92EF92FF920F9368
:103F10001F93CF93DF93CDB7DEB72A970FB6F894F0
:103F2000DEBF0FBECDBF0E94170FA82E81110E94C9
:103F3000031F53E1852E52E0952E10E000E0702E15
:103F4000802F0E945A0E6C01F401E190F1904F0114
:103F5000E816F90609F46AC08091A90281FD0E9461
:103F6000630EC7018C259D25B12CEE24E394F12C22
:103F70009C012E213F21232B09F452C00E94431F94
:103F80008823A9F0BE827F82CE20DF2081E0CD2869
:103F900009F480E088870E948A2B8160782F9A87B5
:103FA00089874E815F8168858A850E944120000F44
:103FB000111FF801ED5EFD4F80819181E826F92601
:103FC000F182E0820E940018182F81110E94161FB2
:103FD0000E943F1BA11001C011110E94E0190E9414
:103FE000CE160E94641E909112028917B1F10E94B0
:103FF000641E809312022A960FB6F894DEBF0FBE9D
:10400000CDBFDF91CF911F910F91FF90EF90DF9087
:10401000CF90BF90AF909F908F907F900C94561F41
:10402000B394EE0CFF1CFFE0BF12A2CF0F5F1F4F37
:104030000530110509F083CF8FEF89838A831B82B6
:104040000E948A2B8160782F9D838C8349815A81BD
:104050006B818D810E944120B5CF2A960FB6F894CE
:10406000DEBF0FBECDBFDF91CF911F910F91FF90AB
:10407000EF90DF90CF90BF90AF909F908F907F9008
:104080000895DF92EF92FF920F931F93CF93DF93E8
:10409000CDB7DEB72B970FB6F894DEBF0FBECDBFFE
:1040A0007A878B87F42E052F162FE72ED82E6111D5
:1040B0000E9465291E821D827E2DEC82DD824F2D9D
:1040C000502F612F8D2D9E812B960FB6F894DEBF59
:1040D0000FBECDBFDF91CF911F910F91FF90EF9059
:1040E000DF900C940826FC01808191810C94BE28FD
:1040F000CF93C82F882309F44CC08CEF8C0F813AE2
:10410000C8F48C2F0E949813811143C06C2F8091AA
:104110000F01909110010E94C62A882329F08C2F4C
:104120000E94F3280E9495298C2F0E94EC28CF91A1
:104130000C94952980E28C0F883048F4C77081E098
:1041400001C0880FCA95EAF70E944829F0CFEBE535
:10415000EC0FE33040F4F0E0EF54FE4F808190E04C
:10416000CF910C94D71EE8E5EC0FE73150F4F0E066
:10417000EE0FFF1FED57FE4F80819181CF910C9480
:10418000ED1ECD3E30F08C2F0E945E15CF910C9429
:104190003116CF910895882361F19CEF980F913AE1
:1041A00020F40E94F3280C94952990E2980F9830FF
:1041B00050F4877091E001C0990F8A95EAF7892F32
:1041C0000E944E29F0CF9BE5980F933020F490E0A9
:1041D00080E00C94D71E98E5980F973120F490E07A
:1041E00080E00C94ED1E8D3E20F00E94B8150C94DA
:1041F000311608951F93CF93DF93182FEB010E9480
:104200007820209731F4812FDF91CF911F910C946A
:10421000CB208FE99FE00197F1F700C000002197C4
:10422000F0CF70E060E0893311F460E570E00C9449
:10423000FA20882321F00E9448290C94952908959A
:10424000882321F00E944E290C9495290895BF924D
:10425000CF92DF92EF92FF920F931F93CF93DF9352
:104260006C01D62FC72FFC011281058102950F70BA
:104270000E940A29E82E8823A1F0E12E112389F05B
:104280008C2F807F803429F080E28D0FE12C8830E4
:1042900040F082E00E94E6290E940A2991E0E82E7F
:1042A000E926BC2EB2949FE0B922EB2DF0E0E45059
:1042B000FC4C0C949C330C2F0F70C07F11F00295B6
:1042C000007F1123A9F0002359F080E28D0F883080
:1042D00010F0D11109C0802F0E9448290E94952911
:1042E0008D2F0E94782014C0802F0E945829F6CF6D
:1042F0008D2F0E94CB20002359F080E28D0F883053
:1043000010F0D1112CC0802F0E944E290E949529B7
:104310002B2D2850330B2430310520F40E94641ECD
:104320000E94FE0BEE2009F49EC10E94062980FD2A
:104330009AC1F60112820E9400290E948C27C601B0
:104340000E9454230E940029DF91CF911F910F9169
:10435000FF90EF90DF90CF90BF900C94AD27802F0F
:104360000E945E29D3CFFC2FFF70FF2EC07FC0328A
:1043700019F0F29480EFF822DD2369F0D13049F191
:10438000112391F1002351F1F601858180FFA8CF1F
:104390008F70858323C0112381F0011106C00E9414
:1043A00078298F290E941921B3CF0130C1F70E94CB
:1043B00078298F290E947E29ABCF011106C00E9467
:1043C0008B298F2D0E942021A3CF013009F4A0CF8B
:1043D000F6CF112329F0063008F09ACF8F2DE2CFC7
:1043E000053008F095CFEDCF002359F3D93349F4C8
:1043F000FFEF27EE33E0F15020403040E1F700C0FE
:1044000000008D2F0E94CB2083CF8C2F8695869520
:10441000837069F0813009F07BCF8D2F9C2F9370D2
:10442000111102C090E080E00E94ED1E71CF8D2F2F
:104430009C2F9370111102C090E080E00E94D71E63
:1044400067CF8D2F112329F00E945E150E9431162F
:104450005FCF0E94B815FACF8C2F837009F041C04E
:10446000111156CF4D2F429546954770440F440F7A
:104470000D2F0F7010E030E020E0042E04C0000F7C
:10448000111F221F331F0A94D2F760E070E0CB01A6
:10449000D4FF0FC06FE070E080E090E004C0660FD2
:1044A000771F881F991F4A95D2F760957095809560
:1044B0009095C695C695C370602B712B822B932B5C
:1044C000C23049F058F4C13019F00E943E2720CF85
:1044D0000E942C271DCF0E9450271ACF0E942A2706
:1044E00017CF8695112311F08C2F8170882309F442
:1044F0000FCF4D2F429546954770440F440F0D2F17
:104500000F7010E030E020E0042E04C0000F111FF7
:10451000221F331F0A94D2F760E070E0CB01D4FF72
:104520000FC06FE070E080E090E004C0660F771F7E
:10453000881F991F4A95D2F7609570958095909540
:10454000C695C695C370602B712B822B932BC230FE
:1045500049F058F4C13019F00E940328D9CE0E94C6
:10456000F127D6CE0E941528D3CE0E946627D0CE42
:10457000CF70112329F08C2F0E948C278D2F12CF02
:104580008D2F0E9420218C2F0E94AD27C1CED23FBB
:1045900089F160F4D03FC9F0D13F29F1112309F42A
:1045A00042C001119DCE8C2F8F7121C0D33F39F1B4
:1045B000D43FA1F7112369F1CF718C2F0E948C2772
:1045C00063E08C2F0E94CB29A3CE112341F005304C
:1045D00008F09ECE8C2F8F710E94D02799CE063086
:1045E00008F096CEF7CF8C2F8F71112369F20E94BD
:1045F0008C278ECE8C2F8F711123C9F3C5CF112339
:1046000029F08C2F8F710E94772782CE0E9472270B
:104610007FCE81E00E94E629023008F479CE82E064
:104620000E94E62975CE002359F0D93309F0E9CE6E
:104630008FEF97EEE3E081509040E040E1F7DFCE6E
:104640008C2F8F71A1CF4C2F4F706D2FC6010E9400
:10465000060C0E94A2265CCE4C2F4F706D2FC60117
:104660000E94090C55CEDF91CF911F910F91FF90C1
:10467000EF90DF90CF90BF9008950F931F93CF934B
:10468000DF93EC01688179818A810E94C8288C01BE
:104690000E9427280E942927B801CE01DF91CF91DF
:1046A0001F910F910C942721CF93DF93EC018B8105
:1046B0009C81892B29F08881998189238F3F59F426
:1046C000DF91CF910895CE010E943D23CE01DF916D
:1046D000CF910C94FD0ACE010E941E0B8111F3CFE5
:1046E0000E940A29882361F38A81882349F382E0A2
:1046F000DF91CF910C94E62990E080E00E94D71ED4
:1047000090E080E00E94ED1E0E9465290E947529BC
:104710000E9495290E94DA170C9431160E94FA28FB
:104720000C947C230E9455290C948E23E92FE2954A
:10473000EF70E250EE3070F4F0E0E45FFB4C0C946C
:104740009C33803F19F020F4883E20F481E00895E6
:10475000843FE1F380E00895883EC0F3813FD1F7C4
:10476000F5CF93FB882780F908950E94BE280C940A
:104770009623CF93DF9300D000D00F92CDB7DEB752
:104780000F900F900F900F900F90DF91CF910895A1
:10479000CF93DF9300D000D000D0CDB7DEB7269600
:1047A0000FB6F894DEBF0FBECDBFDF91CF91089555
:1047B0001F93CF93DF93C0912A0216E080912B02C2
:1047C0008C1304C0DF91CF911F910895D0E01C9FFE
:1047D000F0011D9FF00D1124E45DFD4F40815181DA
:1047E00062817381848195810E94C8232196C7705C
:1047F000E5CF40915C0250915D0260915E02709144
:104800005F0280916002909161020C94C8231F9313
:10481000CF93DF9380916102807FA9F480915E0243
:10482000882389F080912A02C0912B0260915C025A
:1048300070915D02A0915F02B0916002D62FD723E4
:1048400016E0C81304C0DF91CF911F91089590E046
:10485000109711F0DF3F19F401968770F2CF189F7F
:104860009001199F300D1124F901E45DFD4F418144
:104870004713F2CF40814613EFCF42814111ECCF75
:10488000438154814A1B5B0B483C510528F78091BA
:1048900061028F70806180936102F901EF5CFD4FCE
:1048A00080818F70806180838CE592E00E94542328
:1048B000DF91CF911F910C94D823AF92BF92CF92EA
:1048C000DF92EF92FF920F931F93CF93DF93CDB7B9
:1048D000DEB761970FB6F894DEBF0FBECDBF8C0177
:1048E00085E0F801DE011D9601900D928A95E1F7B1
:1048F000F80140815181E2808CE5C82E82E0D82EFB
:1049000060915F02709160026115710509F461C1E7
:1049100090915C0220915D02892F82238F3F09F4E0
:1049200058C1A380B480F0905E02F501E61BF70B3E
:10493000FF2009F4FCC080916102382F307FE83CF1
:10494000F10508F0B2C0311179C0FE2C251323C047
:10495000941321C0E1101FC08F70806180936102A9
:104960000E94F923C6010E94542380916102F8013C
:1049700085838F2D61960FB6F894DEBF0FBECDBF35
:10498000DF91CF911F910F91FF90EF90DF90CF902B
:10499000BF90AF900895AB2829F0842F85238F3FD7
:1049A00009F033C180E0F82FF170DF2E80FF3CC0AA
:1049B00080912A0220912B0236E0821315C04D8788
:1049C0005E878D859E850E94BE28292F22952F7097
:1049D0002230F0F0243018F59F70F1F0F801958145
:1049E000907FD1F4D12C1EC090E0389FF001399F08
:1049F000F00D1124E45DFD4F6181651306C06081F7
:104A0000641303C062816E110FC001968770D5CF09
:104A10009F7011F0882331F3805E883018F3C8014D
:104A20000E945423FD2CA5CFEE2009F4A2CF809143
:104A30006102816080936102F12C9BCF251306C037
:104A4000941304C0F801EE2009F48DC04D875E87F1
:104A50008D859E850E94B523882319F1EE2009F1EA
:104A600080916102803270F020915C0230915D0291
:104A700038872F831986BB86AA868C87CE01079636
:104A80000E94542386E0F801ACE5B2E001900D925B
:104A90008A95E1F70E9407240E94F923FF24F394EA
:104AA00068CFC8010E945423F9CF311113C07A2D69
:104AB000B98AA88A6E2D89890E94B9238CE592E073
:104AC0000E94542386E0F60111928A95E9F70E942C
:104AD000F923B2CF25130FC094130DC0E1100BC002
:104AE000F8018583C8010E94542386E0F6011192E3
:104AF0008A95E9F73ECF4D875E878D859E850E941A
:104B0000B523882371F2EE2061F280916102803238
:104B100008F4B8CF20915C0230915D023A8329837A
:104B20001B82BD82AC828E83CE010196A9CFE83C68
:104B3000F10508F041C0FE2CEE2009F4B2CF251398
:104B40002AC0941328C08091610280FD1BC0982F59
:104B5000907FC1F0F8018583903F31F0982F907FCE
:104B6000905F8F70892B8583C8010E94542386E053
:104B7000F801ACE5B2E001900D928A95E1F70E9450
:104B8000F923F7CE86E0F801ACE5B2E001900D9292
:104B90008A95E1F7EECE4D875E878D859E850E94D2
:104BA000B52381116FCF8091610281608093610292
:104BB000C8010E945423DDCE7A2DB98AA88A6E2DB1
:104BC00089890E94B92386E0F60111928A95E9F756
:104BD000D6CFEE2009F465CF4D875E878D859E8503
:104BE0000E94B523F82E882309F45BCF86E0F801F4
:104BF000ACE5B2E001900D928A95E1F78CE592E088
:104C00000E9473200E940724BACF81E08E25CBCE6C
:104C10001F93CF93DF93CDB7DEB72C970FB6F894E1
:104C2000DEBF0FBECDBF4F83588769877A878B87DA
:104C30009C87CE0107960E945D24882369F08A85AF
:104C40009B85892B39F04F815885842F85238F3F91
:104C500009F071C016E05FC086E0FE013796DE0104
:104C6000119601900D928A95E1F78A859B85892B93
:104C700089F38F81988589238F3F61F320912B02DF
:104C800030E0C90101968770992740912A024817A0
:104C9000190671F40E94922310922B0210922A029C
:104CA00086E0ECE5F2E0DF011D928A95E9F7D2CFCC
:104CB00096E0929FD001939FB00D1124A45DBD4F4B
:104CC000FE01319601900D929A95E1F780932B02A7
:104CD0000E94D823BFCF819FC0011124845D9D4FC6
:104CE0000E945D248823E9F0E0912A021E9FF001D2
:104CF0001124E45DFD4F4081518162817381848183
:104D000095810E94C82380912A0290E001968770C5
:104D1000992780932A0280912A0290912B0289136D
:104D2000DACF2C960FB6F894DEBF0FBECDBFDF9161
:104D3000CF911F91089569857A858B859C850E9406
:104D4000C82388CFEF92FF920F931F93CF93DF93E7
:104D50008C01892B81F0F12CEE24E394E80121965B
:104D6000F8018491843770F4843008F05FC081309A
:104D7000B1F08230A1F1DF91CF911F910F91FF909F
:104D8000EF900895853709F44CC008F43DC09CE7C6
:104D9000980F903780F78F770E94CB2049C00E5F25
:104DA0001F4FFE01849190E2980F983060F4877055
:104DB000FE2D01C0FF0F8A95EAF78F2F0E94682908
:104DC0000E94952902C00E9478208F2D815030F2D8
:104DD000EFE9FFE03197F1F700C00000F7CF0E5F79
:104DE0001F4FFE01849190E2980F983050F4877025
:104DF000FE2D01C0FF0F8A95EAF78F2F0E946E29C2
:104E0000DFCF0E94CB20E1CF0E5F1F4FFE01C49188
:104E1000C150D8F28FE99FE00197F1F700C0000080
:104E2000F7CF0E5F1F4FFE01F490CFCF0E94782086
:104E30008E01CBCF08950C941A270E941B276093F4
:104E400098027093990280939A0290939B020C941B
:104E50007C2308950C941D270F931F9300919802B3
:104E60001091990220919A0230919B02602B712B34
:104E7000822B932B1F910F910C941D270F931F933F
:104E8000009198021091990220919A0230919B0210
:104E900060237123822393231F910F910C941D276C
:104EA0000F931F93009198021091990220919A02FA
:104EB00030919B0260277127822793271F910F91C2
:104EC0000C941D270C941A270C9462270E946427C7
:104ED0006093940270939502809396029093970248
:104EE0000C947C2360E070E0CB010C9466270F9358
:104EF0001F9341E050E060E070E08A019B0104C034
:104F0000000F111F221F331F8A95D2F7C901B80164
:104F10001F910F910C9466270F931F9341E050E06F
:104F200060E070E004C0440F551F661F771F8A952C
:104F3000D2F78091940290919502A0919602B0913F
:104F400097028A019B01082B192B2A2B3B2BC901A5
:104F5000B8011F910F910C9466270F931F9341E0A6
:104F600050E060E070E004C0440F551F661F771FDB
:104F70008A95D2F7CB01BA0160957095809590958E
:104F8000009194021091950220919602309197021F
:104F900060237123822393231F910F910C94662722
:104FA0000F931F9341E050E060E070E004C0440FB5
:104FB000551F661F771F8A95D2F7809194029091B2
:104FC0009502A0919602B09197028A019B01082751
:104FD00019272A273B27C901B8011F910F910C946B
:104FE00066270F931F9300919402109195022091D0
:104FF000960230919702602B712B822B932B1F917D
:105000000F910C9466270F931F93009194021091B7
:10501000950220919602309197026023712382239A
:1050200093231F910F910C9466270F931F93009168
:105030009402109195022091960230919702602778
:105040007127822793271F910F910C94662708954B
:105050002FE0929F800D1124982F977041E001C09E
:10506000440F9A95EAF786958695869595E0899FEF
:10507000F0011124EE59FD4F90E080E070E0519175
:10508000DF0111979B01082E02C0369527950A94DF
:10509000E2F7217021952527242325272C930196BB
:1050A0008530910561F708952FE0929F800D1124BE
:1050B000982F977086958695869525E0829FF001BA
:1050C0001124EE59FD4F50E040E080E0219130E0A6
:1050D000092E02C0369527950A94E2F721703327EE
:1050E000042E01C0220F0A94EAF7822B4F5F5F4F14
:1050F0004530510559F70895BF92CF92DF92EF9254
:10510000FF920F931F93CF93DF938C01C090940273
:10511000D0909502E0909602F090970280919802CC
:1051200090919902A0919A02B0919B02C82AD92A23
:10513000EA2AFB2ACFE1D0E0BC2ED701C6010C2E13
:1051400004C0B695A795979587950A94D2F780FDE8
:105150000EC0219788F7B12C8B2DDF91CF911F9135
:105160000F91FF90EF90DF90CF90BF900895B8011E
:105170008C2F0E94260C019761F3EECFCF93DF9323
:10518000EC010E947C28BE01DF91CF910C94260C8B
:105190001F93CF93DF93EB0190912902992331F074
:1051A000CB01DF91CF911F910C94BE28882379F019
:1051B000CB010E947C28182F682FCE010E9428283E
:1051C000BE01812FDF91CF911F910C94260CCB0152
:1051D0000E945428182FF4CF682F80910F019091CE
:1051E00010010C94FC2A682F80910F0190911001FE
:1051F0000C94FE2A80910F01909110010C94002BC9
:1052000080919C02859585958595089580919C0255
:105210008770089590919C02977081E009F480E076
:105220000895CF93C82F8091B90282FB992790F9F6
:105230009C17D1F0C0FB82F98093B9028091B8022B
:105240009091B9020E94292A8091A90280FF0CC086
:105250001F92CF9383E491E19F938F930E94630AFF
:105260000F900F900F900F90CF9108958091B902F9
:1052700082FB882780F991E089270C94112981E02D
:105280000C94112980E00C9411298091A8020895B2
:105290009091A802892B8093A802089580959091FF
:1052A000A80298239093A80208951092A802089546
:1052B0009091A702892B8093A702089580959091E1
:1052C000A70298239093A70208951092A702089529
:1052D0009091A602892B8093A602089580959091C3
:1052E000A60298239093A60208951092A60208950C
:1052F00080919D02089508950C947B299091B902A4
:1053000092FD08C090919D02981721F080939D0214
:105310000C947C29089580919D02882329F0109295
:105320009D0280E00C947C290895E0910F01F0919A
:1053300010018091A8028083E0910F01F09110018B
:1053400080819091A702892B8083E0910F01F091D9
:10535000100180819091A602892B808390919D02FB
:10536000992381F0E0910F01F09110018081892B48
:10537000808380910F01909110010E94B42A8111C5
:105380000E948B2980910F01909110010C947D1E39
:1053900008950C94C8299091B90292FD10C098E02C
:1053A000899F90011124622B60939C020E948C279C
:1053B00080919C028595859585950C94C9290C94BE
:1053C0008C2710929C0280E00C94C92990919C0239
:1053D0008095892380939C02282F277039F4282FE9
:1053E000082E000C330B9217130621F49091B9028A
:1053F00092FF07C08595859585950E94AD270C94F1
:10540000E12908956FEF7FEF90E080E00C94E433A2
:1054100090E080E00E94C03321E08A3E9E4F09F078
:1054200020E0822F089582E090E00C94B83383E06E
:1054300090E00C94B833CF9384E090E00E94B833AE
:10544000C82F82E290E00E94B833982F8C2FCF9122
:105450000895CF93C92F682F84E090E00E94C6334F
:105460006C2F82E290E0CF910C94C633AB01BC016B
:105470008FE090E00C94D833AB01BC0183E190E065
:105480000C94D83360E070E0CB010C943C2A60E0CF
:1054900070E0CB010E94362A0C94422A6AEE7EEF1D
:1054A00090E080E00E94E43360E082E090E00E94BF
:1054B000C63360E083E090E00E94C6331092980209
:1054C0001092990210929A0210929B0260E084E07E
:1054D00090E00E94C63360E082E290E00E94C63312
:1054E00060E085E090E00E94C63360E086E090E0F6
:1054F0000E94C6336FEF87E090E00E94C63340E021
:1055000050E0BA0188E090E00E94D83360E08DE07E
:1055100090E00E94C63340E050E0BA0188E190E09C
:105520000E94D83360E087E190E00E94C63340E0FB
:1055300050E0BA018CE190E00E94D83370E060E066
:1055400080E290E00E94E43340E050E0BA0188E15C
:1055500090E00E94D8330C94472A0C944E2A682F6E
:105560008EE090E00C94C6339C012E5F3F4FAC015F
:10557000485F5F4F80E02417350709F40895F9016B
:1055800091919F019923B9F38F5FF5CF662349F07D
:10559000FC01329608962191261729F0E817F907A1
:1055A000D1F780E0089581E008959C01FC013296D6
:1055B0009FEF80E04191461751F09F3F19F4411150
:1055C00001C0982F8F5F8630A9F79F3F09F4089597
:1055D000290F311D97FD3A95F90162830895FC0169
:1055E000329608962191261303C0DF0111971C9271
:1055F000E817F907B9F708950C94D52A0C94EF2A07
:10560000029626E0FC0111922A95E9F70895089583
:1056100008950C94082B8091DC04843049F10E9499
:10562000092B80E00E94FE0B1092AA0288E190E014
:1056300020E40FB6F894A895809360000FBE2093E5
:10564000600083B7817F846083BF83B7816083BF3D
:105650007894889583B78E7F83BF0FB6F894A8950A
:1056600080916000886180936000109260000FBE9E
:1056700008950895CF930E94072B0E94170F0E9450
:10568000392BC0E08C2F0E945A0E892B31F4CF5F4A
:10569000C530C1F780E0CF91089581E0FCCF089537
:1056A0000C944F2B0E9492230E94641E0E94FE0BBA
:1056B0000C94502B1F921FB61F9211248F939F930F
:1056C000AF93BF938091AA02811113C08091D4043B
:1056D0009091D504A091D604B091D7044196A11D14
:1056E000B11D8093D4049093D504A093D604B093B5
:1056F000D704BF91AF919F918F911F901FBE1F90B4
:10570000189582E084BD93E095BD9AEF97BD809394
:105710006E0008952FB7F8948091D4049091D50429
:10572000A091D604B091D7042FBF08952FB7F89455
:105730006091D4047091D5048091D6049091D704DF
:105740002FBF08959C014FB7F8948091D404909195
:10575000D504A091D604B091D7044FBF821B930B00
:10576000089578941F921FB61F9211248F939F93D0
:10577000AF93BF938091D4049091D504A091D604A7
:10578000B091D7040196A11DB11D8093D4049093CC
:10579000D504A093D604B093D704BF91AF919F9145
:1057A0008F911F901FBE1F90189581E08093E0009D
:1057B00080E28093D8001092C9008FE19EE40197A7
:1057C000F1F700C0000087E090EBDC018093E50476
:1057D0009093E604A093E704B093E80488E19CE08A
:1057E0000FB6F894A895809360000FBE9093600068
:1057F000FFCF9093C5018093C40108958091B602B4
:105800000895CF93DF9300D00F92CDB7DEB790917C
:10581000DC04943019F589837B836A8382E080936A
:10582000E9008FEF9091E800815095FD06C095ED5D
:105830009A95F1F700008111F5CF8091E80085FF7E
:105840000DC050E040E063E070E0CE0101960E94A0
:10585000D82E8091E8008E778093E8000F900F900B
:105860000F90DF91CF910895BC0184E00C94012C3E
:10587000BC0183E00C94012C9C0182E08093E90040
:105880009FEF8091E800915085FD06C085ED8A95D7
:10589000F1F700009111F5CF8091E80085FF0CC071
:1058A00050E040E066E070E0C9010E94D82E80918F
:1058B000E8008E778093E8000895CF93DF93EC01A2
:1058C00081E08093E9008FEF9091E800815095FD91
:1058D00006C095ED9A95F1F700008111F5CF809102
:1058E000E80085FF14C050E040E068E070E0CE01C1
:1058F0000E94D82E8091E8008E778093E80088E09F
:10590000FE01AEEAB2E001900D928A95E1F7DF91D7
:10591000CF9108958DE791E10E94CA098091DB043F
:10592000811109C00E9468300E94C5308091E20058
:1059300084608093E200089589E791E10E94CA099A
:105940001092DB04089585E791E10C94CA0981E780
:1059500091E10C94CA098DE691E10C94CA09209159
:10596000AC022F5F822F62E30E946833992319F003
:105970002093AC0208951092AC028091AD0288236E
:10598000F1F08091DC048430C1F49091E9009F70C3
:105990002091EC00822F817020FD80E8892B93E01C
:1059A0009093E9009091EB0090FF04C09091EE007D
:1059B00097FD08C08F708093E9001092AD020895A2
:1059C0001092F1009091E80095FDFACF9091E800D7
:1059D00090FFF0CF9091E8009E779093E800EACF97
:1059E00042E061EC81E00E94E42F42E261EC82E05F
:1059F0000E94E42F42E261EC83E00C94E42F80915A
:105A0000DE04833009F45FC030F48130C1F18230AC
:105A100009F49BC008958A3009F487C08B3009F4DB
:105A20006DC0893009F04EC08091DD04813209F0EB
:105A300049C08091E1049091E204029708F042C0CD
:105A40008091E800877F8093E8008091E80082FFE2
:105A500035C09091F3008091F200029729F4809173
:105A6000F1008B7F813021F48091F1008093B602A8
:105A70008091E8008B778093E8000C941830809137
:105A8000DD04813AF9F48091E800877F8093E80093
:105A90008091E1049091E204892B61F468E08EEA40
:105AA00092E070E00E94272F8091E8008B7780932E
:105AB000E800089560E090E080E0F3CF8091DC049E
:105AC0008111C3CF08958091DD04813AD9F7809187
:105AD000E1049091E204892BA9F78091E800877F87
