:100000000C94B6060C94FD060C94FD060C94FD06AB
:100010000C94FD060C94FD060C94FD060C94FD0654
:100020000C94FD060C94FD060C94A62C0C947A2DD1
:100030000C941D270C94FD060C94FD060C94FD06F3
:100040000C94FD060C94FD060C94FD060C94FD0624
:100050000C94FD060C9474270C94FD060C94FD067C
:100060000C94FD060C94FD060C94FD060C94FD0604
:100070000C94FD060C94FD060C94FD060C94FD06F4
:100080000C94FD060C94FD060C94FD060C94FD06E4
:100090000C94FD060C94FD060C94FD060C94FD06D4
:1000A0000C94FD060C94FD060C94FD066800165C8D
:1000B0001E001F0020002100220023002400250034
:1000C000260027002D002E002A0069002B001400B6
:1000D0001A000800150017001C0018000C00120080
:1000E00013002F00300031006A00390004001600B0
:1000F000070009000A000B000D000E000F0033007E
:1001000034002800A8006B00E1001D001B00060061
:100110001900050011001000360037003800E50016
:100120005200E3006C00E000E2000000000000006C
:100130002C0000000000E6000151E40050005100D6
:100140004F00010001003A003B003C003D003E0032
:100150003F004000410042004300440045004C0085
:100160000100010001000100010001000100010087
:100170000100010001000100010001000100010077
:100180000100010001000100010001000100010067
:100190000100010001000100010001000100010057
:1001A0000100010001000100010001000100010047
:1001B0000100010001000100005C010001000100DC
:1001C000000000000000010000000000010001002C
:1001D000010001000100010044454255473A2064F6
:1001E000697361626C65642E0A0044454255473A62
:1001F00020656E61626C65642E0A000A002530314C
:100200003662003A200025303258000A722F6320EF
:10021000303132333435363738394142434445463C
:100220000A006D6B5F776865656C5F74696D655F0B
:10023000746F5F6D6178203D2025640A006D6B5FEF
:10024000776865656C5F6D61785F73706565642064
:100250003D2025640A006D6B5F74696D655F746F86
:100260005F6D6178203D2025640A006D6B5F6D61D4
:10027000785F7370656564203D2025640A006D6BAE
:100280005F696E74657276616C203D2025640A009A
:100290006D6B5F64656C6179203D2025640A006D9B
:1002A0006B5F776865656C5F74696D655F746F5FC0
:1002B0006D6178203D2025640A006D6B5F7768656D
:1002C000656C5F6D61785F7370656564203D2025A6
:1002D000640A006D6B5F74696D655F746F5F6D615B
:1002E00078203D2025640A006D6B5F6D61785F7337
:1002F00070656564203D2025640A006D6B5F696E42
:1003000074657276616C203D2025640A006D6B5F18
:1003100064656C6179203D2025640A000A0025751A
:1003200000363A20776865656C5F74696D655F7447
:100330006F5F6D61783A20000A00257500353A201C
:10034000776865656C5F6D61785F73706565643A49
:1003500020000A00257500343A2074696D655F74C9
:100360006F5F6D61783A20000A00257500333A20EE
:100370006D61785F73706565643A20000A002575C9
:1003800000323A20696E74657276616C286D73294B
:100390003A20000A00257500313A2064656C6179C5
:1003A000282A31306D73293A20000A092D20566120
:1003B0006C756573202D0A004D3E004D25643E206E
:1003C000003F007365742064656661756C740A0093
:1003D000433E200077686572652064656C74613AFD
:1003E00020637572736F723D25642C207768656594
:1003F0006C3D25640A53656520687474703A2F2F2C
:10040000656E2E77696B6970656469612E6F7267BE
:100410002F77696B692F4D6F7573655F6B657973A6
:100420000A000A092D204D6F7573656B6579202DC3
:100430000A4553432F713A09717569740A313A09B3
:1004400064656C6179282A31306D73290A323A0962
:10045000696E74657276616C286D73290A333A0986
:100460006D61785F73706565640A343A0974696D0B
:10047000655F746F5F6D61780A353A097768656505
:100480006C5F6D61785F73706565640A363A0977F1
:100490006865656C5F74696D655F746F5F6D6178C9
:1004A0000A0A703A097072696E742076616C75651B
:1004B000730A643A097365742064656661756C74C7
:1004C000730A75703A092B310A646F776E3A092DF9
:1004D000310A706775703A092B31300A7067646FA2
:1004E000776E3A092D31300A0A7370656564203DD4
:1004F0002064656C7461202A206D61785F7370657B
:100500006564202A2028726570656174202F20742C
:10051000696D655F746F5F6D6178290A003F004DFA
:100520003E2000433E20004C25640A0074696D653E
:10053000725F72656164333228293A202530346C49
:10054000580A006B6579626F6172645F69646C65FB
:100550003A2025580A006B6579626F6172645F709A
:10056000726F746F636F6C3A2025580A00686F735E
:10057000745F6B6579626F6172645F6C6564732828
:10058000293A2025580A000A092D205374617475F0
:1005900073202D0A004743433A20382E342E302052
:1005A0004156522D4C4942433A20322E302E3020B3
:1005B0004156525F415243483A20617672350A00F3
:1005C0004F5054494F4E533A204C554641204D4FC1
:1005D0005553454B45592045585452414B45592098
:1005E000434F4E534F4C4520434F4D4D414E4420B9
:1005F000343039360A004255494C443A2020284AC2
:10060000756C2031302032303231290A005649448D
:100610003A20307846454544286665796E6D616EAE
:10062000746629205049443A2030783030303028E0
:1006300029205645523A203078303030310A000AAD
:10064000092D2056657273696F6E202D0A000A0904
:100650002D20436F6E736F6C65202D0A4553432F19
:10066000713A09717569740A6D3A096D6F75736530
:100670006B65790A000A092D204D61676963202D99
:100680000A443A094465627567204D657373616772
:100690006520546F67676C650A583A094D6174723A
:1006A0006978204465627567204D6F646520546FDA
:1006B00067676C65202D2053686F77206B657970B4
:1006C00072657373657320696E206D6174726978E9
:1006D00020677269640A4B3A094B6579626F6172EF
:1006E0006420446562756720546F67676C65202DD0
:1006F0002053686F77206B65797072657373207211
:1007000065706F72740A4D3A094465627567204DD1
:100710006F75736520546F67676C650A563A0956A2
:10072000657273696F6E0A533A0953746174757315
:100730000A433A09416374697661746520436F6EB8
:10074000736F6C65204D6F64650A46312D463130FC
:100750003A0953776974636820746F204C61796536
:100760007220302D392028463130203D204C302950
:100770000A302D393A0953776974636820746F2001
:100780004C6179657220302D390A47524156453AFD
:100790000953776974636820746F204C61796572BE
:1007A00020302028616C7465726E617465290A427C
:1007B0003A094A756D7020746F20426F6F746C6FC8
:1007C000616465720A4553433A094A756D70207435
:1007D0006F20426F6F746C6F616465722028616C6A
:1007E0007465726E617465290A453A095072696EC2
:1007F0007420454550524F4D2053657474696E679F
:10080000730A4253504143453A09436C6561722073
:10081000454550524F4D0A000A002575002E6E6B5B
:10082000726F3A20000A002575002E737761705FA1
:100830006261636B736C6173685F6261636B737039
:100840006163653A20000A002575002E7377617098
:100850005F67726176655F6573633A20000A002501
:1008600075002E6E6F5F6775693A20000A00257566
:10087000002E737761705F72616C745F7267756967
:100880003A20000A002575002E737761705F6C6155
:100890006C745F6C6775693A20000A002575002E3C
:1008A000737761705F7263746C5F726775693A2009
:1008B000000A002575002E737761705F6C63746C9D
:1008C0005F6C6775693A20000A002575002E636128
:1008D00070736C6F636B5F746F5F636F6E74726F56
:1008E0006C3A20000A002575002E737761705F63F3
:1008F0006F6E74726F6C5F636170736C6F636B3A71
:1009000020000A0025303258006B65796D61705FF8
:10091000636F6E6669672E7261773A20000A002560
:1009200075002E6D6F7573653A20000A00257500FD
:100930002E6B6579626F6172643A20000A0025753A
:10094000002E6D61747269783A20000A00257500E6
:100950002E656E61626C653A20000A0025303258BF
:100960000064656275675F636F6E6669672E7261AA
:10097000773A20000A0025750064656661756C741D
:100980005F6C617965723A20003F000A6D6F757384
:10099000653A206F66660A000A6D6F7573653A20C6
:1009A0006F6E0A000A6B6579626F6172643A206F3C
:1009B00066660A000A6B6579626F6172643A206F3D
:1009C0006E0A000A6D61747269783A206F66660A71
:1009D000000A6D61747269783A206F6E0A000A64C9
:1009E000656275673A206F66660A000A646562751B
:1009F000673A206F6E0A000A0A4A756D70696E6761
:100A000020746F20626F6F746C6F616465722E2E3C
:100A10002E2000433E2000436C656172696E6720A2
:100A2000454550524F4D0A006565636F6E666967B4
:100A30003A0A00290A002575002F002575005D2857
:100A400000256400200025640020002564002000AB
:100A50002564007C0025303258006D6F7573656B1E
:100A60006579205B62746E7C782079207620685DE1
:100A7000287265702F61636C293A205B006F6C658A
:100A8000645F6F666620636D64206661696C65648F
:100A90000A0000AE6F6C65645F6F6E20636D64204A
:100AA0006661696C65640A0000AF6F6C65645F72B3
:100AB000656E6465723930206461746120666169B5
:100AC0006C65640A006F6C65645F72656E64657264
:100AD0002064617461206661696C65640A006F6CF2
:100AE00065645F72656E646572206F6666736574B7
:100AF00020636F6D6D616E64206661696C65640A68
:100B000000646973706C61795F736574757032200D
:100B10006661696C65640A0000DA0281FFD9F1DB65
:100B200020A4A62EAF646973706C61795F666C69EE
:100B300070706564206661696C65640A0000A0C01D
:100B40006F6C65645F696E697420636D64206E6F9D
:100B5000726D616C20726F746174696F6E20666172
:100B6000696C65640A0000A1C86F6C65645F696E9A
:100B7000697420636D642073657420312066616937
:100B80006C65640A0000AED580A81FD300408D14A8
:100B900020000A002530325820006B6579626F61B1
:100BA00072645F7265706F72743A20000A002530BB
:100BB0003258006B6579626F6172645F7365745F50
:100BC0006C65643A20004F6E6573686F743A2061FB
:100BD00063746976653A2025640A005B735D004B97
:100BE0006579626F6172642073746172742E0A0099
:100BF0005B575D005B535D005B525D005B445D00D5
:100C00005B435D0002030000140366006500790089
:100C10006E006D0061006E00740066000000040349
:100C2000090409025B00030100A0FA0904000001A5
:100C30000301010009211101000122400007058183
:100C40000308000A09040100010300000009211142
:100C5000010001227B000705820320000A0904022B
:100C600000020300000009211101000122220007F7
:100C70000583032000010705030320000112011072
:100C80000100000008EDFE00000100010200010665
:100C900031FF0974A1010975150026FF0095207523
:100CA0000881020976150026FF009520750891023B
:100CB000C005010902A10185020901A10005091968
:100CC0000129081500250195087501810205010912
:100CD0003009311581257F9502750881060938157F
:100CE00081257F950175088106050C0A380215815A
:100CF000257F950175088106C0C005010980A10105
:100D0000850319012AB700150126B7009501751052
:100D10008100C0050C0901A101850419012AA00266
:100D2000150126A002950175108100C00501090674
:100D3000A101050719E029E71500250195087501AE
:100D400081029501750881010507190029FF150029
:100D500026FF0095067508810005081901290595EB
:100D60000575019102950175039101C011241FBE03
:100D7000CFEFDAE0DEBFCDBF04B603FE27C080911F
:100D8000DF049091E004A091E104B091E204873087
:100D9000904BA740B04BD1F41092DF041092E004C6
:100DA0001092E1041092E20414BE84B7877F84BFDE
:100DB0000FB6F894A89580916000886180936000D8
:100DC000109260000FBEE0E0F8E3099511E0A0E0AA
:100DD000B1E0E2EAFFE502C005900D92A43CB10744
:100DE000D9F724E0A4ECB1E001C01D92AF3DB207F9
:100DF000E1F70E94DB290C94A72F0C940000FF93CD
:100E0000EF93E091C401F091C501309709F0099585
:100E1000EF91FF910895FC018591803011F0EFDF93
:100E2000FBCF0895FF27E0E230E247FF0CC0419579
:100E300097FF09C0EDE26095709580959095611DD2
:100E4000711D811D911D27FF02C0219530E350E2E5
:100E5000AA27660F771F881F991FAA1FA41710F0D3
:100E6000A41B63955A95A9F7AA3008F0A95FA05D65
:100E7000AF93F395611571058105910541F7ED3249
:100E800011F4EF93F395F21718F43F93F395FBCF1A
:100E90008F91B5DFFA95E1F70895E991F991859180
:100EA000803021F0853219F0AADFF9CF089520E0D3
:100EB000E89455915532C1F3503311F4689455912B
:100EC0005A3348F4505390F3220F022E220F220F70
:100ED000200D250FF4CF0EF4219589919991533669
:100EE00019F3533729F1533559F1BC018827992754
:100EF000E8945C3621F4899199916894559154361F
:100F000039F446EF7EF077FF0DC08FEF9FEF0AC0F8
:100F100055374AE039F0583540E121F0523642E089
:100F200009F00895FF93EF937DDFEF91FF91B7CF25
:100F3000FF93EF93FC0181918030B9F360DFFBCF29
:100F4000FF93EF9368DFF1CFDF93CF93CDB7DEB799
:100F50002596A3DFCF91DF910895811106C089EA1C
:100F6000611101C08AEA0E94D41C81E0089581E0E9
:100F7000089581E008950C94B90708950C94BD0775
:100F80001F93CF93DF9300D000D00F92CDB7DEB781
:100F900049835A836B833091230289819A8131116D
:100FA0001DC06623B9F02223A9F00E943F24182F08
:100FB000682F89819A810E94EB2369817A81812F30
:100FC0000F900F900F900F900F90DF91CF911F9186
:100FD0000C94BC080E941724182FEFCF0E943F24C6
:100FE00069817A81EDCFFC01262F40815181628198
:100FF000738184810C94C007CF93DF93EC0160E090
:101000000E94F307BE01DF91CF910C94BE070E94AE
:10101000E20A0C94070B0C940A0B08950E94551FCA
:101020000E940D082FEF84E39CE021508040904007
:10103000E1F700C000000C9498270F931F93CF9303
:10104000DF938C0161E00E94F307EC01B8010E947C
:10105000BB078823C1F1B801CE010E94A7178823DE
:1010600091F1B801CE010E94F917882361F1B8010E
:10107000CE010E941C19882331F1F8018281882356
:1010800061F0CF3DFCE5DF07B1F170F4C115ECE58F
:10109000DE07B9F0C130DC45E1F0C801DF91CF9146
:1010A0001F910F910C94B707CC358DE5D80749F106
:1010B000CD35DC0719F1CB35DD4579F70E940225E6
:1010C000ECCF0E940E0880E0DF91CF911F910F912D
:1010D00008959091A302892F8E7F90FF8160809365
:1010E000A30280FF05C08AEE91E00E940B07EBCFC0
:1010F00088ED91E0FACF0E947026E5CF0E94F92496
:10110000CCCF0E940525C9CF829590E09C01220F8B
:10111000331F220F331F2C7C9595879595958795C6
:101120008373282B30E0C901880F991F8A7A35957F
:1011300027952575822B0895CF93DF93D92F0E9491
:101140008408C82F8D2F0E9484089C2FDF91CF9197
:10115000089508950C94A90881E008950C94AC08B2
:10116000CF93C82F0E94AA088C2FCF910C94AE0861
:1011700090E080E008950895972F70E02FE0929F0F
:10118000600D711D1124FB019BE4899FE00DF11D91
:101190001124EE0FFF1FE455FF4F859194910895A0
:1011A000FC01EE0FFF1FE550FE4F859194910895CD
:1011B000CF93DF930E94BC080E94ED09EC018115DA
:1011C00020E5920708F042C0811530E4930708F04B
:1011D000BDC0883E910528F5803E910508F09DC070
:1011E000883A910588F4853A910508F08FC08130DE
:1011F000910509F492C0009709F48FC0049708F094
:101200008CC0D0E0C0E089C08F3B910508F489C054
:10121000805C9109C03CD105A0F30E94D008EC018C
:101220007CC08115904250F4C11581E0D80708F0C8
:1012300074C0CD3ED10528F3D0656FC0C11590E3D1
:10124000D90708F079C0CE019F70E7CF811525E559
:10125000920758F5811534E5930708F0A6C081156B
:1012600042E5940750F4C11581E5D80708F471C030
:10127000DC2FCC27C16FD06A50C0982F96959695D9
:101280009E0123703327C115D34508F07FC0C1E00C
:10129000D0E002C0CC0FDD1F2A95E2F720E2929F3A
:1012A000C0011124C82BD92B6FC0C11589E5D807FF
:1012B000A8F4C11598E5D90708F07CC0C11526E54A
:1012C000D20708F09ECF8C2F0E94840AC82FD0E04E
:1012D000DC2FCC27CC27DF71D0621FC0C1153AE5C7
:1012E000D30708F46CC0CE0190568115904208F0E7
:1012F00088CF8D2F8F710E94840A90E0982F8827C5
:1013000088279F719C012C2BE901E6CFC55AD0E0BC
:10131000C65BDE4FC881D0E0D064CE01DF91CF91B3
:101320000895C85AD0E0CC0FDD1FC45EDE4F09908F
:10133000D881C02DD464F1CFCE019927D3FF03C04B
:10134000EC01D86CEACFEC01D06CE7CFDF70D06A4B
:10135000E4CFCE01E4E096958795EA95E1F78370B6
:101360002C2F26952695237090E2299F9001112419
:10137000382B8C2F8370C1E0D0E002C0CC0FDD1F72
:101380008A95E2F7C22BD32BDC68C7CFC1E0D0E04F
:1013900002C0CC0FDD1F2A95E2F730E2939FC00117
:1013A0001124C82BD92BDA68B8CFD82FCC27C46F1B
:1013B000D06AB3CFDC2FCC27C06FD06AAECF8C2FD2
:1013C0008F700E94840A34E0D695C7953A95E1F76C
:1013D000CF709C2FEC01D069A0CF82389105B1F17C
:1013E000B0F48133910509F475C048F48932910550
:1013F00009F469C08A32910509F473C008958533F0
:10140000910509F459C08933910501F10895833E8E
:101410009105A9F138F4803E9105F9F0823E9105DD
:1014200049F10895863E9105A9F1873E9105C9F1DC
:10143000843E910519F52091B30221FF1FC08091D0
:10144000B20284FD14C087EE90E008952091B202AC
:101450002370A1F080EE90E008952091B20220FD6B
:1014600047C03091B30230FF09C024FF44C090E070
:1014700080E004C02091B20222FDF7CF08952091B0
:10148000B20222FD3BC03091B30230FDE3CF24FF16
:10149000F5CFEDCF2091B20223FFF0CF24FDE7CFAF
:1014A000D2CF2091B20223FD2CC03091B30231FF84
:1014B000EECF84EE90E008952091B20225FFDECFBA
:1014C00089E290E008952091B20225FFD7CF85E30D
:1014D00090E008952091B20226FFD0CF8AE290E0FA
:1014E00008952091B20226FFC9CF81E390E00895CC
:1014F00089E390E0089583EE90E0089582EE90E015
:10150000089586EE90E008959091B20292FF06C091
:10151000282F28712830F9F4877F846093FF06C054
:10152000282F28712831F1F4877E84612091B3023D
:1015300020FF06C0382F38713830D9F4877F81609A
:1015400021FF06C0282F28712831D1F4877E8161C0
:1015500094FD877E0895282F24712430F9F68B7F1F
:101560008860DCCF282F2471243101F78B7E8861BD
:10157000DDCF382F3171313019F78E7F8860E0CFA1
:10158000282F2171213121F78E7E8861E1CF0C94C3
:10159000C5250E94C90B2FEF86E791E021508040BE
:1015A0009040E1F700C000000E94C90B80E00E945B
:1015B0000C0B80FF04C00E94C70A0C949827089562
:1015C0000C94C90A0E94CB25811102C00E9470268A
:1015D0000E94D6258093A3020E94DE259093B30239
:1015E0008093B2020E94E00A0E94DA25682F70E020
:1015F00090E080E00E94ED2260918E0270918F0257
:1016000080919002909191020C94272308950C945C
:10161000060B08950C94090BE82FF0E0EE0FFF1F66
:10162000E254FD4F808191810895CF92DF92EF9235
:10163000FF920F931F93CF93DF938BE092E00E9472
:101640000B078EEBE82E82E0F82ED0E0C0E096E0AB
:10165000C92E92E0D92E0DEF11E0DF93CF93DF92E8
:10166000CF920E94A40783E092E00E940B07F7014B
:10167000819191917F010E949C089F938F931F936A
:101680000F930E94A4078BEF91E00E940B07219615
:101690008DB79EB708960FB6F8949EBF0FBE8DBF4C
:1016A000C530D105D1F6DF91CF911F910F91FF90F9
:1016B000EF90DF90CF90089580EA8A95F1F7089532
:1016C00000C008950C945C0BF894E82FE295EF703D
:1016D000F0E031A1282F2F7081E090E001C0880F49
:1016E0002A95EAF7982F9095932391A392A1892B9D
:1016F00082A3789408950F931F93CF93DF9380EF85
:101700000E94640B81EF0E94640B84EF0E94640BC3
:1017100085EF0E94640B86EF0E94640BCDE4D1E05C
:101720000CE511E089910E94640B0C171D07D1F79D
:101730001092B5021092B4021092BF021092BE0233
:101740001092B7021092B6021092C1021092C0021B
:101750001092B9021092B8021092C3021092C20203
:101760001092BB021092BA021092C5021092C402EB
:101770001092BD021092BC021092C7021092C602D3
:1017800085E00E94490CDF91CF911F910F910C943D
:101790000708AF92BF92DF92EF92FF920F931F93D1
:1017A000CF93DF93CCE5D1E004EB12E0D12CEE2413
:1017B000E394F12C8991F894E82FE295EF70F0E032
:1017C00021A18F70A70102C0440F551F8A95E2F72F
:1017D000CA01922F982B91A392A18095892382A36D
:1017E00078940E94600BEDE4F1E030E020E0B12C51
:1017F000A12C4191A42FA295AF70B0E090968C914E
:1018000090E04F7002C0959587954A95E2F780FD6C
:101810003BC0C701022E02C0880F991F0A94E2F74D
:10182000A82AB92A2F5F3F4F2F30310511F7FE014B
:10183000319780810E94640B0E94620BF8018081C5
:101840009181A816B90619F1B182A08281E0D82A47
:101850000E5F1F4FF1E0C136DF0709F0ABCF2D2D32
:1018600045E06EEB72E084EB92E00E944A0C0E942D
:101870000B088D2DDF91CF911F910F91FF90EF906D
:10188000DF90BF90AF90089590E080E0C9CF80E0F6
:10189000DECF0895FF920F931F93CF93DF93F82E1F
:1018A000092F162FD72FC42F222349F081E08093D0
:1018B000C8010E944D279093C7018093C601809173
:1018C000C8018823A1F08091C6019091C7010E94B0
:1018D0006527069760F0EF2DF02FA12FBD2F90E028
:1018E00080E0D0E08C179D0744F01092C801DF9192
:1018F000CF911F910F91FF900895219131912D93D8
:101900003D930196EFCF82E294E00E940B071F9275
:1019100081E08F931F9285E08F9384ED93E09F93F6
:101920008F930E94A4070F900F900F900F900F902D
:101930000F900895833009F445C028F4813061F098
:10194000823049F10895853009F46AC008F451C025
:10195000863009F47CC0089580910701482F460F16
:101960005527551F4F3F510594F4680F60930701A9
:10197000809107011F928F938DE093E09F938F9347
:101980000E94A4070F900F900F900F9008958FEF73
:1019900080930701EDCF80910601482F460F552710
:1019A000551F4F3F510554F4680F60930601809115
:1019B00006011F928F938BEF92E0E0CF8FEF809321
:1019C0000601F5CF80910501482F460F5527551F79
:1019D0004F3F510554F4680F609305018091050154
:1019E0001F928F9388EE92E0C9CF8FEF809305010D
:1019F000F5CF80910401482F460F5527551F4F3FC3
:101A0000510554F4680F60930401809104011F9202
:101A10008F9383ED92E0B2CF8FEF80930401F5CFE7
:101A200080910101482F460F5527551F4F3F510503
:101A300054F4680F60930101809101011F928F930C
:101A40008AEB92E09BCF8FEF80930101F5CF8091DD
:101A50000001482F460F5527551F4F3F510554F49D
:101A6000680F60930001809100011F928F938FE9AE
:101A700092E084CF8FEF80930001F5CF8330C9F1DE
:101A800028F4813061F0823019F10895853009F42D
:101A900052C008F43FC0863009F45EC008958091BA
:101AA0000701681790F4861B809307018091070156
:101AB0001F928F9380E992E09F938F930E94A407D7
:101AC0000F900F900F900F90089510920701EECF96
:101AD00080910601681750F4861B8093060180915F
:101AE00006011F928F938EE792E0E6CF10920601D7
:101AF000F6CF80910501681750F4861B809305018D
:101B0000809105011F928F938BE692E0D5CF1092C2
:101B10000501F6CF80910401681750F4861B80936D
:101B20000401809104011F928F9386E592E0C4CF57
:101B300010920401F6CF80910101681750F4861BC2
:101B400080930101809101011F928F938DE392E0B8
:101B5000B3CF10920101F6CF80910001681750F4C5
:101B6000861B80930001809100011F928F9382E277
:101B700092E0A2CF10920001F6CFCF93C82F1F9210
:101B80008F9387E295E09F938F930E94A40761E073
:101B900070E080E090E004C0660F771F881F991FF7
:101BA000CA95D2F70E94ED220F900F900F900F90E0
:101BB000CF910C94551FCF93DF938B3109F4FAC169
:101BC00008F09CC18B3009F4B8C108F06AC18630B6
:101BD00009F4C6C148F4853009F49EC189E899E04A
:101BE0000E940B0780E0CCC1873009F4CCC188305B
:101BF000A9F788E29AE00E940B0789E799E00E9422
:101C00000B070E94DA251F928F9386E799E09F9336
:101C10008F930E94A40784E799E00E940B070E941B
:101C2000D625C82F81E699E00E940B071F92CF931B
:101C30008CE599E09F938F930E94A4078AE599E031
:101C40000E940B0780E599E00E940B078C2F8170A2
:101C50001F928F938DE499E09F938F930E94A40726
:101C60008BE499E00E940B0781E499E00E940B0746
:101C7000C1FB882780F91F928F938EE399E09F9391
:101C80008F930E94A4078CE399E00E940B0780E3E6
:101C900099E00E940B07C2FB882780F91F928F935F
:101CA0008DE299E09F938F930E94A4078BE299E0C5
:101CB0000E940B0782E299E00E940B07C3FBCC272E
:101CC000C0F91F92CF938FE199E09F938F930E9469
:101CD000A4078DE199E00E940B070E94DE25EC012C
:101CE00089E099E00E940B07DF93CF9384E099E0AD
:101CF0009F938F930E94A40782E099E00E940B07B4
:101D000089EE98E00E940B078C2F81701F928F93B1
:101D100086EE98E09F938F930E94A4078DB79EB79D
:101D200080960FB6F8949EBF0FBE8DBF84EE98E0EC
:101D30000E940B078DEC98E00E940B07C1FB8827DF
:101D400080F91F928F938AEC98E09F938F930E9463
:101D5000A40788EC98E00E940B0786EB98E00E94AD
:101D60000B078D2F81701F928F9383EB98E09F93C9
:101D70008F930E94A40781EB98E00E940B078FE9E4
:101D800098E00E940B07D695D1701F92DF938CE9E3
:101D900098E09F938F930E94A4078AE998E00E949D
:101DA0000B0788E898E00E940B07C2FB882780F9A0
:101DB0001F928F9385E898E09F938F930E94A407CA
:101DC00083E898E00E940B0781E798E00E940B07E8
:101DD000C3FB882780F91F928F938EE698E09F932C
:101DE0008F930E94A4078CE698E00E940B0782E67E
:101DF00098E00E940B07C4FB882780F91F928F93FD
:101E00008FE598E09F938F930E94A4078DE598E05B
:101E10000E940B078BE498E00E940B07C5FB882704
:101E200080F91F928F9388E498E09F938F930E948C
:101E3000A40786E498E00E940B078AE298E00E94DB
:101E40000B07C6FB882780F91F928F9387E298E0E3
:101E50009F938F930E94A4078DB79EB780960FB66D
:101E6000F8949EBF0FBE8DBF85E298E00E940B07DD
:101E70008DE198E00E940B07C7FBCC27C0F91F92A9
:101E8000CF938AE198E09F938F930E94A40788E103
:101E900098E00E940B070F900F900F900F9081E039
:101EA0006FC0803109F49EC080F48E3009F096CE68
:101EB0009091A302892F8B7F92FF84608093A3026D
:101EC00082FF8DC084EB99E081C0863109F49AC00D
:101ED000893109F083CE8FE396E00E940B078DE0F5
:101EE00096E00E940B0786EF95E00E940B0780ECBE
:101EF00095E00E940B0785E995E021C08A3249F1FF
:101F000090F4873211F128F48E3108F467CE8D51A8
:101F10001DC0893209F062CE87EF99E00E940B075D
:101F20000E940E08BCCF833468F48A3308F0A1C045
:101F3000853359F0883309F051CE85E796E00E9449
:101F40000B07ADCF833409F049CE80E00E94BD0D70
:101F5000A6CF87E19AE00E940B070E9470269FCFD0
:101F60008091A302807F8093A3028EE496E00E947A
:101F70000B0783E19AE00E940B0781E08093CA017E
:101F8000DF91CF9108959091A302892F8E7F90FFCA
:101F900081608093A30280FF03C08BEE99E0CFCFD6
:101FA0008EED99E00E940B078091A302817F8093C0
:101FB000A30275CF9091A302892F8D7F91FF82603C
:101FC0008093A30281FF08C081ED99E00E940B0776
:101FD0008091A3028160EBCF83EC99E0B0CF84EADB
:101FE00099E0ADCF9091A302892F877F93FF8860FE
:101FF0008093A30283FF03C088E999E0E7CF8BE8D1
:1020000099E09DCF87E895E00E940B070E94341A63
:102010001F928F938DE695E09F938F930E94A40764
:1020200080911B011F928F9386E595E09F938F937C
:102030000E94A4078091B1021F928F9383E495E0E0
:102040009F938F930E94A4070E9459279F938F9379
:102050007F936F938CE295E09F938F930E94A407E8
:102060008DB79EB742960FB6F8949EBF0FBE8DBF38
:1020700016CF89536BCF80E008950C943B108E519E
:102080008A3030F4E82FF0E0EF59FE4F8081089558
:1020900080E00895CF93C82F8091CA018130C1F0AC
:1020A000882339F0823009F447C01092CA0180E0D9
:1020B0000DC00E9408258232D1F78C2F0E943B1060
:1020C00081111BC08C2F0E94DB0D8170CF91089570
:1020D0000E940825823289F38C2F0E943D108111C5
:1020E0001BC0C431D9F060F4CB3071F0C031D1F0F5
:1020F0008DE195E00E940B0713C081E090E0E5CFF1
:10210000C93261F0C833A1F78EE496E00E940B0754
:1021100083E295E00E940B0781E0D7CF1092CA01BD
:1021200080E0D3CF0E94830C8FE195E00E940B07E3
:1021300082E08093CA01F0CFC432C8F4CE3108F0F7
:10214000BEC0CB30E1F040F4C73009F4CCC081EC24
:1021500093E00E940B0726C0C331C1F1C431B9F727
:102160008091C901882351F11092C9010AC0CB3472
:1021700009F4B7C0C8F4C93299F3C83341F70E94D3
:10218000830C8091C901882309F4C4C01F928F93E6
:102190008BEB93E09F938F930E94A4070F900F9077
:1021A0000F900F9081E092CFC13509F494C0C235F1
:1021B00009F48BC0CE3459F66AE08EC080ED93E00E
:1021C0000E940B0781E08093CA0180CF8AEA93E0E6
:1021D0000E940B0788E993E00E940B07809107019A
:1021E0001F928F9385E993E09F938F930E94A4079A
:1021F00083E993E00E940B0781E893E00E940B07BC
:10220000809106011F928F938EE793E09F938F93A7
:102210000E94A4078CE793E00E940B078DE693E0F1
:102220000E940B07809105011F928F938AE693E02D
:102230009F938F930E94A40788E693E00E940B0768
:1022400087E593E00E940B07809104011F928F9312
:1022500084E593E09F938F930E94A40782E593E027
:102260000E940B078DE393E00E940B078091010110
:102270001F928F938AE393E09F938F930E94A4070A
:1022800088E393E00E940B0781E293E00E940B0732
:10229000809100011F928F938EE193E09F938F9323
:1022A0000E94A4078CE193E00E940B078DB79EB7B4
:1022B00048960FB6F8949EBF0FBE8DBF62CF8C2F8D
:1022C0000E943F108093C9015CCF61E08091C901F9
:1022D0000E949A0C56CF61E08091C9010E943E0D88
:1022E00050CF6AE0F3CF8EE18093070182E38093C1
:1022F00006018AE08093050184E18093040188E06F
:102300008093010188E28093000183EC93E00E94B6
:102310000B0737CF88EB93E01CCF8091D10180FF72
:1023200012C06091050185E0689FB0011124759588
:1023300067957595679560387105A8F56115710504
:10234000A1F1862F089581FF09C06091050185E004
:10235000689FB001112475956795EDCF60910501D7
:1023600082FD0AC08091D0018823D1F090910401B0
:1023700060910501891728F085E0689FB00111245C
:10238000DACF869FB001112485E0869F9001879F58
:10239000300D1124692F70E0C9010E944B2FCBCF63
:1023A00065E070E0CECF8FE7089581E008958091D9
:1023B000D10180FF0CC06091010170E075956795B7
:1023C000759567956115710549F1862F089581FF0F
:1023D00006C06091010170E075956795F3CF60913B
:1023E000010182FD0BC09091CF019923A1F0609172
:1023F000000180910101961738F0682F70E0603875
:10240000710500F38FE70895899FC001112470E0E2
:102410000E944B2FF4CF61E070E0D7CF81E00895A8
:102420008D3E31F40E948D1181958093D5010895E0
:102430008E3E19F40E948D11F8CF8F3E31F40E9428
:102440008D1181958093D4010895803F19F40E94E5
:102450008D11F8CF893F29F40E94D7118093D601BE
:1024600008958A3F21F40E94D7118195F7CF8B3FC1
:1024700031F40E94D71181958093D70108958C3F44
:1024800019F40E94D711F8CF9FE0980F983070F49C
:10249000815F990B21E030E001C0220F8A95EAF7B5
:1024A0008091D301822B8093D30108958D3F31F425
:1024B0008091D10181608093D10108958E3F21F4F4
:1024C0008091D1018260F7CF8F3FB9F78091D10120
:1024D0008460F1CF4091D4018D3E59F48091D501B3
:1024E00087FF0DC01092D50141110BC01092D00191
:1024F00008C08E3E81F48091D50118169CF34423C8
:1025000081F08091D6019091D701892B09F05AC0B2
:102510001092CF0108958F3E49F447FFF0CF1092FB
:10252000D4018091D5018111ECCFE0CF803F19F427
:102530001416ACF3E4CF9091D601893F29F4191613
:10254000F4F61092D601DBCF8A3F19F497FFD7CF6C
:10255000F8CF9091D7018B3F29F497FFD0CF1092FD
:10256000D701CDCF8C3F19F41916CCF3C8CF9FE01B
:10257000980F983090F4815F990B21E030E0B90119
:1025800002C0660F771F8A95E2F7CB018095909184
:10259000D30189238093D301B2CF8D3F31F4809151
:1025A000D1018E7F8093D101AACF8E3F21F48091FB
:1025B000D1018D7FF7CF8F3F09F0A1CF8091D1015D
:1025C0008B7FF0CF08958091A30283FF7EC08AE5C0
:1025D0009AE00E940B078091D3011F928F9385E5AB
:1025E0009AE09F938F930E94A40783E59AE00E944C
:1025F0000B078091D401282F082E000C330B3F933A
:102600008F9380E59AE09F938F930E94A4078EE4B6
:102610009AE00E940B078091D501282F082E000C0C
:10262000330B3F938F938BE49AE09F938F930E9499
:10263000A40789E49AE00E940B078091D601282F15
:10264000082E000C330B3F938F9386E49AE09F9300
:102650008F930E94A40784E49AE00E940B07809164
:10266000D701282F082E000C330B3F938F9381E462
:102670009AE09F938F930E94A4078EE39AE00E94B2
:102680000B078091D0011F928F938BE39AE09F9369
:102690008F930E94A40789E39AE00E940B07809120
:1026A000D1011F928F9386E39AE09F938F930E94AC
:1026B000A40783E39AE00E940B078DB79EB74C9660
:1026C0000FB6F8949EBF0FBE8DBF0E944D279C0190
:1026D0009091D4018091D501982B21F03093CE01B7
:1026E0002093CD019091D6018091D701982B21F0B4
:1026F0003093CC012093CB0182ED91E00C948C1AA5
:10270000EF92FF920F931F93CF93DF9300D000D0EF
:1027100000D0CDB7DEB786E0E2EDF1E0DE01119644
:1027200001900D928A95E1F7E090D401F090D501E7
:102730000091D6011091D7011092D4011092D501C9
:102740001092D6011092D7018E2D8F2991F0809191
:10275000CD019091CE010E946527AC019091D001EE
:10276000992309F43FC0809106018417150608F4E7
:1027700047C0802F812B91F08091CB019091CC01AB
:102780000E946527AC019091CF01992309F477C08D
:10279000809102018417150608F47FC08091D4014E
:1027A0009091D501892B9091D601892B9091D701D9
:1027B000892B11F00E94E31286E0FE013196A2ED12
:1027C000B1E001900D928A95E1F726960FB6F89444
:1027D000DEBF0FBECDBFDF91CF911F910F91FF9054
:1027E000EF900895209107018AE0289F900111241D
:1027F0002417350708F0BDCF9F5F9093D00102C02A
:102800009F3FD1F7EE2059F00E948D119FEF1E14CB
:102810000CF491E0899F802D11248093D401FF2036
:1028200059F00E948D119FEF1F140CF491E0899FC5
:10283000802D11248093D5013091D401332309F4E4
:1028400098CF2091D501222309F493CF45EB34038F
:10285000C0011124992359F09093D40145EB24032E
:1028600090011124332339F03093D50182CF81E0D8
:102870008093D401F3CF81E08093D5017ACF20916A
:1028800003018AE0289F900111242417350708F0DE
:1028900085CF9F5F9093CF0102C09F3FD1F7002368
:1028A00059F00E94D7119FEF10160CF491E0899F08
:1028B000802D11248093D601112359F00E94D71145
:1028C0009FEF11160CF491E0899F802D11248093C5
:1028D000D7013091D601332309F460CF2091D7017D
:1028E000222309F45BCF45EB3403C0011124992363
:1028F00059F09093D60145EB240390011124332322
:1029000039F03093D7014ACF81E08093D601F3CFDD
:1029100081E08093D70142CF86E0E2EDF1E0DF0174
:102920001D928A95E9F71092D0011092CF01109272
:10293000D10108950C94AD073E98469A3F98479A66
:1029400086B186FB882780F926B130E0220F232F3D
:10295000221F330B90E0232B09F092E0892B809308
:10296000DA010895E091DA01EE0FEE0FE093DA015B
:1029700086B186FB222720F986B190E0880F892F47
:10298000881F990B009711F082E090E0822BE82BD2
:10299000E093DA01EF70F0E0E559FE4F808190910D
:1029A000D901890F8093D90120E0843054F08091BF
:1029B000D8018F5F8093D80160E080E00E949A1474
:1029C00021E08091D9018D3F54F48091D80181504C
:1029D0008093D80161E080E00E949A1421E0809108
:1029E000D901082E000C990B64E070E00E944B2F77
:1029F0008093D901822F0895CF92DF92EF92FF92B8
:102A00000F931F93CF93DF936C017B0164E670E01B
:102A100088E70E944C19EC0197FD12C010E000E01D
:102A2000F601E00FF11F849164E670E00E94A8199E
:102A3000EC01892B29F40F5F1F4F0E151F0581F73D
:102A40000E942B1ACE01DF91CF911F910F91FF9021
:102A5000EF90DF90CF9008950895E8ECF2E080E0E9
:102A600092E0DF019C011D9221503040E1F7F0938C
:102A7000CD04E093CC048FEF9FEF909301028093FD
:102A8000000208950E942C158093FC0180FD13C064
:102A900080E88093FB010E9446196DE070E085E8B4
:102AA0009BE00E94FC14892B41F089E69BE00E9488
:102AB0000B0780E0089580E2ECCF8091FC0163E099
:102AC00070E081FD09C086E69BE00E94FC14892B22
:102AD00061F080E49BE0EBCF8DE39BE00E94FC146F
:102AE000892B19F085E29BE0E2CF6DE070E088E190
:102AF0009BE00E94FC14892B19F081E09BE0D7CF6A
:102B00000E945927605A75418F4F9F4F6093C804A8
:102B10007093C9048093CA049093CB040E942D152E
:102B200081E08093FF018093FE011092FD010895E2
:102B30002091FB0136E0839FC0011124629F800D2C
:102B4000911D1124811522E0920714F090E080E09D
:102B500088539D4F9093CD048093CC040895809129
:102B6000FF01811103C08091FE0108950E94592741
:102B7000605A75418F4F9F4F6093C8047093C9048A
:102B80008093CA049093CB048091FE018111EBCF16
:102B900062E070E088EA9AE00E94FC14892B29F038
:102BA00084E99AE00E940B07DECF81E08093FE016A
:102BB000DACF2F923F925F926F927F928F929F9285
:102BC000AF92BF92CF92DF92EF92FF920F931F933B
:102BD000CF93DF938091FF01882369F02091000259
:102BE000309101022115310531F08091FD0161E044
:102BF00070E0882399F0DF91CF911F910F91FF90A2
:102C0000EF90DF90CF90BF90AF909F908F907F908C
:102C10006F905F903F902F9008958F5F082F10E086
:102C20001B01082E02C0220C331C0A94E2F7A901F2
:102C300042215321452B89F39091FC0190FD31C035
:102C40008295880F807680930A01980136952795A2
:102C50003695279520930D01815E80930B0110928C
:102C60000E0124E630E047E050E068E071E088E7DC
:102C70000E94D719892B19F18EED9AE0DF91CF913F
:102C80001F910F91FF90EF90DF90CF90BF90AF908A
:102C90009F908F907F906F905F903F902F900C94BB
:102CA0000B07880F880F880F80930A0110920D017F
:102CB000895F80930B0183E080930E01D2CFA8013E
:102CC00025E0440F551F2A95E1F78091FC0180FD16
:102CD00010C048535D4F04E610E020E230E060E4AD
:102CE00088E70E94FE19892B09F469C085EC9AE0F7
:102CF000C5CFEBEDF1E080E2DF011D928A95E9F7A7
:102D0000AFE7B1E00BE711E083E8C82E81E0D82EF1
:102D100097E0592E772473948D91E80129918E01C3
:102D2000240F352F311D28533D4FE82FF0E0E55299
:102D3000FE4F90E080E0652C681A872C082E01C0B9
:102D4000880C0A94EAF77901A12CE701B9907E0179
:102D5000B820662D6A196770962E062E000C770B28
:102D6000DB2D01C0DD0F9A94EAF771956195710929
:102D70006770772701C0B6946A95EAF7BD2A60812B
:102D8000962E9B289082A39468E0A612DECF01962F
:102D900031968830910579F6CA16DB0609F0BCCF6A
:102DA00004E610E020E230E04BED51E060E488E71B
:102DB0000E94FE19892B19F08AEA9AE05FCF0E94DF
:102DC000AF15E101C095D09580910002909101026C
:102DD000C823D923D0930102C09300020CCF809165
:102DE000FE019091FF01911103C091E089270895A0
:102DF000882389F062E070E082E99AE00E94FC1486
:102E0000892B39F08DE79AE00E940B078091FE0133
:102E100008951092FE018091FE01E7CF08950F936F
:102E20001F938091FF01882319F160E080E00E94E8
:102E300098150E940E170E94D9158091FE018823D3
:102E4000B9F00E9459270091C8041091C90420913B
:102E5000CA043091CB04601B710B820B930B6F3F44
:102E60007F4F8F4F9F4720F41F910F910C94EF16C7
:102E70001F910F9108950F931F93CF93DF93C42F4A
:102E8000D22FFC0182818823C9F0409304020E9462
:102E90004D27909303028093020280E28C0F8830CA
:102EA00008F050C0C77081E001C0880FCA95EAF7EA
:102EB000DF91CF911F910F910C94DC1C10910402B3
:102EC000141335C080910202909103020E9465277D
:102ED000883C910560F5C0E2CD0F1D17B9F080E286
:102EE000810F883040F4177081E001C0880F1A9577
:102EF000EAF70E94E31CC83048F481E09D2F9770E8
:102F000001C0880F9A95EAF70E94DC1C802F0E946E
:102F1000D41CC830B8F4D77081E001C0880FDA95AE
:102F2000EAF7DF91CF911F910F910C94E31C80E29F
:102F30008C0F883038F4C77081E001C0880FCA95C3
:102F4000EAF7EFCFDF91CF911F910F9108950F9383
:102F50009C01CB01243F4CE5340759F1A8F4293DED
:102F6000FCE53F0701F12A3D4CE53407D1F1283D4E
:102F70003C4591F406E221EE41EE68ED7CE50E94CD
:102F80003B1780E00F910895263FFCE53F07E9F0ED
:102F9000B0F0273F3C45F9F0FC018281882339F1EC
:102FA00010920402EFCF07E225EE45EE69ED7CE5D5
:102FB000E6CF06E221EE40EE64EF7CE5E0CF07E2EB
:102FC00025EE44EE65EF7CE5DACF06E221EE42EE37
:102FD00066EF7CE5D4CF07E225EE46EE67EF7CE5B1
:102FE000CECF08E221E045EE6AED7CE5C8CF81E076
:102FF000C9CFCF93DF93EC01FB018281882309F4D1
:1030000019C1C230FCE5DF07C0F1C6319CE5D90724
:1030100030F09E012B5F3C452930310570F50E9450
:10302000DE259093B3028093B202C031ECE5DE0757
:1030300009F4CFC008F05BC0C8308CE5D80709F4AC
:10304000B6C088F5C430ECE5DE0709F4A8C0C0F4CA
:10305000C2308CE5D80709F49CC08091B20282602E
:10306000C330DC4509F498C08091B2029091B3025C
:103070000E94EC250E94551F80E0DF91CF910895BA
:103080008091B2028061C630ECE5DE0709F484C0AD
:103090008091B2028860C730DC4508F47DC0809121
:1030A000B202806279C0CC308CE5D80709F489C0BF
:1030B00070F48091B2028C60CA30ECE5DE0709F44E
:1030C0006BC008F478C08091B2028E7F65C0CE30AC
:1030D0008CE5D80709F479C08091B2028B7FCF309C
:1030E000DC4508F459C08091B2028F7E55C0CC3FB8
:1030F000ECE5DE0709F457C030F5C3318CE5D8079D
:1031000009F46FC078F4C131ECE5DE0709F465C05D
:10311000C231DC4509F0A8CF0E94551F8091B20250
:103120008F773AC0C5318CE5D80709F462C008F43E
:1031300076C08091B3028160CB3FDC4509F094CF2B
:103140008093B30291CFC115FDE5DF0709F44DC0AF
:1031500088F48091B3028D7FCE3F9CE5D90781F33F
:103160008091B3028E7FCF3FDC4550F38091B30254
:103170008360E6CFC230FDE5DF0709F459C008F4EB
:1031800044C080E0C330DD4509F06ECF0E94722656
:103190006BCF8091B20281608093B20265CF809143
:1031A000B2028460F9CF8091B3028260C9CF80916E
:1031B000B2028064F1CF0E94551F8091B2028068F4
:1031C000EBCF8091B2028D7FE7CF8091B202877FF3
:1031D000E3CF8091B2028F7DDFCF8091B2028F7BEF
:1031E000DBCF8091B202837FD7CF8091B3028C7FF7
:1031F000A7CF8091B20282FB992790F921E0922714
:1032000090FB82F990FB83F9C7CF8091B302982F8E
:10321000909591708E7F892B90FB81F991CF0E94C0
:10322000551F9091B202892F97FB87F98058B4CF30
:1032300081E0ACCF81E021CFCF93DF93EB018631EA
:103240009C4511F50E9408259A81992399F08A7A64
:1032500091E009F490E090930502811109C089E2A0
:103260000E94AF240E94582580E0DF91CF910895FD
:1032700085E3F6CF80910502811104C089E20E94A6
:10328000B624F0CF85E3FBCF81E0EFCF1092B900F9
:103290008CE08093B8000895EF92FF920F931F93F4
:1032A000CF93DF93182FEB011092BC0084EA809338
:1032B000BC000E944D277C018091BC0087FF27C085
:1032C0008091B900887F883029F08091B900887F8B
:1032D0008031D9F51093BB0084E88093BC000E9434
:1032E0004D278C018091BC0087FF24C02091B9003C
:1032F000287F90E080E02831B1F081E090E0203438
:1033000011F490E080E09195819591090CC0CF3F38
:10331000DC0791F20E944D278E199F098C179D079B
:1033200058F28EEF9FEFDF91CF911F910F91FF9099
:10333000EF900895CF3FDC07A9F20E944D27801B34
:10334000910B8C179D0770F2ECCF8FEF9FEFEBCFB7
:103350000F931F93CF93DF93EB018093BB0084E81F
:103360008093BC000E944D278C018091BC0087FF98
:1033700011C02091B900287F81E090E0283211F43B
:1033800090E080E0919581959109DF91CF911F9117
:103390000F910895CF3FDC0741F30E944D27801B1A
:1033A000910B8C179D0708F38EEF9FEFEECFCF9216
:1033B000DF92EF92FF920F931F93CF93DF936B01F6
:1033C0008A017901B9010E944C19E6010C0D1D1DFD
:1033D000C017D10761F424E92093BC00DF91CF919D
:1033E0001F910F91FF90EF90DF90CF90089597FD80
:1033F000F2CFB70189910E94A819EACFCF92DF924C
:10340000EF92FF920F931F93CF93DF93C62F6A0122
:103410007901B8010E944C1997FD0CC0B8018C2F9E
:103420000E94A819E601EC0CFD1CCE15DF0511F079
:1034300097FF0CC024E92093BC00DF91CF911F912E
:103440000F91FF90EF90DF90CF900895B801899190
:103450000E94A819EACF84E98093BC000895909354
:103460000B0280930A020895E0910A02F0910B0288
:10347000309721F00190F081E02D099480E00895CB
:10348000EF92FF920F931F93CF93DF938C01E09104
:103490000A02F0910B023097C1F10280F381E02D16
:1034A00009958091A30282FF30C080FF04C08AE9A1
:1034B0009BE00E940B07D0E0C0E084E9E82E8BE09F
:1034C000F82E8091A30280FF0EC0F801EC0FFD1FC3
:1034D00080811F928F93FF92EF920E94A4070F901A
:1034E0000F900F900F902196C830D10551F7809121
:1034F000A30280FF0AC082E99BE0DF91CF911F9178
:103500000F91FF90EF900C940B07DF91CF911F91DB
:103510000F91FF90EF900895E0910A02F0910B0255
:10352000309739F022E0DC012C930480F581E02D06
:10353000099408952091080230910902281739074B
:1035400071F09093090280930802E0910A02F091D1
:103550000B02309721F00680F781E02D0994089541
:1035600020910602309107022817390771F09093D5
:10357000070280930602E0910A02F0910B02309755
:1035800021F00084F185E02D099408950E945927C7
:1035900060931F0270932002809321029093220275
:1035A00060931B0270931C0280931D0290931E0275
:1035B00008950E94592760931F0270932002809300
:1035C0002102909322026093170270931802809355
:1035D000190290931A02089585B7806885BF85B750
:1035E000806885BF0895089508950C94F31A08958E
:1035F0000C94F71A0E94EC1A89E799E20E94BC2702
:103600000E94F41A0C94F51A81E008950C94041B9E
:10361000089508950E94081B0C94091B0E944427DA
:103620000E947B0B80E00E9442150E949C140C9427
:10363000F81ACF93C82F8091A30282FF1EC080FF8B
:103640001CC083EB9BE00E940B078091A30280FFCC
:1036500014C01F92CF938EEA9BE09F938F930E949A
:10366000A4078091A3020F900F900F900F9080FFFE
:1036700004C08CEA9BE00E940B078C2FCF910C9426
:10368000B0087F928F929F92AF92BF92CF92DF92BB
:10369000EF92FF920F931F93CF93DF93CDB7DEB7D7
:1036A0002A970FB6F894DEBF0FBECDBF0E94C90B9C
:1036B000A82E81110E94C61A5DE0852E52E0952E3B
:1036C00010E000E0702E802F0E940C0B6C01F401C2
:1036D000E190F1904F01E816F90609F46AC0809173
:1036E000A30281FD0E94150BC7018C259D25B12CDD
:1036F000EE24E394F12C9C012E213F21232B09F48D
:1037000052C00E94061B8823A9F0BE827F82CE2071
:10371000DF2081E0CD2809F480E088870E944D27D2
:103720008160782F9A8789874E815F8168858A8535
:103730000E94041C000F111FF801E35FFD4F808100
:103740009181E826F926F182E0820E94B214182FB6
:1037500081110E94D91A0E940F17A11001C01111E6
:103760000E94AF150E9480130E94341A90910C029F
:103770008917B1F10E94341A80930C022A960FB671
:10378000F894DEBF0FBECDBFDF91CF911F910F9197
:10379000FF90EF90DF90CF90BF90AF909F908F9071
:1037A0007F900C94191BB394EE0CFF1CFFE0BF122A
:1037B000A2CF0F5F1F4F0530110509F083CF8FEFA8
:1037C00089838A831B820E944D278160782F9D8385
:1037D0008C8349815A816B818D810E94041CB5CFF5
:1037E0002A960FB6F894DEBF0FBECDBFDF91CF9102
:1037F0001F910F91FF90EF90DF90CF90BF90AF900F
:103800009F908F907F900895DF92EF92FF920F9399
:103810001F93CF93DF93CDB7DEB72B970FB6F894F6
:10382000DEBF0FBECDBF7A878B87F42E052F162FF4
:10383000E72ED82E61110E9428251E821D827E2D22
:10384000EC82DD824F2D502F612F8D2D9E812B9686
:103850000FB6F894DEBF0FBECDBFDF91CF911F91A1
:103860000F91FF90EF90DF900C94CB21FC018081B1
:1038700091810C948124CF93C82F882309F44CC0E4
:103880008CEF8C0F813AC8F48C2F0E944A10811162
:1038900043C06C2F80910F01909110010E948926E6
:1038A000882329F08C2F0E94B6240E9458258C2F43
:1038B0000E94AF24CF910C94582580E28C0F883061
:1038C00048F4C77081E001C0880FCA95EAF70E94EA
:1038D0000B25F0CFEBE5EC0FE33040F4F0E0EF54D4
:1038E000FE4F808190E0CF910C949A1AE8E5EC0F9E
:1038F000E73150F4F0E0EE0FFF1FED57FE4F8081EF
:103900009181CF910C94B01ACD3E30F08C2F0E9453
:103910001012CF910C94E312CF910895882361F196
:103920009CEF980F913A20F40E94B6240C945825ED
:1039300090E2980F983050F4877091E001C0990F91
:103940008A95EAF7892F0E941125F0CF9BE5980F01
:10395000933020F490E080E00C949A1A98E5980F48
:10396000973120F490E080E00C94B01A8D3E20F066
:103970000E946A120C94E31208951F93CF93DF9371
:10398000182FEB010E943B1C209731F4812FDF910F
:10399000CF911F910C948E1C8FE99FE00197F1F756
:1039A00000C000002197F0CF70E060E0893311F48F
:1039B00060E570E00C94BD1C882321F00E940B256B
:1039C0000C9458250895882321F00E9411250C9409
:1039D00058250895BF92CF92DF92EF92FF920F93F6
:1039E0001F93CF93DF936C01D62FC72FFC01128159
:1039F000058102950F700E94CD24E82E8823A1F046
:103A0000E12E112389F08C2F807F803429F080E211
:103A10008D0FE12C883040F082E00E94A9250E94A1
:103A2000CD2491E0E82EE926BC2EB2949FE0B92285
:103A3000EB2DF0E0E755F04D0C945F2F0C2F0F703D
:103A4000C07F11F00295007F1123A9F0002359F0E7
:103A500080E28D0F883010F0D11109C0802F0E94B4
:103A60000B250E9458258D2F0E943B1C14C0802FCF
:103A70000E941B25F6CF8D2F0E948E1C002359F02B
:103A800080E28D0F883010F0D1112CC0802F0E9461
:103A900011250E9458252B2D2850330B2430310539
:103AA00020F40E94341A0E94B008EE2009F49EC14E
:103AB0000E94C92480FD9AC1F60112820E94C3248B
:103AC0000E944F23C6010E94171F0E94C324DF914A
:103AD000CF911F910F91FF90EF90DF90CF90BF900B
:103AE0000C947023802F0E942125D3CFFC2FFF70D0
:103AF000FF2EC07FC03219F0F29480EFF822DD2350
:103B000069F0D13049F1112391F1002351F1F6010F
:103B1000858180FFA8CF8F70858323C0112381F01A
:103B2000011106C00E943B258F290E94DC1CB3CFE7
:103B30000130C1F70E943B258F290E944125ABCF60
:103B4000011106C00E944E258F2D0E94E31CA3CFB9
:103B5000013009F4A0CFF6CF112329F0063008F088
:103B60009ACF8F2DE2CF053008F095CFEDCF00230F
:103B700059F3D93349F4FFEF27EE33E0F1502040F9
:103B80003040E1F700C000008D2F0E948E1C83CFD3
:103B90008C2F86958695837069F0813009F07BCFF4
:103BA0008D2F9C2F9370111102C090E080E00E9435
:103BB000B01A71CF8D2F9C2F9370111102C090E01D
:103BC00080E00E949A1A67CF8D2F112329F00E945E
:103BD00010120E94E3125FCF0E946A12FACF8C2F5C
:103BE000837009F041C0111156CF4D2F4295469573
:103BF0004770440F440F0D2F0F7010E030E020E0AD
:103C0000042E04C0000F111F221F331F0A94D2F785
:103C100060E070E0CB01D4FF0FC06FE070E080E0A7
:103C200090E004C0660F771F881F991F4A95D2F74E
:103C30006095709580959095C695C695C370602BDC
:103C4000712B822B932BC23049F058F4C13019F0FC
:103C50000E94012320CF0E94EF221DCF0E94132338
:103C60001ACF0E94ED2217CF8695112311F08C2FC9
:103C70008170882309F40FCF4D2F429546954770E8
:103C8000440F440F0D2F0F7010E030E020E0042EA1
:103C900004C0000F111F221F331F0A94D2F760E0E7
:103CA00070E0CB01D4FF0FC06FE070E080E090E0E7
:103CB00004C0660F771F881F991F4A95D2F7609539
:103CC000709580959095C695C695C370602B712BA5
:103CD000822B932BC23049F058F4C13019F00E9466
:103CE000C623D9CE0E94B423D6CE0E94D823D3CEE9
:103CF0000E942923D0CECF70112329F08C2F0E944F
:103D00004F238D2F12CF8D2F0E94E31C8C2F0E94EA
:103D10007023C1CED23F89F160F4D03FC9F0D13FCA
:103D200029F1112309F442C001119DCE8C2F8F710E
:103D300021C0D33F39F1D43FA1F7112369F1CF71ED
:103D40008C2F0E944F2363E08C2F0E948E25A3CEE0
:103D5000112341F0053008F09ECE8C2F8F710E9408
:103D6000932399CE063008F096CEF7CF8C2F8F7123
:103D7000112369F20E944F238ECE8C2F8F71112355
:103D8000C9F3C5CF112329F08C2F8F710E943A23DC
:103D900082CE0E9435237FCE81E00E94A925023089
:103DA00008F479CE82E00E94A92575CE002359F04F
:103DB000D93309F0E9CE8FEF97EEE3E081509040E0
:103DC000E040E1F7DFCE8C2F8F71A1CF4C2F4F70E9
:103DD0006D2FC6010E94B8080E9465225CCE4C2F50
:103DE0004F706D2FC6010E94BB0855CEDF91CF9159
:103DF0001F910F91FF90EF90DF90CF90BF900895AB
:103E00000F931F93CF93DF93EC01688179818A81AF
:103E10000E948B248C010E94EA230E94EC22B801AC
:103E2000CE01DF91CF911F910F910C94EA1CCF939B
:103E3000DF93EC018B819C81892B29F0888199810A
:103E400089238F3F59F4DF91CF910895CE010E94CD
:103E5000001FCE01DF91CF910C94FC07CE010E9490
:103E60001D088111F3CF0E94CD24882361F38A813C
:103E7000882349F382E0DF91CF910C94A92590E04B
:103E800080E00E949A1A90E080E00E94B01A0E949E
:103E900028250E9438250E9458250E948C140C94D5
:103EA000E3120E94BD240C943F1F0E9418250C941D
:103EB000511FE92FE295EF70E250EE3070F4F0E020
:103EC000E754F04D0C945F2F803F19F020F4883EAA
:103ED00020F481E00895843FE1F380E00895883E76
:103EE000C0F3813FD1F7F5CF93FB882780F9089580
:103EF0000E9481240C94591FCF93DF9300D000D0EF
:103F00000F92CDB7DEB70F900F900F900F900F90DC
:103F1000DF91CF910895CF93DF9300D000D000D0F0
:103F2000CDB7DEB726960FB6F894DEBF0FBECDBF75
:103F3000DF91CF9108951F93CF93DF93C091240217
:103F400016E0809125028C1304C0DF91CF911F9160
:103F50000895D0E01C9FF0011D9FF00D1124EA5D33
:103F6000FD4F4081518162817381848195810E94DE
:103F70008B1F2196C770E5CF409156025091570292
:103F8000609158027091590280915A0290915B029F
:103F90000C948B1F1F93CF93DF9380915B02807FE4
:103FA000A9F480915802882389F080912402C0915D
:103FB00025026091560270915702A0915902B0916A
:103FC0005A02D62FD72316E0C81304C0DF91CF9131
:103FD0001F91089590E0109711F0DF3F19F40196BA
:103FE0008770F2CF189F9001199F300D1124F901AD
:103FF000EA5DFD4F41814713F2CF40814613EFCF79
:1040000042814111ECCF438154814A1B5B0B483CF8
:10401000510528F780915B028F70806180935B026D
:10402000F901E55DFD4F80818F708061808386E5B9
:1040300092E00E94171FDF91CF911F910C949B1F5C
:10404000AF92BF92CF92DF92EF92FF920F931F93A6
:10405000CF93DF93CDB7DEB761970FB6F894DEBF8D
:104060000FBECDBF8C0185E0F801DE011D960190E9
:104070000D928A95E1F7F80140815181E28086E551
:10408000C82E82E0D82E6091590270915A026115B3
:10409000710509F461C19091560220915702892F50
:1040A00082238F3F09F458C1A380B480F090580256
:1040B000F501E61BF70BFF2009F4FCC080915B02C1
:1040C000382F307FE83CF10508F0B2C0311179C0DB
:1040D000FE2C251323C0941321C0E1101FC08F7044
:1040E000806180935B020E94BC1FC6010E94171F63
:1040F00080915B02F80185838F2D61960FB6F8944D
:10410000DEBF0FBECDBFDF91CF911F910F91FF900A
:10411000EF90DF90CF90BF90AF900895AB2829F03B
:10412000842F85238F3F09F033C180E0F82FF17091
:10413000DF2E80FF3CC0809124022091250236E0D2
:10414000821315C04D875E878D859E850E948124D0
:10415000292F22952F702230F0F0243018F59F700F
:10416000F1F0F8019581907FD1F4D12C1EC090E040
:10417000389FF001399FF00D1124EA5DFD4F6181F8
:10418000651306C06081641303C062816E110FC0A5
:1041900001968770D5CF9F7011F0882331F3805E30
:1041A000883018F3C8010E94171FFD2CA5CFEE2000
:1041B00009F4A2CF80915B02816080935B02F12CB5
:1041C0009BCF251306C0941304C0F801EE2009F418
:1041D0008DC04D875E878D859E850E94781F8823C0
:1041E00019F1EE2009F180915B02803270F020918C
:1041F00056023091570238872F831986BB86AA86CC
:104200008C87CE0107960E94171F86E0F801A6E56D
:10421000B2E001900D928A95E1F70E94CA1F0E94B8
:10422000BC1FFF24F39468CFC8010E94171FF9CF69
:10423000311113C07A2DB98AA88A6E2D89890E94FE
:104240007C1F86E592E00E94171F86E0F60111921E
:104250008A95E9F70E94BC1FB2CF25130FC09413B3
:104260000DC0E1100BC0F8018583C8010E94171F23
:1042700086E0F60111928A95E9F73ECF4D875E8779
:104280008D859E850E94781F882371F2EE2061F251
:1042900080915B02803208F4B8CF209156023091B1
:1042A00057023A8329831B82BD82AC828E83CE0162
:1042B0000196A9CFE83CF10508F041C0FE2CEE20A4
:1042C00009F4B2CF25132AC0941328C080915B0251
:1042D00080FD1BC0982F907FC1F0F8018583903F2F
:1042E00031F0982F907F905F8F70892B8583C80164
:1042F0000E94171F86E0F801A6E5B2E001900D923A
:104300008A95E1F70E94BC1FF7CE86E0F801A6E58A
:10431000B2E001900D928A95E1F7EECE4D875E876F
:104320008D859E850E94781F81116FCF80915B02E1
:10433000816080935B02C8010E94171FDDCE7A2D39
:10434000B98AA88A6E2D89890E947C1F86E0F601B1
:1043500011928A95E9F7D6CFEE2009F465CF4D8703
:104360005E878D859E850E94781FF82E882309F42C
:104370005BCF86E0F801A6E5B2E001900D928A9548
:10438000E1F786E592E00E94361C0E94CA1FBACF70
:1043900081E08E25CBCE1F93CF93DF93CDB7DEB7D1
:1043A0002C970FB6F894DEBF0FBECDBF4F83588752
:1043B00069877A878B879C87CE0107960E94202089
:1043C000882369F08A859B85892B39F04F81588530
:1043D000842F85238F3F09F071C016E05FC086E00F
:1043E000FE013796DE01119601900D928A95E1F754
:1043F0008A859B85892B89F38F81988589238F3FB7
:1044000061F32091250230E0C90101968770992758
:10441000409124024817190671F40E94551F10920A
:1044200025021092240286E0E6E5F2E0DF011D920B
:104430008A95E9F7D2CF96E0929FD001939FB00D75
:104440001124AA5DBD4FFE01319601900D929A95FF
:10445000E1F7809325020E949B1FBFCF819FC0017F
:1044600011248A5D9D4F0E9420208823E9F0E0916D
:1044700024021E9FF0011124EA5DFD4F408151810D
:1044800062817381848195810E948B1F80912402B7
:1044900090E00196877099278093240280912402EE
:1044A000909125028913DACF2C960FB6F894DEBFCF
:1044B0000FBECDBFDF91CF911F91089569857A8599
:1044C0008B859C850E948B1F88CFEF92FF920F9364
:1044D0001F93CF93DF938C01892B81F0F12CEE2475
:1044E000E394E8012196F8018491843770F48430D4
:1044F00008F05FC08130B1F08230A1F1DF91CF913F
:104500001F910F91FF90EF900895853709F44CC0EB
:1045100008F43DC09CE7980F903780F78F770E9492
:104520008E1C49C00E5F1F4FFE01849190E2980FD0
:10453000983060F48770FE2D01C0FF0F8A95EAF76E
:104540008F2F0E942B250E94582502C00E943B1CE1
:104550008F2D815030F2EFE9FFE03197F1F700C085
:104560000000F7CF0E5F1F4FFE01849190E2980F7D
:10457000983050F48770FE2D01C0FF0F8A95EAF73E
:104580008F2F0E943125DFCF0E948E1CE1CF0E5F5E
:104590001F4FFE01C491C150D8F28FE99FE00197EF
:1045A000F1F700C00000F7CF0E5F1F4FFE01F4903F
:1045B000CFCF0E943B1C8E01CBCF08950C94DD22FF
:1045C0000E94DE2260939202709393028093940281
:1045D000909395020C943F1F08950C94E0220F9342
:1045E0001F930091920210919302209194023091B6
:1045F0009502602B712B822B932B1F910F910C94A2
:10460000E0220F931F930091920210919302209148
:1046100094023091950260237123822393231F918A
:104620000F910C94E0220F931F930091920210912E
:10463000930220919402309195026027712782277E
:1046400093271F910F910C94E0220C94DD220C947F
:1046500025230E94272360938E0270938F028093FC
:104660009002909391020C943F1F60E070E0CB01A8
:104670000C9429230F931F9341E050E060E070E019
:104680008A019B0104C0000F111F221F331F8A954E
:10469000D2F7C901B8011F910F910C9429230F93F0
:1046A0001F9341E050E060E070E004C0440F551FEC
:1046B000661F771F8A95D2F780918E0290918F02A4
:1046C000A0919002B09191028A019B01082B192BB5
:1046D0002A2B3B2BC901B8011F910F910C94292360
:1046E0000F931F9341E050E060E070E004C0440F7E
:1046F000551F661F771F8A95D2F7CB01BA016095C7
:1047000070958095909500918E0210918F02209166
:1047100090023091910260237123822393231F9191
:104720000F910C9429230F931F9341E050E060E018
:1047300070E004C0440F551F661F771F8A95D2F79B
:1047400080918E0290918F02A0919002B09191027F
:104750008A019B01082719272A273B27C901B8018D
:104760001F910F910C9429230F931F9300918E0298
:1047700010918F022091900230919102602B712B49
:10478000822B932B1F910F910C9429230F931F932E
:1047900000918E0210918F0220919002309191022F
:1047A00060237123822393231F910F910C9429235B
:1047B0000F931F9300918E0210918F02209190020F
:1047C0003091910260277127822793271F910F91C3
:1047D0000C94292308952FE0929F800D1124982F87
:1047E000977041E001C0440F9A95EAF78695869547
:1047F000869595E0899FF0011124E45AFD4F90E0E1
:1048000080E070E05191DF0111979B01082E02C0FA
:10481000369527950A94E2F72170219525272423C0
:1048200025272C9301968530910561F708952FE097
:10483000929F800D1124982F977086958695869566
:1048400025E0829FF0011124E45AFD4F50E040E042
:1048500080E0219130E0092E02C0369527950A9418
:10486000E2F721703327042E01C0220F0A94EAF7E1
:10487000822B4F5F5F4F4530510559F70895BF9226
:10488000CF92DF92EF92FF920F931F93CF93DF931C
:104890008C01C0908E02D0908F02E0909002F09038
:1048A00091028091920290919302A0919402B09112
:1048B0009502C82AD92AEA2AFB2ACFE1D0E0BC2EE9
:1048C000D701C6010C2E04C0B695A795979587957C
:1048D0000A94D2F780FD0EC0219788F7B12C8B2D5A
:1048E000DF91CF911F910F91FF90EF90DF90CF90CC
:1048F000BF900895B8018C2F0E94D808019761F3EA
:10490000EECFCF93DF93EC010E943F24BE01DF91F5
:10491000CF910C94D8081F93CF93DF93EB01909124
:104920002302992331F0CB01DF91CF911F910C9499
:104930008124882379F0CB010E943F24182F682F0F
:10494000CE010E94EB23BE01812FDF91CF911F91F9
:104950000C94D808CB010E941724182FF4CF682F8D
:1049600080910F01909110010C94BF26682F8091C7
:104970000F01909110010C94C12680910F0190912C
:1049800010010C94C3268091960285958595859596
:10499000089580919602877008959091960297707D
:1049A00081E009F480E00895CF93C82F8091B3028D
:1049B00082FB992790F99C17D1F0C0FB82F9809374
:1049C000B3028091B2029091B3020E94EC258091D3
:1049D000A30280FF0CC01F92CF9386EC9BE09F93B5
:1049E0008F930E94A4070F900F900F900F90CF917C
:1049F00008958091B30282FB882780F991E089278E
:104A00000C94D42481E00C94D42480E00C94D4241D
:104A10008091A20208959091A202892B8093A20214
:104A2000089580959091A20298239093A2020895F0
:104A30001092A20208959091A102892B8093A10265
:104A4000089580959091A10298239093A1020895D2
:104A50001092A10208959091A002892B8093A00248
:104A6000089580959091A00298239093A0020895B4
:104A70001092A002089580919702089508950C94D1
:104A80003E259091B30292FD08C09091970298172D
:104A900021F0809397020C943F250895809197020E
:104AA000882329F01092970280E00C943F25089506
:104AB000E0910F01F09110018091A2028083E091BA
:104AC0000F01F091100180819091A102892B8083C8
:104AD000E0910F01F091100180819091A002892B4B
:104AE000808390919702992381F0E0910F01F091DA
:104AF00010018081892B808380910F01909110019A
:104B00000E94772681110E944E2580910F0190917D
:104B100010010C94401A08950C948B259091B302C7
:104B200092FD10C098E0899F90011124622B609340
:104B300096020E944F2380919602859585958595D2
:104B40000C948C250C944F231092960280E00C94C8
:104B50008C25909196028095892380939602282F28
:104B6000277039F4282F082E000C330B92171306E8
:104B700021F49091B30292FF07C0859585958595A4
:104B80000E9470230C94A42508956FEF7FEF90E0AE
:104B900080E00C94912F90E080E00E946D2F21E046
:104BA0008A3E9E4F09F020E0822F089582E090E037
:104BB0000C94652F83E090E00C94652FCF9384E0F4
:104BC00090E00E94652FC82F82E290E00E94652F3E
:104BD000982F8C2FCF910895CF93C92F682F84E001
:104BE00090E00E94732F6C2F82E290E0CF910C94A2
:104BF000732FAB01BC018FE090E00C94852FAB01CB
:104C0000BC0183E190E00C94852F60E070E0CB0163
:104C10000C94FF2560E070E0CB010E94F9250C9414
:104C200005266AEE7EEF90E080E00E94912F60E022
:104C300082E090E00E94732F60E083E090E00E94A9
:104C4000732F10929202109293021092940210927B
:104C5000950260E084E090E00E94732F60E082E2C1
:104C600090E00E94732F60E085E090E00E94732F37
:104C700060E086E090E00E94732F6FEF87E090E0A5
:104C80000E94732F40E050E0BA0188E090E00E945B
:104C9000852F60E08DE090E00E94732F40E050E0AF
:104CA000BA0188E190E00E94852F60E087E190E002
:104CB0000E94732F40E050E0BA018CE190E00E9426
:104CC000852F70E060E080E290E00E94912F40E04C
:104CD00050E0BA0188E190E00E94852F0C940A26EA
:104CE0000C941126682F8EE090E00C94732F9C0199
:104CF0002E5F3F4FAC01485F5F4F80E024173507C0
:104D000009F40895F90191919F019923B9F38F5FF7
:104D1000F5CF662349F0FC013296089621912617BB
:104D200029F0E817F907D1F780E0089581E00895A8
:104D30009C01FC0132969FEF80E04191461751F0B3
:104D40009F3F19F4411101C0982F8F5F8630A9F75A
:104D50009F3F09F40895290F311D97FD3A95F901F8
:104D600062830895FC01329608962191261303C0B0
:104D7000DF0111971C92E817F907B9F708950C9411
:104D800098260C94B226029626E0FC0111922A95F0
:104D9000E9F70895089508950C94CB268091D604E0
:104DA000843049F10E94CC2680E00E94B008109225
:104DB000A40288E190E020E40FB6F894A8958093CF
:104DC00060000FBE2093600083B7817F846083BF43
:104DD00083B7816083BF7894889583B78E7F83BFC4
:104DE0000FB6F894A8958091600088618093600068
:104DF000109260000FBE08950895CF930E94CA26B6
:104E00000E94C90B0E94FC26C0E08C2F0E940C0B54
:104E1000892B31F4CF5FC530C1F780E0CF91089581
:104E200081E0FCCF08950C9412270E94551F0E9428
:104E3000341A0E94B0080C9413271F921FB61F92B9
:104E400011248F939F93AF93BF938091A4028111FC
:104E500013C08091CE049091CF04A091D004B09162
:104E6000D1044196A11DB11D8093CE049093CF042F
:104E7000A093D004B093D104BF91AF919F918F9133
:104E80001F901FBE1F90189582E084BD93E095BDD2
:104E90009AEF97BD80936E0008952FB7F894809194
:104EA000CE049091CF04A091D004B091D1042FBF33
:104EB00008952FB7F8946091CE047091CF0480913B
:104EC000D0049091D1042FBF08959C014FB7F8945E
:104ED0008091CE049091CF04A091D004B091D104E0
:104EE0004FBF821B930B089578941F921FB61F9299
:104EF00011248F939F93AF93BF938091CE04909191
:104F0000CF04A091D004B091D1040196A11DB11D90
:104F10008093CE049093CF04A093D004B093D10497
:104F2000BF91AF919F918F911F901FBE1F901895B9
:104F300081E08093E00080E28093D8001092C90065
:104F40008FE19EE40197F1F700C0000087E090EB4D
:104F5000DC018093DF049093E004A093E104B0931C
:104F6000E20488E19CE00FB6F894A8958093600075
:104F70000FBE90936000FFCF9093C5018093C40152
:104F800008958091B0020895CF93DF9300D00F92DF
:104F9000CDB7DEB79091D604943019F589837B8321
:104FA0006A8382E08093E9008FEF9091E80081505E
:104FB00095FD06C095ED9A95F1F700008111F5CFAA
:104FC0008091E80085FF0DC050E040E063E070E0B4
:104FD000CE0101960E949B2A8091E8008E778093F3
:104FE000E8000F900F900F90DF91CF910895BC01D2
:104FF00084E00C94C427BC0183E00C94C4279C017A
:1050000082E08093E9009FEF8091E800915085FD58
:1050100006C085ED8A95F1F700009111F5CF8091DA
:10502000E80085FF0CC050E040E066E070E0C90198
:105030000E949B2A8091E8008E778093E800089573
:10504000CF93DF93EC0181E08093E9008FEF9091A3
:10505000E800815095FD06C095ED9A95F1F70000A6
:105060008111F5CF8091E80085FF14C050E040E049
:1050700068E070E0CE010E949B2A8091E8008E7764
:105080008093E80088E0FE01A8EAB2E001900D926A
:105090008A95E1F7DF91CF91089580E09CE00E942E
:1050A0000B078091D504811109C00E942B2C0E940E
:1050B000882C8091E20084608093E20008958CEF58
:1050C0009BE00E940B071092D504089588EF9BE0A7
:1050D0000C940B0784EF9BE00C940B0780EF9BE094
:1050E0000C940B072091A6022F5F822F62E30E948F
:1050F0002B2F992319F02093A60208951092A6024F
:105100008091A7028823F1F08091D6048430C1F405
:105110009091E9009F702091EC00822F817020FD1A
:1051200080E8892B93E09093E9009091EB0090FF49
:1051300004C09091EE0097FD08C08F708093E90045
:105140001092A70208951092F1009091E80095FD49
:10515000FACF9091E80090FFF0CF9091E8009E7711
:105160009093E800EACF42E061EC81E00E94A72B37
:1051700042E261EC82E00E94A72B42E261EC83E014
:105180000C94A72B8091D804833009F45FC030F4CD
:105190008130C1F1823009F49BC008958A3009F44E
:1051A00087C08B3009F46DC0893009F04EC0809102
:1051B000D704813209F049C08091DB049091DC046E
:1051C000029708F042C08091E800877F8093E80052
:1051D0008091E80082FF35C09091F3008091F20049
:1051E000029729F48091F1008B7F813021F4809126
:1051F000F1008093B0028091E8008B778093E80003
:105200000C94DB2B8091D704813AF9F48091E8006B
:10521000877F8093E8008091DB049091DC04892BE8
:1052200061F468E088EA92E070E00E94EA2A8091E6
:10523000E8008B778093E800089560E090E080E0DC
:10524000F3CF8091D6048111C3CF08958091D70404
:10525000813AD9F78091DB049091DC04892BA9F77E
:105260008091E800877F8093E8008091E80080FFCC
:10527000FCCF80911B018093F1008091E8008E7734
:10528000BDCF8091D704813201F78091DB049091EA
:10529000DC04892BD1F68091E800877F8093E800B9
:1052A0000E94DB2B8091D90480931B010C94551F25
:1052B0008091D704813249F68091E800877F8093FE
:1052C000E8000E94DB2B8091DA048093B1020895FC
:1052D0008091D704813A09F0B8CF8091E800877FA8
:1052E0008093E8008091E80080FFFCCF8091B102BC
:1052F000C2CF9FB7F8941092A7029FBF9091D60497
:10530000943009F048C02091E9002F703091EC00F2
:10531000932F917030FD90E8922B23E02093E900C9
:105320002091EB0020FF34C02091EE0027FF30C019
:105330002091A502222321F02091E80025FF28C01A
:105340001092A50226E03091E80035FF14C080934A
:10535000F1008091E80085FD27C08091E80080FF82
:10536000FCCF8091E8008E778093E8009F70909347
:10537000E90080E008953091D604343049F430914A
:10538000EB0035FD05C0215041F481E08093A5027A
:105390009F709093E9008FEF0895EFE9FFE0319758
:1053A000F1F700C00000CFCF8FB7F89421E0209331
:1053B000A7028FBFDBCF84B7877F84BF0FB6F89477
:1053C000A8958091600088618093600010926000D1
:1053D0000FBE80E890E00FB6F89480936100909340
:1053E00061000FBE0E94FA1A0E942B2C0E94882C8A
:1053F0008091E20084608093E20078940E94102FF4
:105400000E940E1B81E191E00E942F1A8FED9BE01C
:105410000E940B078091D604853051F48BED9BE000
:105420000E940B078091D604853039F00E94152721
:105430000E94411B0E940A1BEDCF0E94CE26809144
:10544000D404882379F30E94FD26882359F30E940F
:10545000852A0E94551FE6CF0C942E2A292F332728
:105460002330310521F168F42130310509F443C0BE
:105470002230310509F444C090E080E030E020E0C3
:1054800026C02132310551F122323105A9F76330AE
:10549000710590F7FB01EE0FFF1FE954FE4F2081CD
:1054A00031816C547E4FFB01808190E010C09927C0
:1054B0008130910581F0009729F00297E9F6E4E048
:1054C000FCE002C0EEE1FCE0849190E09F01FA0173
:1054D000318320830895E8E0FCE0F6CF6330710566
:1054E00058F6660F771FFB01E354FE4F2081318190
:1054F00089E090E0ECCF82E190E02DE73CE0E7CF5F
:105500008BE590E022E23CE0E2CF80E189BD82E1E0
:1055100089BD09B400FEFDCF8091D8008F7D8093B6
:10552000D8008091E00082608093E0008091E000EC
:1055300081FDFCCF0895AF92BF92CF92DF92FF9290
:105540000F931F93CF93DF936C01EB018A010E94AD
:10555000FA2BF82E811123C00115110539F0F8013D
:1055600080819181C81BD90BC80ED91EB12CA12CEA
:105570002097A9F08091E80085FD22C08091E80085
:105580008E778093E80001151105A1F0F801808164
:105590009181A80EB91EB182A08285E0F82E8F2DD0
:1055A000DF91CF911F910F91FF90DF90CF90BF902F
:1055B000AF9008950E94FA2B8823D1F2F82EEFCFF6
:1055C000F60181916F018093F1002197FFEFAF1AEF
:1055D000BF0ACECFFC018091DD049091DE048617D6
:1055E0009707A0F06115710529F49091E8009E7766
:1055F0009093E80090E06115710551F4911108C095
:105600008091E80082FF34C080E00895BC01F2CFB1
:105610008091D6048823C1F18530C1F18091E800E2
:1056200083FD30C08091E80082FDEACF8091E800E0
:1056300080FFE1CF8091F3002091F200382F6115B7
:10564000710519F02830310558F091E02830310506
:1056500009F090E02091E8002E772093E800CBCF6E
:1056600081918093F100615071092F5F3F4FE7CF27
:105670008091D604882341F0853041F08091E80084
:1056800083FFBECF81E0089582E0089583E008950E
:10569000FC018091DD049091DE0486179707A0F04D
:1056A0006115710529F48091E8008E778093E800F8
:1056B00090E06115710551F4911108C08091E800E6
:1056C00082FF35C080E00895BC01F2CF8091D604FE
:1056D0008823C9F18530C9F18091E80083FD31C08C
:1056E0008091E80082FDEACF8091E80080FFE1CF61
:1056F0008091F3002091F200382F6115710519F0A7
:105700002830310558F091E02830310509F090E05B
:105710008091E8008E778093E800CBCF84918093CE
:10572000F1003196615071092F5F3F4FE6CF8091B4
:10573000D604882341F0853041F08091E80083FF52
:10574000BDCF81E0089582E0089583E00895982F09
:10575000973028F08F708093E90081E0089590934E
:10576000E900242F762F50E0981731F07091EC006B
:105770002091ED005091F00021FD02C09F5FE8CF25
:105780003091EB003E7F3093EB003091ED003D7F98
:105790003093ED003091EB0031603093EB0070936B
:1057A000EC002093ED005093F0002091EE0027FDD7
:1057B000E5CF80E008958091D70487FF13C08091E2
:1057C000E80082FF06C08091E8008B778093E800B4
:1057D00004C08091D6048111F2CF08958091D6043F
:1057E0008823D9F38091E80080FFF8CF8091E8000A
:1057F0008E77ECCF2091E4003091E50095E6A90189
:105800002091EC00822F817020FF06C08091E8007B
:1058100080FF06C080E008952091E80022FD1AC0B4
:105820008091D604882389F0853089F08091EB003F
:1058300085FD0FC02091E4003091E5004217530729
:10584000F9F29150E1F684E0089582E0089583E052
:10585000089581E008950E94992C0E94A12CE0EE09
:10586000F0E0808181608083E8EDF0E080818F77D7
:10587000808319BCA7EDB0E08C918E7F8C938081E2
:105880008F7E80831092D50408950F931F93CF933A
:10589000DF930E94992C0E94A12CC8EDD0E0888152
:1058A0008F77888388818068888388818F7D8883CB
:1058B00019BC1092D6041092D2041092D404109203
:1058C000D30400EE10E0F80180818B7F8083888113
:1058D0008160888342E060E080E00E94A72BE1EED7
:1058E000F0E080818E7F8083E2EEF0E08081816055
:1058F0008083808188608083F80180818E7F8083AF
:10590000888180618883DF91CF911F910F910895E5
:10591000E8EDF0E080818F7E8083E7EDF0E080812C
:105920008160808384E082BF81E08093D5040C9401
:10593000452CE8EDF0E080818E7F80831092E200BC
:1059400008951092DA001092E10008951F920F92CC
:105950000FB60F9211242F933F934F935F936F9342
:105960007F938F939F93AF93BF93EF93FF93809118
:10597000E10082FF0BC08091E20082FF07C08091AE
:10598000E1008B7F8093E1000E9472288091DA0011
:1059900080FF19C08091D80080FF15C08091DA0087
:1059A0008E7F8093DA008091D90080FF96C080E1DD
:1059B00089BD82E189BD09B400FEFDCF81E08093FD
:1059C000D6040E944D288091E10080FF19C080918B
:1059D000E20080FF15C08091E2008E7F8093E2009C
:1059E0008091E20080618093E2008091D800806223
:1059F0008093D80019BC85E08093D6040E946A2861
:105A00008091E10084FF2BC08091E20084FF27C0D9
:105A100080E189BD82E189BD89B5982F917080FFB1
:105A2000FBCF8091D8008F7D8093D8008091E100DA
:105A30008F7E8093E1008091E2008F7E8093E20070
:105A40008091E20081608093E2008091D2048823FB
:105A500009F449C084E08093D6040E946E288091A6
:105A6000E10083FF29C08091E20083FF25C080917F
:105A7000E100877F8093E10082E08093D60410925A
:105A8000D2048091E1008E7F8093E1008091E2005A
:105A90008E7F8093E2008091E20080618093E2003B
:105AA00042E060E080E00E94A72B8091F0008860D7
:105AB0008093F0000E946628FF91EF91BF91AF9113
:105AC0009F918F917F916F915F914F913F912F9116
:105AD0000F900FBE0F901F90189519BC1092D6040E
